{
  "_format": "hh-sol-artifact-1",
  "contractName": "Playground",
  "sourceName": "contracts/Playground.sol",
  "abi": [
    {
      "inputs": [],
      "stateMutability": "nonpayable",
      "type": "constructor"
    },
    {
      "anonymous": false,
      "inputs": [
        {
          "indexed": true,
          "internalType": "address",
          "name": "owner",
          "type": "address"
        },
        {
          "indexed": true,
          "internalType": "address",
          "name": "approved",
          "type": "address"
        },
        {
          "indexed": true,
          "internalType": "uint256",
          "name": "tokenId",
          "type": "uint256"
        }
      ],
      "name": "Approval",
      "type": "event"
    },
    {
      "anonymous": false,
      "inputs": [
        {
          "indexed": true,
          "internalType": "address",
          "name": "owner",
          "type": "address"
        },
        {
          "indexed": true,
          "internalType": "address",
          "name": "operator",
          "type": "address"
        },
        {
          "indexed": false,
          "internalType": "bool",
          "name": "approved",
          "type": "bool"
        }
      ],
      "name": "ApprovalForAll",
      "type": "event"
    },
    {
      "anonymous": false,
      "inputs": [
        {
          "indexed": true,
          "internalType": "address",
          "name": "previousOwner",
          "type": "address"
        },
        {
          "indexed": true,
          "internalType": "address",
          "name": "newOwner",
          "type": "address"
        }
      ],
      "name": "OwnershipTransferred",
      "type": "event"
    },
    {
      "anonymous": false,
      "inputs": [
        {
          "indexed": true,
          "internalType": "address",
          "name": "from",
          "type": "address"
        },
        {
          "indexed": true,
          "internalType": "address",
          "name": "to",
          "type": "address"
        },
        {
          "indexed": true,
          "internalType": "uint256",
          "name": "tokenId",
          "type": "uint256"
        }
      ],
      "name": "Transfer",
      "type": "event"
    },
    {
      "inputs": [],
      "name": "_tokenIds",
      "outputs": [
        {
          "internalType": "uint256",
          "name": "_value",
          "type": "uint256"
        }
      ],
      "stateMutability": "view",
      "type": "function"
    },
    {
      "inputs": [
        {
          "internalType": "address",
          "name": "to",
          "type": "address"
        },
        {
          "internalType": "uint256",
          "name": "tokenId",
          "type": "uint256"
        }
      ],
      "name": "approve",
      "outputs": [],
      "stateMutability": "nonpayable",
      "type": "function"
    },
    {
      "inputs": [
        {
          "internalType": "address",
          "name": "owner",
          "type": "address"
        }
      ],
      "name": "balanceOf",
      "outputs": [
        {
          "internalType": "uint256",
          "name": "",
          "type": "uint256"
        }
      ],
      "stateMutability": "view",
      "type": "function"
    },
    {
      "inputs": [
        {
          "internalType": "uint256",
          "name": "_tokenId",
          "type": "uint256"
        }
      ],
      "name": "claim",
      "outputs": [],
      "stateMutability": "nonpayable",
      "type": "function"
    },
    {
      "inputs": [],
      "name": "deposit",
      "outputs": [],
      "stateMutability": "payable",
      "type": "function"
    },
    {
      "inputs": [
        {
          "internalType": "uint256",
          "name": "tokenId",
          "type": "uint256"
        }
      ],
      "name": "getApproved",
      "outputs": [
        {
          "internalType": "address",
          "name": "",
          "type": "address"
        }
      ],
      "stateMutability": "view",
      "type": "function"
    },
    {
      "inputs": [
        {
          "internalType": "address",
          "name": "owner",
          "type": "address"
        },
        {
          "internalType": "address",
          "name": "operator",
          "type": "address"
        }
      ],
      "name": "isApprovedForAll",
      "outputs": [
        {
          "internalType": "bool",
          "name": "",
          "type": "bool"
        }
      ],
      "stateMutability": "view",
      "type": "function"
    },
    {
      "inputs": [
        {
          "internalType": "address",
          "name": "_to",
          "type": "address"
        },
        {
          "internalType": "uint256",
          "name": "_share",
          "type": "uint256"
        }
      ],
      "name": "mint",
      "outputs": [
        {
          "internalType": "uint256",
          "name": "",
          "type": "uint256"
        }
      ],
      "stateMutability": "nonpayable",
      "type": "function"
    },
    {
      "inputs": [],
      "name": "name",
      "outputs": [
        {
          "internalType": "string",
          "name": "",
          "type": "string"
        }
      ],
      "stateMutability": "view",
      "type": "function"
    },
    {
      "inputs": [],
      "name": "owner",
      "outputs": [
        {
          "internalType": "address",
          "name": "",
          "type": "address"
        }
      ],
      "stateMutability": "view",
      "type": "function"
    },
    {
      "inputs": [
        {
          "internalType": "uint256",
          "name": "tokenId",
          "type": "uint256"
        }
      ],
      "name": "ownerOf",
      "outputs": [
        {
          "internalType": "address",
          "name": "",
          "type": "address"
        }
      ],
      "stateMutability": "view",
      "type": "function"
    },
    {
      "inputs": [],
      "name": "renounceOwnership",
      "outputs": [],
      "stateMutability": "nonpayable",
      "type": "function"
    },
    {
      "inputs": [
        {
          "internalType": "address",
          "name": "from",
          "type": "address"
        },
        {
          "internalType": "address",
          "name": "to",
          "type": "address"
        },
        {
          "internalType": "uint256",
          "name": "tokenId",
          "type": "uint256"
        }
      ],
      "name": "safeTransferFrom",
      "outputs": [],
      "stateMutability": "nonpayable",
      "type": "function"
    },
    {
      "inputs": [
        {
          "internalType": "address",
          "name": "from",
          "type": "address"
        },
        {
          "internalType": "address",
          "name": "to",
          "type": "address"
        },
        {
          "internalType": "uint256",
          "name": "tokenId",
          "type": "uint256"
        },
        {
          "internalType": "bytes",
          "name": "_data",
          "type": "bytes"
        }
      ],
      "name": "safeTransferFrom",
      "outputs": [],
      "stateMutability": "nonpayable",
      "type": "function"
    },
    {
      "inputs": [
        {
          "internalType": "address",
          "name": "operator",
          "type": "address"
        },
        {
          "internalType": "bool",
          "name": "approved",
          "type": "bool"
        }
      ],
      "name": "setApprovalForAll",
      "outputs": [],
      "stateMutability": "nonpayable",
      "type": "function"
    },
    {
      "inputs": [
        {
          "internalType": "uint256",
          "name": "",
          "type": "uint256"
        }
      ],
      "name": "shares",
      "outputs": [
        {
          "internalType": "uint256",
          "name": "",
          "type": "uint256"
        }
      ],
      "stateMutability": "view",
      "type": "function"
    },
    {
      "inputs": [
        {
          "internalType": "bytes4",
          "name": "interfaceId",
          "type": "bytes4"
        }
      ],
      "name": "supportsInterface",
      "outputs": [
        {
          "internalType": "bool",
          "name": "",
          "type": "bool"
        }
      ],
      "stateMutability": "view",
      "type": "function"
    },
    {
      "inputs": [],
      "name": "symbol",
      "outputs": [
        {
          "internalType": "string",
          "name": "",
          "type": "string"
        }
      ],
      "stateMutability": "view",
      "type": "function"
    },
    {
      "inputs": [
        {
          "internalType": "uint256",
          "name": "index",
          "type": "uint256"
        }
      ],
      "name": "tokenByIndex",
      "outputs": [
        {
          "internalType": "uint256",
          "name": "",
          "type": "uint256"
        }
      ],
      "stateMutability": "view",
      "type": "function"
    },
    {
      "inputs": [
        {
          "internalType": "address",
          "name": "owner",
          "type": "address"
        },
        {
          "internalType": "uint256",
          "name": "index",
          "type": "uint256"
        }
      ],
      "name": "tokenOfOwnerByIndex",
      "outputs": [
        {
          "internalType": "uint256",
          "name": "",
          "type": "uint256"
        }
      ],
      "stateMutability": "view",
      "type": "function"
    },
    {
      "inputs": [
        {
          "internalType": "uint256",
          "name": "tokenId",
          "type": "uint256"
        }
      ],
      "name": "tokenURI",
      "outputs": [
        {
          "internalType": "string",
          "name": "",
          "type": "string"
        }
      ],
      "stateMutability": "view",
      "type": "function"
    },
    {
      "inputs": [],
      "name": "totalDepositedAmount",
      "outputs": [
        {
          "internalType": "uint256",
          "name": "",
          "type": "uint256"
        }
      ],
      "stateMutability": "view",
      "type": "function"
    },
    {
      "inputs": [],
      "name": "totalShares",
      "outputs": [
        {
          "internalType": "uint256",
          "name": "",
          "type": "uint256"
        }
      ],
      "stateMutability": "view",
      "type": "function"
    },
    {
      "inputs": [],
      "name": "totalSupply",
      "outputs": [
        {
          "internalType": "uint256",
          "name": "",
          "type": "uint256"
        }
      ],
      "stateMutability": "view",
      "type": "function"
    },
    {
      "inputs": [
        {
          "internalType": "address",
          "name": "from",
          "type": "address"
        },
        {
          "internalType": "address",
          "name": "to",
          "type": "address"
        },
        {
          "internalType": "uint256",
          "name": "tokenId",
          "type": "uint256"
        }
      ],
      "name": "transferFrom",
      "outputs": [],
      "stateMutability": "nonpayable",
      "type": "function"
    },
    {
      "inputs": [
        {
          "internalType": "address",
          "name": "newOwner",
          "type": "address"
        }
      ],
      "name": "transferOwnership",
      "outputs": [],
      "stateMutability": "nonpayable",
      "type": "function"
    }
  ],
  "bytecode": "0x60806040526064600e553480156200001657600080fd5b506040518060400160405280600a81526020017f506c617967726f756e64000000000000000000000000000000000000000000008152506040518060400160405280600281526020017f504700000000000000000000000000000000000000000000000000000000000081525081600090805190602001906200009b929190620001ab565b508060019080519060200190620000b4929190620001ab565b505050620000d7620000cb620000dd60201b60201c565b620000e560201b60201c565b620002c0565b600033905090565b6000600a60009054906101000a900473ffffffffffffffffffffffffffffffffffffffff16905081600a60006101000a81548173ffffffffffffffffffffffffffffffffffffffff021916908373ffffffffffffffffffffffffffffffffffffffff1602179055508173ffffffffffffffffffffffffffffffffffffffff168173ffffffffffffffffffffffffffffffffffffffff167f8be0079c531659141344cd1fd0a4f28419497f9722a3daafe3b4186f6b6457e060405160405180910390a35050565b828054620001b9906200025b565b90600052602060002090601f016020900481019282620001dd576000855562000229565b82601f10620001f857805160ff191683800117855562000229565b8280016001018555821562000229579182015b82811115620002285782518255916020019190600101906200020b565b5b5090506200023891906200023c565b5090565b5b80821115620002575760008160009055506001016200023d565b5090565b600060028204905060018216806200027457607f821691505b602082108114156200028b576200028a62000291565b5b50919050565b7f4e487b7100000000000000000000000000000000000000000000000000000000600052602260045260246000fd5b613a3880620002d06000396000f3fe6080604052600436106101815760003560e01c806357a858fc116100d1578063a22cb4651161008a578063c87b56dd11610064578063c87b56dd146105a8578063d0e30db0146105e5578063e985e9c5146105ef578063f2fde38b1461062c57610181565b8063a22cb4651461052b578063aa46a40014610554578063b88d4fde1461057f57610181565b806357a858fc146104075780636352211e1461044457806370a0823114610481578063715018a6146104be5780638da5cb5b146104d557806395d89b411461050057610181565b806323b872dd1161013e5780633a98ef39116101185780633a98ef391461033957806340c10f191461036457806342842e0e146103a15780634f6ccce7146103ca57610181565b806323b872dd146102aa5780632f745c59146102d3578063379607f51461031057610181565b806301ffc9a71461018657806306fdde03146101c3578063081812fc146101ee578063095ea7b31461022b578063172958941461025457806318160ddd1461027f575b600080fd5b34801561019257600080fd5b506101ad60048036038101906101a891906128b6565b610655565b6040516101ba919061329b565b60405180910390f35b3480156101cf57600080fd5b506101d86106cf565b6040516101e591906132b6565b60405180910390f35b3480156101fa57600080fd5b5061021560048036038101906102109190612908565b610761565b6040516102229190613234565b60405180910390f35b34801561023757600080fd5b50610252600480360381019061024d919061287a565b6107e6565b005b34801561026057600080fd5b506102696108fe565b6040516102769190613598565b60405180910390f35b34801561028b57600080fd5b50610294610904565b6040516102a19190613598565b60405180910390f35b3480156102b657600080fd5b506102d160048036038101906102cc9190612774565b610911565b005b3480156102df57600080fd5b506102fa60048036038101906102f5919061287a565b610971565b6040516103079190613598565b60405180910390f35b34801561031c57600080fd5b5061033760048036038101906103329190612908565b610a16565b005b34801561034557600080fd5b5061034e610c00565b60405161035b9190613598565b60405180910390f35b34801561037057600080fd5b5061038b6004803603810190610386919061287a565b610c06565b6040516103989190613598565b60405180910390f35b3480156103ad57600080fd5b506103c860048036038101906103c39190612774565b610d43565b005b3480156103d657600080fd5b506103f160048036038101906103ec9190612908565b610d63565b6040516103fe9190613598565b60405180910390f35b34801561041357600080fd5b5061042e60048036038101906104299190612908565b610dfa565b60405161043b9190613598565b60405180910390f35b34801561045057600080fd5b5061046b60048036038101906104669190612908565b610e12565b6040516104789190613234565b60405180910390f35b34801561048d57600080fd5b506104a860048036038101906104a3919061270f565b610ec4565b6040516104b59190613598565b60405180910390f35b3480156104ca57600080fd5b506104d3610f7c565b005b3480156104e157600080fd5b506104ea611004565b6040516104f79190613234565b60405180910390f35b34801561050c57600080fd5b5061051561102e565b60405161052291906132b6565b60405180910390f35b34801561053757600080fd5b50610552600480360381019061054d919061283e565b6110c0565b005b34801561056057600080fd5b506105696110d6565b6040516105769190613598565b60405180910390f35b34801561058b57600080fd5b506105a660048036038101906105a191906127c3565b6110e2565b005b3480156105b457600080fd5b506105cf60048036038101906105ca9190612908565b611144565b6040516105dc91906132b6565b60405180910390f35b6105ed6111eb565b005b3480156105fb57600080fd5b5061061660048036038101906106119190612738565b611206565b604051610623919061329b565b60405180910390f35b34801561063857600080fd5b50610653600480360381019061064e919061270f565b61129a565b005b60007f780e9d63000000000000000000000000000000000000000000000000000000007bffffffffffffffffffffffffffffffffffffffffffffffffffffffff1916827bffffffffffffffffffffffffffffffffffffffffffffffffffffffff191614806106c857506106c782611392565b5b9050919050565b6060600080546106de9061382d565b80601f016020809104026020016040519081016040528092919081815260200182805461070a9061382d565b80156107575780601f1061072c57610100808354040283529160200191610757565b820191906000526020600020905b81548152906001019060200180831161073a57829003601f168201915b5050505050905090565b600061076c82611474565b6107ab576040517f08c379a00000000000000000000000000000000000000000000000000000000081526004016107a290613478565b60405180910390fd5b6004600083815260200190815260200160002060009054906101000a900473ffffffffffffffffffffffffffffffffffffffff169050919050565b60006107f182610e12565b90508073ffffffffffffffffffffffffffffffffffffffff168373ffffffffffffffffffffffffffffffffffffffff161415610862576040517f08c379a0000000000000000000000000000000000000000000000000000000008152600401610859906134f8565b60405180910390fd5b8073ffffffffffffffffffffffffffffffffffffffff166108816114e0565b73ffffffffffffffffffffffffffffffffffffffff1614806108b057506108af816108aa6114e0565b611206565b5b6108ef576040517f08c379a00000000000000000000000000000000000000000000000000000000081526004016108e6906133d8565b60405180910390fd5b6108f983836114e8565b505050565b60105481565b6000600880549050905090565b61092261091c6114e0565b826115a1565b610961576040517f08c379a000000000000000000000000000000000000000000000000000000000815260040161095890613518565b60405180910390fd5b61096c83838361167f565b505050565b600061097c83610ec4565b82106109bd576040517f08c379a00000000000000000000000000000000000000000000000000000000081526004016109b4906132d8565b60405180910390fd5b600660008473ffffffffffffffffffffffffffffffffffffffff1673ffffffffffffffffffffffffffffffffffffffff168152602001908152602001600020600083815260200190815260200160002054905092915050565b3373ffffffffffffffffffffffffffffffffffffffff16610a3682610e12565b73ffffffffffffffffffffffffffffffffffffffff1614610a8c576040517f08c379a0000000000000000000000000000000000000000000000000000000008152600401610a8390613338565b60405180910390fd5b6000600e54600c600084815260200190815260200160002054601054610ab291906136e9565b610abc91906136b8565b90506000600d60008481526020019081526020016000205482610adf9190613743565b905060008111610b24576040517f08c379a0000000000000000000000000000000000000000000000000000000008152600401610b1b90613438565b60405180910390fd5b60003373ffffffffffffffffffffffffffffffffffffffff1682604051610b4a9061321f565b60006040518083038185875af1925050503d8060008114610b87576040519150601f19603f3d011682016040523d82523d6000602084013e610b8c565b606091505b5050905080610bd0576040517f08c379a0000000000000000000000000000000000000000000000000000000008152600401610bc790613578565b60405180910390fd5b81600d60008681526020019081526020016000206000828254610bf39190613662565b9250508190555050505050565b600e5481565b6000610c106114e0565b73ffffffffffffffffffffffffffffffffffffffff16610c2e611004565b73ffffffffffffffffffffffffffffffffffffffff1614610c84576040517f08c379a0000000000000000000000000000000000000000000000000000000008152600401610c7b90613498565b60405180910390fd5b816000811415610cc9576040517f08c379a0000000000000000000000000000000000000000000000000000000008152600401610cc090613558565b60405180910390fd5b600e5483600f54610cda9190613662565b1115610ce557600080fd5b6000610cf1600b6118db565b9050610cfd85826118e9565b83600c600083815260200190815260200160002081905550610d1f600b611907565b83600f6000828254610d319190613662565b92505081905550809250505092915050565b610d5e838383604051806020016040528060008152506110e2565b505050565b6000610d6d610904565b8210610dae576040517f08c379a0000000000000000000000000000000000000000000000000000000008152600401610da590613538565b60405180910390fd5b60088281548110610de8577f4e487b7100000000000000000000000000000000000000000000000000000000600052603260045260246000fd5b90600052602060002001549050919050565b600c6020528060005260406000206000915090505481565b6000806002600084815260200190815260200160002060009054906101000a900473ffffffffffffffffffffffffffffffffffffffff169050600073ffffffffffffffffffffffffffffffffffffffff168173ffffffffffffffffffffffffffffffffffffffff161415610ebb576040517f08c379a0000000000000000000000000000000000000000000000000000000008152600401610eb290613418565b60405180910390fd5b80915050919050565b60008073ffffffffffffffffffffffffffffffffffffffff168273ffffffffffffffffffffffffffffffffffffffff161415610f35576040517f08c379a0000000000000000000000000000000000000000000000000000000008152600401610f2c906133f8565b60405180910390fd5b600360008373ffffffffffffffffffffffffffffffffffffffff1673ffffffffffffffffffffffffffffffffffffffff168152602001908152602001600020549050919050565b610f846114e0565b73ffffffffffffffffffffffffffffffffffffffff16610fa2611004565b73ffffffffffffffffffffffffffffffffffffffff1614610ff8576040517f08c379a0000000000000000000000000000000000000000000000000000000008152600401610fef90613498565b60405180910390fd5b611002600061191d565b565b6000600a60009054906101000a900473ffffffffffffffffffffffffffffffffffffffff16905090565b60606001805461103d9061382d565b80601f01602080910402602001604051908101604052809291908181526020018280546110699061382d565b80156110b65780601f1061108b576101008083540402835291602001916110b6565b820191906000526020600020905b81548152906001019060200180831161109957829003601f168201915b5050505050905090565b6110d26110cb6114e0565b83836119e3565b5050565b600b8060000154905081565b6110f36110ed6114e0565b836115a1565b611132576040517f08c379a000000000000000000000000000000000000000000000000000000000815260040161112990613518565b60405180910390fd5b61113e84848484611b50565b50505050565b606061114f82611474565b61118e576040517f08c379a0000000000000000000000000000000000000000000000000000000008152600401611185906134d8565b60405180910390fd5b6000611198611bac565b905060008151116111b857604051806020016040528060008152506111e3565b806111c284611bc3565b6040516020016111d39291906131fb565b6040516020818303038152906040525b915050919050565b34601060008282546111fd9190613662565b92505081905550565b6000600560008473ffffffffffffffffffffffffffffffffffffffff1673ffffffffffffffffffffffffffffffffffffffff16815260200190815260200160002060008373ffffffffffffffffffffffffffffffffffffffff1673ffffffffffffffffffffffffffffffffffffffff16815260200190815260200160002060009054906101000a900460ff16905092915050565b6112a26114e0565b73ffffffffffffffffffffffffffffffffffffffff166112c0611004565b73ffffffffffffffffffffffffffffffffffffffff1614611316576040517f08c379a000000000000000000000000000000000000000000000000000000000815260040161130d90613498565b60405180910390fd5b600073ffffffffffffffffffffffffffffffffffffffff168173ffffffffffffffffffffffffffffffffffffffff161415611386576040517f08c379a000000000000000000000000000000000000000000000000000000000815260040161137d90613318565b60405180910390fd5b61138f8161191d565b50565b60007f80ac58cd000000000000000000000000000000000000000000000000000000007bffffffffffffffffffffffffffffffffffffffffffffffffffffffff1916827bffffffffffffffffffffffffffffffffffffffffffffffffffffffff1916148061145d57507f5b5e139f000000000000000000000000000000000000000000000000000000007bffffffffffffffffffffffffffffffffffffffffffffffffffffffff1916827bffffffffffffffffffffffffffffffffffffffffffffffffffffffff1916145b8061146d575061146c82611d70565b5b9050919050565b60008073ffffffffffffffffffffffffffffffffffffffff166002600084815260200190815260200160002060009054906101000a900473ffffffffffffffffffffffffffffffffffffffff1673ffffffffffffffffffffffffffffffffffffffff1614159050919050565b600033905090565b816004600083815260200190815260200160002060006101000a81548173ffffffffffffffffffffffffffffffffffffffff021916908373ffffffffffffffffffffffffffffffffffffffff160217905550808273ffffffffffffffffffffffffffffffffffffffff1661155b83610e12565b73ffffffffffffffffffffffffffffffffffffffff167f8c5be1e5ebec7d5bd14f71427d1e84f3dd0314c0f7b2291e5b200ac8c7c3b92560405160405180910390a45050565b60006115ac82611474565b6115eb576040517f08c379a00000000000000000000000000000000000000000000000000000000081526004016115e2906133b8565b60405180910390fd5b60006115f683610e12565b90508073ffffffffffffffffffffffffffffffffffffffff168473ffffffffffffffffffffffffffffffffffffffff16148061166557508373ffffffffffffffffffffffffffffffffffffffff1661164d84610761565b73ffffffffffffffffffffffffffffffffffffffff16145b8061167657506116758185611206565b5b91505092915050565b8273ffffffffffffffffffffffffffffffffffffffff1661169f82610e12565b73ffffffffffffffffffffffffffffffffffffffff16146116f5576040517f08c379a00000000000000000000000000000000000000000000000000000000081526004016116ec906134b8565b60405180910390fd5b600073ffffffffffffffffffffffffffffffffffffffff168273ffffffffffffffffffffffffffffffffffffffff161415611765576040517f08c379a000000000000000000000000000000000000000000000000000000000815260040161175c90613378565b60405180910390fd5b611770838383611dda565b61177b6000826114e8565b6001600360008573ffffffffffffffffffffffffffffffffffffffff1673ffffffffffffffffffffffffffffffffffffffff16815260200190815260200160002060008282546117cb9190613743565b925050819055506001600360008473ffffffffffffffffffffffffffffffffffffffff1673ffffffffffffffffffffffffffffffffffffffff16815260200190815260200160002060008282546118229190613662565b92505081905550816002600083815260200190815260200160002060006101000a81548173ffffffffffffffffffffffffffffffffffffffff021916908373ffffffffffffffffffffffffffffffffffffffff160217905550808273ffffffffffffffffffffffffffffffffffffffff168473ffffffffffffffffffffffffffffffffffffffff167fddf252ad1be2c89b69c2b068fc378daa952ba7f163c4a11628f55a4df523b3ef60405160405180910390a4505050565b600081600001549050919050565b611903828260405180602001604052806000815250611eee565b5050565b6001816000016000828254019250508190555050565b6000600a60009054906101000a900473ffffffffffffffffffffffffffffffffffffffff16905081600a60006101000a81548173ffffffffffffffffffffffffffffffffffffffff021916908373ffffffffffffffffffffffffffffffffffffffff1602179055508173ffffffffffffffffffffffffffffffffffffffff168173ffffffffffffffffffffffffffffffffffffffff167f8be0079c531659141344cd1fd0a4f28419497f9722a3daafe3b4186f6b6457e060405160405180910390a35050565b8173ffffffffffffffffffffffffffffffffffffffff168373ffffffffffffffffffffffffffffffffffffffff161415611a52576040517f08c379a0000000000000000000000000000000000000000000000000000000008152600401611a4990613398565b60405180910390fd5b80600560008573ffffffffffffffffffffffffffffffffffffffff1673ffffffffffffffffffffffffffffffffffffffff16815260200190815260200160002060008473ffffffffffffffffffffffffffffffffffffffff1673ffffffffffffffffffffffffffffffffffffffff16815260200190815260200160002060006101000a81548160ff0219169083151502179055508173ffffffffffffffffffffffffffffffffffffffff168373ffffffffffffffffffffffffffffffffffffffff167f17307eab39ab6107e8899845ad3d59bd9653f200f220920489ca2b5937696c3183604051611b43919061329b565b60405180910390a3505050565b611b5b84848461167f565b611b6784848484611f49565b611ba6576040517f08c379a0000000000000000000000000000000000000000000000000000000008152600401611b9d906132f8565b60405180910390fd5b50505050565b606060405180602001604052806000815250905090565b60606000821415611c0b576040518060400160405280600181526020017f30000000000000000000000000000000000000000000000000000000000000008152509050611d6b565b600082905060005b60008214611c3d578080611c269061385f565b915050600a82611c3691906136b8565b9150611c13565b60008167ffffffffffffffff811115611c7f577f4e487b7100000000000000000000000000000000000000000000000000000000600052604160045260246000fd5b6040519080825280601f01601f191660200182016040528015611cb15781602001600182028036833780820191505090505b5090505b60008514611d6457600182611cca9190613743565b9150600a85611cd991906138a8565b6030611ce59190613662565b60f81b818381518110611d21577f4e487b7100000000000000000000000000000000000000000000000000000000600052603260045260246000fd5b60200101907effffffffffffffffffffffffffffffffffffffffffffffffffffffffffffff1916908160001a905350600a85611d5d91906136b8565b9450611cb5565b8093505050505b919050565b60007f01ffc9a7000000000000000000000000000000000000000000000000000000007bffffffffffffffffffffffffffffffffffffffffffffffffffffffff1916827bffffffffffffffffffffffffffffffffffffffffffffffffffffffff1916149050919050565b611de58383836120e0565b600073ffffffffffffffffffffffffffffffffffffffff168373ffffffffffffffffffffffffffffffffffffffff161415611e2857611e23816120e5565b611e67565b8173ffffffffffffffffffffffffffffffffffffffff168373ffffffffffffffffffffffffffffffffffffffff1614611e6657611e65838261212e565b5b5b600073ffffffffffffffffffffffffffffffffffffffff168273ffffffffffffffffffffffffffffffffffffffff161415611eaa57611ea58161229b565b611ee9565b8273ffffffffffffffffffffffffffffffffffffffff168273ffffffffffffffffffffffffffffffffffffffff1614611ee857611ee782826123de565b5b5b505050565b611ef8838361245d565b611f056000848484611f49565b611f44576040517f08c379a0000000000000000000000000000000000000000000000000000000008152600401611f3b906132f8565b60405180910390fd5b505050565b6000611f6a8473ffffffffffffffffffffffffffffffffffffffff1661262b565b156120d3578373ffffffffffffffffffffffffffffffffffffffff1663150b7a02611f936114e0565b8786866040518563ffffffff1660e01b8152600401611fb5949392919061324f565b602060405180830381600087803b158015611fcf57600080fd5b505af192505050801561200057506040513d601f19601f82011682018060405250810190611ffd91906128df565b60015b612083573d8060008114612030576040519150601f19603f3d011682016040523d82523d6000602084013e612035565b606091505b5060008151141561207b576040517f08c379a0000000000000000000000000000000000000000000000000000000008152600401612072906132f8565b60405180910390fd5b805181602001fd5b63150b7a0260e01b7bffffffffffffffffffffffffffffffffffffffffffffffffffffffff1916817bffffffffffffffffffffffffffffffffffffffffffffffffffffffff1916149150506120d8565b600190505b949350505050565b505050565b6008805490506009600083815260200190815260200160002081905550600881908060018154018082558091505060019003906000526020600020016000909190919091505550565b6000600161213b84610ec4565b6121459190613743565b905060006007600084815260200190815260200160002054905081811461222a576000600660008673ffffffffffffffffffffffffffffffffffffffff1673ffffffffffffffffffffffffffffffffffffffff168152602001908152602001600020600084815260200190815260200160002054905080600660008773ffffffffffffffffffffffffffffffffffffffff1673ffffffffffffffffffffffffffffffffffffffff168152602001908152602001600020600084815260200190815260200160002081905550816007600083815260200190815260200160002081905550505b6007600084815260200190815260200160002060009055600660008573ffffffffffffffffffffffffffffffffffffffff1673ffffffffffffffffffffffffffffffffffffffff16815260200190815260200160002060008381526020019081526020016000206000905550505050565b600060016008805490506122af9190613743565b9050600060096000848152602001908152602001600020549050600060088381548110612305577f4e487b7100000000000000000000000000000000000000000000000000000000600052603260045260246000fd5b90600052602060002001549050806008838154811061234d577f4e487b7100000000000000000000000000000000000000000000000000000000600052603260045260246000fd5b9060005260206000200181905550816009600083815260200190815260200160002081905550600960008581526020019081526020016000206000905560088054806123c2577f4e487b7100000000000000000000000000000000000000000000000000000000600052603160045260246000fd5b6001900381819060005260206000200160009055905550505050565b60006123e983610ec4565b905081600660008573ffffffffffffffffffffffffffffffffffffffff1673ffffffffffffffffffffffffffffffffffffffff168152602001908152602001600020600083815260200190815260200160002081905550806007600084815260200190815260200160002081905550505050565b600073ffffffffffffffffffffffffffffffffffffffff168273ffffffffffffffffffffffffffffffffffffffff1614156124cd576040517f08c379a00000000000000000000000000000000000000000000000000000000081526004016124c490613458565b60405180910390fd5b6124d681611474565b15612516576040517f08c379a000000000000000000000000000000000000000000000000000000000815260040161250d90613358565b60405180910390fd5b61252260008383611dda565b6001600360008473ffffffffffffffffffffffffffffffffffffffff1673ffffffffffffffffffffffffffffffffffffffff16815260200190815260200160002060008282546125729190613662565b92505081905550816002600083815260200190815260200160002060006101000a81548173ffffffffffffffffffffffffffffffffffffffff021916908373ffffffffffffffffffffffffffffffffffffffff160217905550808273ffffffffffffffffffffffffffffffffffffffff16600073ffffffffffffffffffffffffffffffffffffffff167fddf252ad1be2c89b69c2b068fc378daa952ba7f163c4a11628f55a4df523b3ef60405160405180910390a45050565b600080823b905060008111915050919050565b600061265161264c846135e4565b6135b3565b90508281526020810184848401111561266957600080fd5b6126748482856137eb565b509392505050565b60008135905061268b816139a6565b92915050565b6000813590506126a0816139bd565b92915050565b6000813590506126b5816139d4565b92915050565b6000815190506126ca816139d4565b92915050565b600082601f8301126126e157600080fd5b81356126f184826020860161263e565b91505092915050565b600081359050612709816139eb565b92915050565b60006020828403121561272157600080fd5b600061272f8482850161267c565b91505092915050565b6000806040838503121561274b57600080fd5b60006127598582860161267c565b925050602061276a8582860161267c565b9150509250929050565b60008060006060848603121561278957600080fd5b60006127978682870161267c565b93505060206127a88682870161267c565b92505060406127b9868287016126fa565b9150509250925092565b600080600080608085870312156127d957600080fd5b60006127e78782880161267c565b94505060206127f88782880161267c565b9350506040612809878288016126fa565b925050606085013567ffffffffffffffff81111561282657600080fd5b612832878288016126d0565b91505092959194509250565b6000806040838503121561285157600080fd5b600061285f8582860161267c565b925050602061287085828601612691565b9150509250929050565b6000806040838503121561288d57600080fd5b600061289b8582860161267c565b92505060206128ac858286016126fa565b9150509250929050565b6000602082840312156128c857600080fd5b60006128d6848285016126a6565b91505092915050565b6000602082840312156128f157600080fd5b60006128ff848285016126bb565b91505092915050565b60006020828403121561291a57600080fd5b6000612928848285016126fa565b91505092915050565b61293a81613777565b82525050565b61294981613789565b82525050565b600061295a82613614565b612964818561362a565b93506129748185602086016137fa565b61297d81613995565b840191505092915050565b60006129938261361f565b61299d8185613646565b93506129ad8185602086016137fa565b6129b681613995565b840191505092915050565b60006129cc8261361f565b6129d68185613657565b93506129e68185602086016137fa565b80840191505092915050565b60006129ff602b83613646565b91507f455243373231456e756d657261626c653a206f776e657220696e646578206f7560008301527f74206f6620626f756e64730000000000000000000000000000000000000000006020830152604082019050919050565b6000612a65603283613646565b91507f4552433732313a207472616e7366657220746f206e6f6e20455243373231526560008301527f63656976657220696d706c656d656e74657200000000000000000000000000006020830152604082019050919050565b6000612acb602683613646565b91507f4f776e61626c653a206e6577206f776e657220697320746865207a65726f206160008301527f64647265737300000000000000000000000000000000000000000000000000006020830152604082019050919050565b6000612b31602483613646565b91507f596f7520617265206e6f7420746865206f776e6572206f66207468697320746f60008301527f6b656e2e000000000000000000000000000000000000000000000000000000006020830152604082019050919050565b6000612b97601c83613646565b91507f4552433732313a20746f6b656e20616c7265616479206d696e746564000000006000830152602082019050919050565b6000612bd7602483613646565b91507f4552433732313a207472616e7366657220746f20746865207a65726f2061646460008301527f72657373000000000000000000000000000000000000000000000000000000006020830152604082019050919050565b6000612c3d601983613646565b91507f4552433732313a20617070726f766520746f2063616c6c6572000000000000006000830152602082019050919050565b6000612c7d602c83613646565b91507f4552433732313a206f70657261746f7220717565727920666f72206e6f6e657860008301527f697374656e7420746f6b656e00000000000000000000000000000000000000006020830152604082019050919050565b6000612ce3603883613646565b91507f4552433732313a20617070726f76652063616c6c6572206973206e6f74206f7760008301527f6e6572206e6f7220617070726f76656420666f7220616c6c00000000000000006020830152604082019050919050565b6000612d49602a83613646565b91507f4552433732313a2062616c616e636520717565727920666f7220746865207a6560008301527f726f2061646472657373000000000000000000000000000000000000000000006020830152604082019050919050565b6000612daf602983613646565b91507f4552433732313a206f776e657220717565727920666f72206e6f6e657869737460008301527f656e7420746f6b656e00000000000000000000000000000000000000000000006020830152604082019050919050565b6000612e15601683613646565b91507f596f7520646f6e74206465736572766520736869742e000000000000000000006000830152602082019050919050565b6000612e55602083613646565b91507f4552433732313a206d696e7420746f20746865207a65726f20616464726573736000830152602082019050919050565b6000612e95602c83613646565b91507f4552433732313a20617070726f76656420717565727920666f72206e6f6e657860008301527f697374656e7420746f6b656e00000000000000000000000000000000000000006020830152604082019050919050565b6000612efb602083613646565b91507f4f776e61626c653a2063616c6c6572206973206e6f7420746865206f776e65726000830152602082019050919050565b6000612f3b602983613646565b91507f4552433732313a207472616e73666572206f6620746f6b656e2074686174206960008301527f73206e6f74206f776e00000000000000000000000000000000000000000000006020830152604082019050919050565b6000612fa1602f83613646565b91507f4552433732314d657461646174613a2055524920717565727920666f72206e6f60008301527f6e6578697374656e7420746f6b656e00000000000000000000000000000000006020830152604082019050919050565b6000613007602183613646565b91507f4552433732313a20617070726f76616c20746f2063757272656e74206f776e6560008301527f72000000000000000000000000000000000000000000000000000000000000006020830152604082019050919050565b600061306d603183613646565b91507f4552433732313a207472616e736665722063616c6c6572206973206e6f74206f60008301527f776e6572206e6f7220617070726f7665640000000000000000000000000000006020830152604082019050919050565b60006130d3602c83613646565b91507f455243373231456e756d657261626c653a20676c6f62616c20696e646578206f60008301527f7574206f6620626f756e647300000000000000000000000000000000000000006020830152604082019050919050565b6000613139601e83613646565b91507f416d6f756e742073686f756c6420626520626967676572207468616e203000006000830152602082019050919050565b6000613179600c83613646565b91507f436c61696d206661696c656400000000000000000000000000000000000000006000830152602082019050919050565b60006131b960078361363b565b91507f42652072696368000000000000000000000000000000000000000000000000006000830152600782019050919050565b6131f5816137e1565b82525050565b600061320782856129c1565b915061321382846129c1565b91508190509392505050565b600061322a826131ac565b9150819050919050565b60006020820190506132496000830184612931565b92915050565b60006080820190506132646000830187612931565b6132716020830186612931565b61327e60408301856131ec565b8181036060830152613290818461294f565b905095945050505050565b60006020820190506132b06000830184612940565b92915050565b600060208201905081810360008301526132d08184612988565b905092915050565b600060208201905081810360008301526132f1816129f2565b9050919050565b6000602082019050818103600083015261331181612a58565b9050919050565b6000602082019050818103600083015261333181612abe565b9050919050565b6000602082019050818103600083015261335181612b24565b9050919050565b6000602082019050818103600083015261337181612b8a565b9050919050565b6000602082019050818103600083015261339181612bca565b9050919050565b600060208201905081810360008301526133b181612c30565b9050919050565b600060208201905081810360008301526133d181612c70565b9050919050565b600060208201905081810360008301526133f181612cd6565b9050919050565b6000602082019050818103600083015261341181612d3c565b9050919050565b6000602082019050818103600083015261343181612da2565b9050919050565b6000602082019050818103600083015261345181612e08565b9050919050565b6000602082019050818103600083015261347181612e48565b9050919050565b6000602082019050818103600083015261349181612e88565b9050919050565b600060208201905081810360008301526134b181612eee565b9050919050565b600060208201905081810360008301526134d181612f2e565b9050919050565b600060208201905081810360008301526134f181612f94565b9050919050565b6000602082019050818103600083015261351181612ffa565b9050919050565b6000602082019050818103600083015261353181613060565b9050919050565b60006020820190508181036000830152613551816130c6565b9050919050565b600060208201905081810360008301526135718161312c565b9050919050565b600060208201905081810360008301526135918161316c565b9050919050565b60006020820190506135ad60008301846131ec565b92915050565b6000604051905081810181811067ffffffffffffffff821117156135da576135d9613966565b5b8060405250919050565b600067ffffffffffffffff8211156135ff576135fe613966565b5b601f19601f8301169050602081019050919050565b600081519050919050565b600081519050919050565b600082825260208201905092915050565b600081905092915050565b600082825260208201905092915050565b600081905092915050565b600061366d826137e1565b9150613678836137e1565b9250827fffffffffffffffffffffffffffffffffffffffffffffffffffffffffffffffff038211156136ad576136ac6138d9565b5b828201905092915050565b60006136c3826137e1565b91506136ce836137e1565b9250826136de576136dd613908565b5b828204905092915050565b60006136f4826137e1565b91506136ff836137e1565b9250817fffffffffffffffffffffffffffffffffffffffffffffffffffffffffffffffff0483118215151615613738576137376138d9565b5b828202905092915050565b600061374e826137e1565b9150613759836137e1565b92508282101561376c5761376b6138d9565b5b828203905092915050565b6000613782826137c1565b9050919050565b60008115159050919050565b60007fffffffff0000000000000000000000000000000000000000000000000000000082169050919050565b600073ffffffffffffffffffffffffffffffffffffffff82169050919050565b6000819050919050565b82818337600083830152505050565b60005b838110156138185780820151818401526020810190506137fd565b83811115613827576000848401525b50505050565b6000600282049050600182168061384557607f821691505b6020821081141561385957613858613937565b5b50919050565b600061386a826137e1565b91507fffffffffffffffffffffffffffffffffffffffffffffffffffffffffffffffff82141561389d5761389c6138d9565b5b600182019050919050565b60006138b3826137e1565b91506138be836137e1565b9250826138ce576138cd613908565b5b828206905092915050565b7f4e487b7100000000000000000000000000000000000000000000000000000000600052601160045260246000fd5b7f4e487b7100000000000000000000000000000000000000000000000000000000600052601260045260246000fd5b7f4e487b7100000000000000000000000000000000000000000000000000000000600052602260045260246000fd5b7f4e487b7100000000000000000000000000000000000000000000000000000000600052604160045260246000fd5b6000601f19601f8301169050919050565b6139af81613777565b81146139ba57600080fd5b50565b6139c681613789565b81146139d157600080fd5b50565b6139dd81613795565b81146139e857600080fd5b50565b6139f4816137e1565b81146139ff57600080fd5b5056fea26469706673582212200b90dc68bfdf52fa5f9394d18e12037b7003938850f1fe3fe0f0291c1d9afe0164736f6c63430008000033",
  "linkReferences": {},
  "deployedLinkReferences": {}
}