{
  "_format": "hh-sol-artifact-1",
  "contractName": "Playground",
  "sourceName": "contracts/Playground.sol",
  "abi": [
    {
      "inputs": [
        {
          "internalType": "string",
          "name": "_name",
          "type": "string"
        },
        {
          "internalType": "string",
          "name": "_symbol",
          "type": "string"
        },
        {
          "internalType": "address[]",
          "name": "shareholders",
          "type": "address[]"
        },
        {
          "internalType": "uint256[]",
          "name": "shareAmounts",
          "type": "uint256[]"
        }
      ],
      "stateMutability": "nonpayable",
      "type": "constructor"
    },
    {
      "anonymous": false,
      "inputs": [
        {
          "indexed": true,
          "internalType": "address",
          "name": "owner",
          "type": "address"
        },
        {
          "indexed": true,
          "internalType": "address",
          "name": "approved",
          "type": "address"
        },
        {
          "indexed": true,
          "internalType": "uint256",
          "name": "tokenId",
          "type": "uint256"
        }
      ],
      "name": "Approval",
      "type": "event"
    },
    {
      "anonymous": false,
      "inputs": [
        {
          "indexed": true,
          "internalType": "address",
          "name": "owner",
          "type": "address"
        },
        {
          "indexed": true,
          "internalType": "address",
          "name": "operator",
          "type": "address"
        },
        {
          "indexed": false,
          "internalType": "bool",
          "name": "approved",
          "type": "bool"
        }
      ],
      "name": "ApprovalForAll",
      "type": "event"
    },
    {
      "anonymous": false,
      "inputs": [
        {
          "indexed": false,
          "internalType": "address",
          "name": "shareHolder",
          "type": "address"
        },
        {
          "indexed": false,
          "internalType": "uint256",
          "name": "amountClaimed",
          "type": "uint256"
        }
      ],
      "name": "Claim",
      "type": "event"
    },
    {
      "anonymous": false,
      "inputs": [
        {
          "indexed": false,
          "internalType": "uint256",
          "name": "_amount",
          "type": "uint256"
        }
      ],
      "name": "Deposit",
      "type": "event"
    },
    {
      "anonymous": false,
      "inputs": [
        {
          "indexed": false,
          "internalType": "address",
          "name": "_to",
          "type": "address"
        },
        {
          "indexed": false,
          "internalType": "uint256",
          "name": "_share",
          "type": "uint256"
        }
      ],
      "name": "Mint",
      "type": "event"
    },
    {
      "anonymous": false,
      "inputs": [
        {
          "indexed": true,
          "internalType": "address",
          "name": "previousOwner",
          "type": "address"
        },
        {
          "indexed": true,
          "internalType": "address",
          "name": "newOwner",
          "type": "address"
        }
      ],
      "name": "OwnershipTransferred",
      "type": "event"
    },
    {
      "anonymous": false,
      "inputs": [
        {
          "indexed": true,
          "internalType": "address",
          "name": "from",
          "type": "address"
        },
        {
          "indexed": true,
          "internalType": "address",
          "name": "to",
          "type": "address"
        },
        {
          "indexed": true,
          "internalType": "uint256",
          "name": "tokenId",
          "type": "uint256"
        }
      ],
      "name": "Transfer",
      "type": "event"
    },
    {
      "inputs": [],
      "name": "_tokenIds",
      "outputs": [
        {
          "internalType": "uint256",
          "name": "_value",
          "type": "uint256"
        }
      ],
      "stateMutability": "view",
      "type": "function"
    },
    {
      "inputs": [
        {
          "internalType": "address",
          "name": "to",
          "type": "address"
        },
        {
          "internalType": "uint256",
          "name": "tokenId",
          "type": "uint256"
        }
      ],
      "name": "approve",
      "outputs": [],
      "stateMutability": "nonpayable",
      "type": "function"
    },
    {
      "inputs": [
        {
          "internalType": "address",
          "name": "owner",
          "type": "address"
        }
      ],
      "name": "balanceOf",
      "outputs": [
        {
          "internalType": "uint256",
          "name": "",
          "type": "uint256"
        }
      ],
      "stateMutability": "view",
      "type": "function"
    },
    {
      "inputs": [
        {
          "internalType": "uint256",
          "name": "_tokenId",
          "type": "uint256"
        }
      ],
      "name": "claim",
      "outputs": [],
      "stateMutability": "nonpayable",
      "type": "function"
    },
    {
      "inputs": [
        {
          "internalType": "uint256",
          "name": "_tokenId",
          "type": "uint256"
        }
      ],
      "name": "claimedAmount",
      "outputs": [
        {
          "internalType": "uint256",
          "name": "",
          "type": "uint256"
        }
      ],
      "stateMutability": "view",
      "type": "function"
    },
    {
      "inputs": [],
      "name": "deposit",
      "outputs": [],
      "stateMutability": "payable",
      "type": "function"
    },
    {
      "inputs": [
        {
          "internalType": "uint256",
          "name": "tokenId",
          "type": "uint256"
        }
      ],
      "name": "getApproved",
      "outputs": [
        {
          "internalType": "address",
          "name": "",
          "type": "address"
        }
      ],
      "stateMutability": "view",
      "type": "function"
    },
    {
      "inputs": [
        {
          "internalType": "address",
          "name": "owner",
          "type": "address"
        },
        {
          "internalType": "address",
          "name": "operator",
          "type": "address"
        }
      ],
      "name": "isApprovedForAll",
      "outputs": [
        {
          "internalType": "bool",
          "name": "",
          "type": "bool"
        }
      ],
      "stateMutability": "view",
      "type": "function"
    },
    {
      "inputs": [],
      "name": "name",
      "outputs": [
        {
          "internalType": "string",
          "name": "",
          "type": "string"
        }
      ],
      "stateMutability": "view",
      "type": "function"
    },
    {
      "inputs": [],
      "name": "owner",
      "outputs": [
        {
          "internalType": "address",
          "name": "",
          "type": "address"
        }
      ],
      "stateMutability": "view",
      "type": "function"
    },
    {
      "inputs": [
        {
          "internalType": "uint256",
          "name": "tokenId",
          "type": "uint256"
        }
      ],
      "name": "ownerOf",
      "outputs": [
        {
          "internalType": "address",
          "name": "",
          "type": "address"
        }
      ],
      "stateMutability": "view",
      "type": "function"
    },
    {
      "inputs": [],
      "name": "renounceOwnership",
      "outputs": [],
      "stateMutability": "nonpayable",
      "type": "function"
    },
    {
      "inputs": [
        {
          "internalType": "address",
          "name": "from",
          "type": "address"
        },
        {
          "internalType": "address",
          "name": "to",
          "type": "address"
        },
        {
          "internalType": "uint256",
          "name": "tokenId",
          "type": "uint256"
        }
      ],
      "name": "safeTransferFrom",
      "outputs": [],
      "stateMutability": "nonpayable",
      "type": "function"
    },
    {
      "inputs": [
        {
          "internalType": "address",
          "name": "from",
          "type": "address"
        },
        {
          "internalType": "address",
          "name": "to",
          "type": "address"
        },
        {
          "internalType": "uint256",
          "name": "tokenId",
          "type": "uint256"
        },
        {
          "internalType": "bytes",
          "name": "_data",
          "type": "bytes"
        }
      ],
      "name": "safeTransferFrom",
      "outputs": [],
      "stateMutability": "nonpayable",
      "type": "function"
    },
    {
      "inputs": [
        {
          "internalType": "address",
          "name": "operator",
          "type": "address"
        },
        {
          "internalType": "bool",
          "name": "approved",
          "type": "bool"
        }
      ],
      "name": "setApprovalForAll",
      "outputs": [],
      "stateMutability": "nonpayable",
      "type": "function"
    },
    {
      "inputs": [
        {
          "internalType": "uint256",
          "name": "",
          "type": "uint256"
        }
      ],
      "name": "shares",
      "outputs": [
        {
          "internalType": "uint256",
          "name": "",
          "type": "uint256"
        }
      ],
      "stateMutability": "view",
      "type": "function"
    },
    {
      "inputs": [
        {
          "internalType": "bytes4",
          "name": "interfaceId",
          "type": "bytes4"
        }
      ],
      "name": "supportsInterface",
      "outputs": [
        {
          "internalType": "bool",
          "name": "",
          "type": "bool"
        }
      ],
      "stateMutability": "view",
      "type": "function"
    },
    {
      "inputs": [],
      "name": "symbol",
      "outputs": [
        {
          "internalType": "string",
          "name": "",
          "type": "string"
        }
      ],
      "stateMutability": "view",
      "type": "function"
    },
    {
      "inputs": [
        {
          "internalType": "uint256",
          "name": "index",
          "type": "uint256"
        }
      ],
      "name": "tokenByIndex",
      "outputs": [
        {
          "internalType": "uint256",
          "name": "",
          "type": "uint256"
        }
      ],
      "stateMutability": "view",
      "type": "function"
    },
    {
      "inputs": [
        {
          "internalType": "address",
          "name": "owner",
          "type": "address"
        },
        {
          "internalType": "uint256",
          "name": "index",
          "type": "uint256"
        }
      ],
      "name": "tokenOfOwnerByIndex",
      "outputs": [
        {
          "internalType": "uint256",
          "name": "",
          "type": "uint256"
        }
      ],
      "stateMutability": "view",
      "type": "function"
    },
    {
      "inputs": [
        {
          "internalType": "uint256",
          "name": "tokenId",
          "type": "uint256"
        }
      ],
      "name": "tokenURI",
      "outputs": [
        {
          "internalType": "string",
          "name": "",
          "type": "string"
        }
      ],
      "stateMutability": "view",
      "type": "function"
    },
    {
      "inputs": [],
      "name": "totalDepositedAmount",
      "outputs": [
        {
          "internalType": "uint256",
          "name": "",
          "type": "uint256"
        }
      ],
      "stateMutability": "view",
      "type": "function"
    },
    {
      "inputs": [],
      "name": "totalSupply",
      "outputs": [
        {
          "internalType": "uint256",
          "name": "",
          "type": "uint256"
        }
      ],
      "stateMutability": "view",
      "type": "function"
    },
    {
      "inputs": [
        {
          "internalType": "address",
          "name": "from",
          "type": "address"
        },
        {
          "internalType": "address",
          "name": "to",
          "type": "address"
        },
        {
          "internalType": "uint256",
          "name": "tokenId",
          "type": "uint256"
        }
      ],
      "name": "transferFrom",
      "outputs": [],
      "stateMutability": "nonpayable",
      "type": "function"
    },
    {
      "inputs": [
        {
          "internalType": "address",
          "name": "newOwner",
          "type": "address"
        }
      ],
      "name": "transferOwnership",
      "outputs": [],
      "stateMutability": "nonpayable",
      "type": "function"
    }
  ],
  "bytecode": "0x60806040523480156200001157600080fd5b506040516200544f3803806200544f833981810160405281019062000037919062001254565b838381600090805190602001906200005192919062000f7d565b5080600190805190602001906200006a92919062000f7d565b5050506200008d62000081620002db60201b60201c565b620002e360201b60201c565b8051825114620000d4576040517f08c379a0000000000000000000000000000000000000000000000000000000008152600401620000cb9062001756565b60405180910390fd5b6000805b8251811015620001d05760008382815181106200011e577f4e487b7100000000000000000000000000000000000000000000000000000000600052603260045260246000fd5b60200260200101511162000169576040517f08c379a0000000000000000000000000000000000000000000000000000000008152600401620001609062001778565b60405180910390fd5b828181518110620001a3577f4e487b7100000000000000000000000000000000000000000000000000000000600052603260045260246000fd5b602002602001015182620001b891906200188c565b91508080620001c790620019fa565b915050620000d8565b506064811462000217576040517f08c379a00000000000000000000000000000000000000000000000000000000081526004016200020e90620016ce565b60405180910390fd5b60005b8351811015620002cf57620002b884828151811062000262577f4e487b7100000000000000000000000000000000000000000000000000000000600052603260045260246000fd5b6020026020010151848381518110620002a4577f4e487b7100000000000000000000000000000000000000000000000000000000600052603260045260246000fd5b6020026020010151620003a960201b60201c565b508080620002c690620019fa565b9150506200021a565b50505050505062001b34565b600033905090565b6000600a60009054906101000a900473ffffffffffffffffffffffffffffffffffffffff16905081600a60006101000a81548173ffffffffffffffffffffffffffffffffffffffff021916908373ffffffffffffffffffffffffffffffffffffffff1602179055508173ffffffffffffffffffffffffffffffffffffffff168173ffffffffffffffffffffffffffffffffffffffff167f8be0079c531659141344cd1fd0a4f28419497f9722a3daafe3b4186f6b6457e060405160405180910390a35050565b6000620003bb620002db60201b60201c565b73ffffffffffffffffffffffffffffffffffffffff16620003e1620004db60201b60201c565b73ffffffffffffffffffffffffffffffffffffffff16146200043a576040517f08c379a0000000000000000000000000000000000000000000000000000000008152600401620004319062001734565b60405180910390fd5b600062000453600b6200050560201b6200151d1760201c565b90506200046784826200051360201b60201c565b82600c60008381526020019081526020016000208190555062000496600b6200053960201b6200152b1760201c565b7f0f6798a560793a54c3bcfe86a93cde1e73087d944c0ea20544137d41213968858484604051620004c99291906200165d565b60405180910390a18091505092915050565b6000600a60009054906101000a900473ffffffffffffffffffffffffffffffffffffffff16905090565b600081600001549050919050565b620005358282604051806020016040528060008152506200054f60201b60201c565b5050565b6001816000016000828254019250508190555050565b620005618383620005bd60201b60201c565b620005766000848484620007a360201b60201c565b620005b8576040517f08c379a0000000000000000000000000000000000000000000000000000000008152600401620005af906200168a565b60405180910390fd5b505050565b600073ffffffffffffffffffffffffffffffffffffffff168273ffffffffffffffffffffffffffffffffffffffff16141562000630576040517f08c379a0000000000000000000000000000000000000000000000000000000008152600401620006279062001712565b60405180910390fd5b62000641816200095d60201b60201c565b1562000684576040517f08c379a00000000000000000000000000000000000000000000000000000000081526004016200067b90620016ac565b60405180910390fd5b6200069860008383620009c960201b60201c565b6001600360008473ffffffffffffffffffffffffffffffffffffffff1673ffffffffffffffffffffffffffffffffffffffff1681526020019081526020016000206000828254620006ea91906200188c565b92505081905550816002600083815260200190815260200160002060006101000a81548173ffffffffffffffffffffffffffffffffffffffff021916908373ffffffffffffffffffffffffffffffffffffffff160217905550808273ffffffffffffffffffffffffffffffffffffffff16600073ffffffffffffffffffffffffffffffffffffffff167fddf252ad1be2c89b69c2b068fc378daa952ba7f163c4a11628f55a4df523b3ef60405160405180910390a45050565b6000620007d18473ffffffffffffffffffffffffffffffffffffffff1662000b1060201b620015411760201c565b1562000950578373ffffffffffffffffffffffffffffffffffffffff1663150b7a0262000803620002db60201b60201c565b8786866040518563ffffffff1660e01b815260040162000827949392919062001609565b602060405180830381600087803b1580156200084257600080fd5b505af19250505080156200087657506040513d601f19601f8201168201806040525081019062000873919062001228565b60015b620008ff573d8060008114620008a9576040519150601f19603f3d011682016040523d82523d6000602084013e620008ae565b606091505b50600081511415620008f7576040517f08c379a0000000000000000000000000000000000000000000000000000000008152600401620008ee906200168a565b60405180910390fd5b805181602001fd5b63150b7a0260e01b7bffffffffffffffffffffffffffffffffffffffffffffffffffffffff1916817bffffffffffffffffffffffffffffffffffffffffffffffffffffffff19161491505062000955565b600190505b949350505050565b60008073ffffffffffffffffffffffffffffffffffffffff166002600084815260200190815260200160002060009054906101000a900473ffffffffffffffffffffffffffffffffffffffff1673ffffffffffffffffffffffffffffffffffffffff1614159050919050565b620009e183838362000b2360201b620015541760201c565b600073ffffffffffffffffffffffffffffffffffffffff168373ffffffffffffffffffffffffffffffffffffffff16141562000a2e5762000a288162000b2860201b60201c565b62000a76565b8173ffffffffffffffffffffffffffffffffffffffff168373ffffffffffffffffffffffffffffffffffffffff161462000a755762000a74838262000b7160201b60201c565b5b5b600073ffffffffffffffffffffffffffffffffffffffff168273ffffffffffffffffffffffffffffffffffffffff16141562000ac35762000abd8162000cee60201b60201c565b62000b0b565b8273ffffffffffffffffffffffffffffffffffffffff168273ffffffffffffffffffffffffffffffffffffffff161462000b0a5762000b09828262000e3660201b60201c565b5b5b505050565b600080823b905060008111915050919050565b505050565b6008805490506009600083815260200190815260200160002081905550600881908060018154018082558091505060019003906000526020600020016000909190919091505550565b6000600162000b8b8462000ec260201b620010181760201c565b62000b979190620018e9565b905060006007600084815260200190815260200160002054905081811462000c7d576000600660008673ffffffffffffffffffffffffffffffffffffffff1673ffffffffffffffffffffffffffffffffffffffff168152602001908152602001600020600084815260200190815260200160002054905080600660008773ffffffffffffffffffffffffffffffffffffffff1673ffffffffffffffffffffffffffffffffffffffff168152602001908152602001600020600084815260200190815260200160002081905550816007600083815260200190815260200160002081905550505b6007600084815260200190815260200160002060009055600660008573ffffffffffffffffffffffffffffffffffffffff1673ffffffffffffffffffffffffffffffffffffffff16815260200190815260200160002060008381526020019081526020016000206000905550505050565b6000600160088054905062000d049190620018e9565b905060006009600084815260200190815260200160002054905060006008838154811062000d5b577f4e487b7100000000000000000000000000000000000000000000000000000000600052603260045260246000fd5b90600052602060002001549050806008838154811062000da4577f4e487b7100000000000000000000000000000000000000000000000000000000600052603260045260246000fd5b90600052602060002001819055508160096000838152602001908152602001600020819055506009600085815260200190815260200160002060009055600880548062000e1a577f4e487b7100000000000000000000000000000000000000000000000000000000600052603160045260246000fd5b6001900381819060005260206000200160009055905550505050565b600062000e4e8362000ec260201b620010181760201c565b905081600660008573ffffffffffffffffffffffffffffffffffffffff1673ffffffffffffffffffffffffffffffffffffffff168152602001908152602001600020600083815260200190815260200160002081905550806007600084815260200190815260200160002081905550505050565b60008073ffffffffffffffffffffffffffffffffffffffff168273ffffffffffffffffffffffffffffffffffffffff16141562000f36576040517f08c379a000000000000000000000000000000000000000000000000000000000815260040162000f2d90620016f0565b60405180910390fd5b600360008373ffffffffffffffffffffffffffffffffffffffff1673ffffffffffffffffffffffffffffffffffffffff168152602001908152602001600020549050919050565b82805462000f8b90620019c4565b90600052602060002090601f01602090048101928262000faf576000855562000ffb565b82601f1062000fca57805160ff191683800117855562000ffb565b8280016001018555821562000ffb579182015b8281111562000ffa57825182559160200191906001019062000fdd565b5b5090506200100a91906200100e565b5090565b5b80821115620010295760008160009055506001016200100f565b5090565b6000620010446200103e84620017ce565b6200179a565b905080838252602082019050828560208602820111156200106457600080fd5b60005b858110156200109857816200107d88826200115c565b84526020840193506020830192505060018101905062001067565b5050509392505050565b6000620010b9620010b384620017fd565b6200179a565b90508083825260208201905082856020860282011115620010d957600080fd5b60005b858110156200110d5781620010f2888262001211565b845260208401935060208301925050600181019050620010dc565b5050509392505050565b60006200112e62001128846200182c565b6200179a565b9050828152602081018484840111156200114757600080fd5b620011548482856200198e565b509392505050565b6000815190506200116d8162001ae6565b92915050565b600082601f8301126200118557600080fd5b8151620011978482602086016200102d565b91505092915050565b600082601f830112620011b257600080fd5b8151620011c4848260208601620010a2565b91505092915050565b600081519050620011de8162001b00565b92915050565b600082601f830112620011f657600080fd5b81516200120884826020860162001117565b91505092915050565b600081519050620012228162001b1a565b92915050565b6000602082840312156200123b57600080fd5b60006200124b84828501620011cd565b91505092915050565b600080600080608085870312156200126b57600080fd5b600085015167ffffffffffffffff8111156200128657600080fd5b6200129487828801620011e4565b945050602085015167ffffffffffffffff811115620012b257600080fd5b620012c087828801620011e4565b935050604085015167ffffffffffffffff811115620012de57600080fd5b620012ec8782880162001173565b925050606085015167ffffffffffffffff8111156200130a57600080fd5b6200131887828801620011a0565b91505092959194509250565b6200132f8162001924565b82525050565b600062001342826200185f565b6200134e81856200186a565b9350620013608185602086016200198e565b6200136b8162001ad5565b840191505092915050565b6000620013856032836200187b565b91507f4552433732313a207472616e7366657220746f206e6f6e20455243373231526560008301527f63656976657220696d706c656d656e74657200000000000000000000000000006020830152604082019050919050565b6000620013ed601c836200187b565b91507f4552433732313a20746f6b656e20616c7265616479206d696e746564000000006000830152602082019050919050565b60006200142f601b836200187b565b91507f73756d206f66207368617265732073686f756c642062652031303000000000006000830152602082019050919050565b600062001471602a836200187b565b91507f4552433732313a2062616c616e636520717565727920666f7220746865207a6560008301527f726f2061646472657373000000000000000000000000000000000000000000006020830152604082019050919050565b6000620014d96020836200187b565b91507f4552433732313a206d696e7420746f20746865207a65726f20616464726573736000830152602082019050919050565b60006200151b6020836200187b565b91507f4f776e61626c653a2063616c6c6572206973206e6f7420746865206f776e65726000830152602082019050919050565b60006200155d603e836200187b565b91507f73697a65206f66207368617265686f6c64657220616e6420736861726520616d60008301527f6f756e742061727261792073686f756c64206265207468652073616d652e00006020830152604082019050919050565b6000620015c5601e836200187b565b91507f416d6f756e742073686f756c6420626520626967676572207468616e203000006000830152602082019050919050565b620016038162001984565b82525050565b600060808201905062001620600083018762001324565b6200162f602083018662001324565b6200163e6040830185620015f8565b818103606083015262001652818462001335565b905095945050505050565b600060408201905062001674600083018562001324565b620016836020830184620015f8565b9392505050565b60006020820190508181036000830152620016a58162001376565b9050919050565b60006020820190508181036000830152620016c781620013de565b9050919050565b60006020820190508181036000830152620016e98162001420565b9050919050565b600060208201905081810360008301526200170b8162001462565b9050919050565b600060208201905081810360008301526200172d81620014ca565b9050919050565b600060208201905081810360008301526200174f816200150c565b9050919050565b6000602082019050818103600083015262001771816200154e565b9050919050565b600060208201905081810360008301526200179381620015b6565b9050919050565b6000604051905081810181811067ffffffffffffffff82111715620017c457620017c362001aa6565b5b8060405250919050565b600067ffffffffffffffff821115620017ec57620017eb62001aa6565b5b602082029050602081019050919050565b600067ffffffffffffffff8211156200181b576200181a62001aa6565b5b602082029050602081019050919050565b600067ffffffffffffffff8211156200184a576200184962001aa6565b5b601f19601f8301169050602081019050919050565b600081519050919050565b600082825260208201905092915050565b600082825260208201905092915050565b6000620018998262001984565b9150620018a68362001984565b9250827fffffffffffffffffffffffffffffffffffffffffffffffffffffffffffffffff03821115620018de57620018dd62001a48565b5b828201905092915050565b6000620018f68262001984565b9150620019038362001984565b92508282101562001919576200191862001a48565b5b828203905092915050565b6000620019318262001964565b9050919050565b60007fffffffff0000000000000000000000000000000000000000000000000000000082169050919050565b600073ffffffffffffffffffffffffffffffffffffffff82169050919050565b6000819050919050565b60005b83811015620019ae57808201518184015260208101905062001991565b83811115620019be576000848401525b50505050565b60006002820490506001821680620019dd57607f821691505b60208210811415620019f457620019f362001a77565b5b50919050565b600062001a078262001984565b91507fffffffffffffffffffffffffffffffffffffffffffffffffffffffffffffffff82141562001a3d5762001a3c62001a48565b5b600182019050919050565b7f4e487b7100000000000000000000000000000000000000000000000000000000600052601160045260246000fd5b7f4e487b7100000000000000000000000000000000000000000000000000000000600052602260045260246000fd5b7f4e487b7100000000000000000000000000000000000000000000000000000000600052604160045260246000fd5b6000601f19601f8301169050919050565b62001af18162001924565b811462001afd57600080fd5b50565b62001b0b8162001938565b811462001b1757600080fd5b50565b62001b258162001984565b811462001b3157600080fd5b50565b61390b8062001b446000396000f3fe6080604052600436106101655760003560e01c806357a858fc116100d1578063a22cb4651161008a578063c87b56dd11610064578063c87b56dd14610561578063d0e30db01461059e578063e985e9c5146105a8578063f2fde38b146105e557610165565b8063a22cb465146104e4578063aa46a4001461050d578063b88d4fde1461053857610165565b806357a858fc146103c05780636352211e146103fd57806370a082311461043a578063715018a6146104775780638da5cb5b1461048e57806395d89b41146104b957610165565b806318160ddd1161012357806318160ddd146102a057806323b872dd146102cb5780632f745c59146102f4578063379607f51461033157806342842e0e1461035a5780634f6ccce71461038357610165565b80626cb8831461016a57806301ffc9a7146101a757806306fdde03146101e4578063081812fc1461020f578063095ea7b31461024c5780631729589414610275575b600080fd5b34801561017657600080fd5b50610191600480360381019061018c919061284c565b61060e565b60405161019e919061346b565b60405180910390f35b3480156101b357600080fd5b506101ce60048036038101906101c991906127fa565b610752565b6040516101db91906131ae565b60405180910390f35b3480156101f057600080fd5b506101f96107cc565b60405161020691906131c9565b60405180910390f35b34801561021b57600080fd5b506102366004803603810190610231919061284c565b61085e565b604051610243919061311e565b60405180910390f35b34801561025857600080fd5b50610273600480360381019061026e91906127be565b6108e3565b005b34801561028157600080fd5b5061028a6109fb565b604051610297919061346b565b60405180910390f35b3480156102ac57600080fd5b506102b5610ab6565b6040516102c2919061346b565b60405180910390f35b3480156102d757600080fd5b506102f260048036038101906102ed91906126b8565b610ac3565b005b34801561030057600080fd5b5061031b600480360381019061031691906127be565b610b23565b604051610328919061346b565b60405180910390f35b34801561033d57600080fd5b506103586004803603810190610353919061284c565b610bc8565b005b34801561036657600080fd5b50610381600480360381019061037c91906126b8565b610e97565b005b34801561038f57600080fd5b506103aa60048036038101906103a5919061284c565b610eb7565b6040516103b7919061346b565b60405180910390f35b3480156103cc57600080fd5b506103e760048036038101906103e2919061284c565b610f4e565b6040516103f4919061346b565b60405180910390f35b34801561040957600080fd5b50610424600480360381019061041f919061284c565b610f66565b604051610431919061311e565b60405180910390f35b34801561044657600080fd5b50610461600480360381019061045c9190612653565b611018565b60405161046e919061346b565b60405180910390f35b34801561048357600080fd5b5061048c6110d0565b005b34801561049a57600080fd5b506104a3611158565b6040516104b0919061311e565b60405180910390f35b3480156104c557600080fd5b506104ce611182565b6040516104db91906131c9565b60405180910390f35b3480156104f057600080fd5b5061050b60048036038101906105069190612782565b611214565b005b34801561051957600080fd5b5061052261122a565b60405161052f919061346b565b60405180910390f35b34801561054457600080fd5b5061055f600480360381019061055a9190612707565b611236565b005b34801561056d57600080fd5b506105886004803603810190610583919061284c565b611298565b60405161059591906131c9565b60405180910390f35b6105a661133f565b005b3480156105b457600080fd5b506105cf60048036038101906105ca919061267c565b611391565b6040516105dc91906131ae565b60405180910390f35b3480156105f157600080fd5b5061060c60048036038101906106079190612653565b611425565b005b6000806000905060005b610620610ab6565b81101561067f573373ffffffffffffffffffffffffffffffffffffffff1661064782610f66565b73ffffffffffffffffffffffffffffffffffffffff16141561066c576001915061067f565b808061067790613732565b915050610618565b50806106c0576040517f08c379a00000000000000000000000000000000000000000000000000000000081526004016106b79061324b565b60405180910390fd5b3373ffffffffffffffffffffffffffffffffffffffff166106e084610f66565b73ffffffffffffffffffffffffffffffffffffffff1614610736576040517f08c379a000000000000000000000000000000000000000000000000000000000815260040161072d9061326b565b60405180910390fd5b600d600084815260200190815260200160002054915050919050565b60007f780e9d63000000000000000000000000000000000000000000000000000000007bffffffffffffffffffffffffffffffffffffffffffffffffffffffff1916827bffffffffffffffffffffffffffffffffffffffffffffffffffffffff191614806107c557506107c482611559565b5b9050919050565b6060600080546107db90613700565b80601f016020809104026020016040519081016040528092919081815260200182805461080790613700565b80156108545780601f1061082957610100808354040283529160200191610854565b820191906000526020600020905b81548152906001019060200180831161083757829003601f168201915b5050505050905090565b60006108698261163b565b6108a8576040517f08c379a000000000000000000000000000000000000000000000000000000000815260040161089f9061336b565b60405180910390fd5b6004600083815260200190815260200160002060009054906101000a900473ffffffffffffffffffffffffffffffffffffffff169050919050565b60006108ee82610f66565b90508073ffffffffffffffffffffffffffffffffffffffff168373ffffffffffffffffffffffffffffffffffffffff16141561095f576040517f08c379a0000000000000000000000000000000000000000000000000000000008152600401610956906133eb565b60405180910390fd5b8073ffffffffffffffffffffffffffffffffffffffff1661097e6116a7565b73ffffffffffffffffffffffffffffffffffffffff1614806109ad57506109ac816109a76116a7565b611391565b5b6109ec576040517f08c379a00000000000000000000000000000000000000000000000000000000081526004016109e3906132eb565b60405180910390fd5b6109f683836116af565b505050565b6000806000905060005b610a0d610ab6565b811015610a6c573373ffffffffffffffffffffffffffffffffffffffff16610a3482610f66565b73ffffffffffffffffffffffffffffffffffffffff161415610a595760019150610a6c565b8080610a6490613732565b915050610a05565b5080610aad576040517f08c379a0000000000000000000000000000000000000000000000000000000008152600401610aa49061324b565b60405180910390fd5b600e5491505090565b6000600880549050905090565b610ad4610ace6116a7565b82611768565b610b13576040517f08c379a0000000000000000000000000000000000000000000000000000000008152600401610b0a9061340b565b60405180910390fd5b610b1e838383611846565b505050565b6000610b2e83611018565b8210610b6f576040517f08c379a0000000000000000000000000000000000000000000000000000000008152600401610b66906131eb565b60405180910390fd5b600660008473ffffffffffffffffffffffffffffffffffffffff1673ffffffffffffffffffffffffffffffffffffffff168152602001908152602001600020600083815260200190815260200160002054905092915050565b6000805b610bd4610ab6565b811015610c33573373ffffffffffffffffffffffffffffffffffffffff16610bfb82610f66565b73ffffffffffffffffffffffffffffffffffffffff161415610c205760019150610c33565b8080610c2b90613732565b915050610bcc565b5080610c74576040517f08c379a0000000000000000000000000000000000000000000000000000000008152600401610c6b9061324b565b60405180910390fd5b3373ffffffffffffffffffffffffffffffffffffffff16610c9483610f66565b73ffffffffffffffffffffffffffffffffffffffff1614610cea576040517f08c379a0000000000000000000000000000000000000000000000000000000008152600401610ce19061326b565b60405180910390fd5b60006064600c600085815260200190815260200160002054600e54610d0f91906135bc565b610d19919061358b565b90506000600d60008581526020019081526020016000205482610d3c9190613616565b905060008111610d81576040517f08c379a0000000000000000000000000000000000000000000000000000000008152600401610d789061334b565b60405180910390fd5b80600d60008681526020019081526020016000206000828254610da49190613535565b9250508190555060003373ffffffffffffffffffffffffffffffffffffffff1682604051610dd190613109565b60006040518083038185875af1925050503d8060008114610e0e576040519150601f19603f3d011682016040523d82523d6000602084013e610e13565b606091505b5050905080610e57576040517f08c379a0000000000000000000000000000000000000000000000000000000008152600401610e4e9061344b565b60405180910390fd5b7f47cee97cb7acd717b3c0aa1435d004cd5b3c8c57d70dbceb4e4458bbd60e39d43383604051610e88929190613185565b60405180910390a15050505050565b610eb283838360405180602001604052806000815250611236565b505050565b6000610ec1610ab6565b8210610f02576040517f08c379a0000000000000000000000000000000000000000000000000000000008152600401610ef99061342b565b60405180910390fd5b60088281548110610f3c577f4e487b7100000000000000000000000000000000000000000000000000000000600052603260045260246000fd5b90600052602060002001549050919050565b600c6020528060005260406000206000915090505481565b6000806002600084815260200190815260200160002060009054906101000a900473ffffffffffffffffffffffffffffffffffffffff169050600073ffffffffffffffffffffffffffffffffffffffff168173ffffffffffffffffffffffffffffffffffffffff16141561100f576040517f08c379a00000000000000000000000000000000000000000000000000000000081526004016110069061332b565b60405180910390fd5b80915050919050565b60008073ffffffffffffffffffffffffffffffffffffffff168273ffffffffffffffffffffffffffffffffffffffff161415611089576040517f08c379a00000000000000000000000000000000000000000000000000000000081526004016110809061330b565b60405180910390fd5b600360008373ffffffffffffffffffffffffffffffffffffffff1673ffffffffffffffffffffffffffffffffffffffff168152602001908152602001600020549050919050565b6110d86116a7565b73ffffffffffffffffffffffffffffffffffffffff166110f6611158565b73ffffffffffffffffffffffffffffffffffffffff161461114c576040517f08c379a00000000000000000000000000000000000000000000000000000000081526004016111439061338b565b60405180910390fd5b6111566000611aa2565b565b6000600a60009054906101000a900473ffffffffffffffffffffffffffffffffffffffff16905090565b60606001805461119190613700565b80601f01602080910402602001604051908101604052809291908181526020018280546111bd90613700565b801561120a5780601f106111df5761010080835404028352916020019161120a565b820191906000526020600020905b8154815290600101906020018083116111ed57829003601f168201915b5050505050905090565b61122661121f6116a7565b8383611b68565b5050565b600b8060000154905081565b6112476112416116a7565b83611768565b611286576040517f08c379a000000000000000000000000000000000000000000000000000000000815260040161127d9061340b565b60405180910390fd5b61129284848484611cd5565b50505050565b60606112a38261163b565b6112e2576040517f08c379a00000000000000000000000000000000000000000000000000000000081526004016112d9906133cb565b60405180910390fd5b60006112ec611d31565b9050600081511161130c5760405180602001604052806000815250611337565b8061131684611d48565b6040516020016113279291906130e5565b6040516020818303038152906040525b915050919050565b34600e60008282546113519190613535565b925050819055507f4d6ce1e535dbade1c23defba91e23b8f791ce5edc0cc320257a2b364e4e3842634604051611387919061346b565b60405180910390a1565b6000600560008473ffffffffffffffffffffffffffffffffffffffff1673ffffffffffffffffffffffffffffffffffffffff16815260200190815260200160002060008373ffffffffffffffffffffffffffffffffffffffff1673ffffffffffffffffffffffffffffffffffffffff16815260200190815260200160002060009054906101000a900460ff16905092915050565b61142d6116a7565b73ffffffffffffffffffffffffffffffffffffffff1661144b611158565b73ffffffffffffffffffffffffffffffffffffffff16146114a1576040517f08c379a00000000000000000000000000000000000000000000000000000000081526004016114989061338b565b60405180910390fd5b600073ffffffffffffffffffffffffffffffffffffffff168173ffffffffffffffffffffffffffffffffffffffff161415611511576040517f08c379a00000000000000000000000000000000000000000000000000000000081526004016115089061322b565b60405180910390fd5b61151a81611aa2565b50565b600081600001549050919050565b6001816000016000828254019250508190555050565b600080823b905060008111915050919050565b505050565b60007f80ac58cd000000000000000000000000000000000000000000000000000000007bffffffffffffffffffffffffffffffffffffffffffffffffffffffff1916827bffffffffffffffffffffffffffffffffffffffffffffffffffffffff1916148061162457507f5b5e139f000000000000000000000000000000000000000000000000000000007bffffffffffffffffffffffffffffffffffffffffffffffffffffffff1916827bffffffffffffffffffffffffffffffffffffffffffffffffffffffff1916145b80611634575061163382611ef5565b5b9050919050565b60008073ffffffffffffffffffffffffffffffffffffffff166002600084815260200190815260200160002060009054906101000a900473ffffffffffffffffffffffffffffffffffffffff1673ffffffffffffffffffffffffffffffffffffffff1614159050919050565b600033905090565b816004600083815260200190815260200160002060006101000a81548173ffffffffffffffffffffffffffffffffffffffff021916908373ffffffffffffffffffffffffffffffffffffffff160217905550808273ffffffffffffffffffffffffffffffffffffffff1661172283610f66565b73ffffffffffffffffffffffffffffffffffffffff167f8c5be1e5ebec7d5bd14f71427d1e84f3dd0314c0f7b2291e5b200ac8c7c3b92560405160405180910390a45050565b60006117738261163b565b6117b2576040517f08c379a00000000000000000000000000000000000000000000000000000000081526004016117a9906132cb565b60405180910390fd5b60006117bd83610f66565b90508073ffffffffffffffffffffffffffffffffffffffff168473ffffffffffffffffffffffffffffffffffffffff16148061182c57508373ffffffffffffffffffffffffffffffffffffffff166118148461085e565b73ffffffffffffffffffffffffffffffffffffffff16145b8061183d575061183c8185611391565b5b91505092915050565b8273ffffffffffffffffffffffffffffffffffffffff1661186682610f66565b73ffffffffffffffffffffffffffffffffffffffff16146118bc576040517f08c379a00000000000000000000000000000000000000000000000000000000081526004016118b3906133ab565b60405180910390fd5b600073ffffffffffffffffffffffffffffffffffffffff168273ffffffffffffffffffffffffffffffffffffffff16141561192c576040517f08c379a00000000000000000000000000000000000000000000000000000000081526004016119239061328b565b60405180910390fd5b611937838383611f5f565b6119426000826116af565b6001600360008573ffffffffffffffffffffffffffffffffffffffff1673ffffffffffffffffffffffffffffffffffffffff16815260200190815260200160002060008282546119929190613616565b925050819055506001600360008473ffffffffffffffffffffffffffffffffffffffff1673ffffffffffffffffffffffffffffffffffffffff16815260200190815260200160002060008282546119e99190613535565b92505081905550816002600083815260200190815260200160002060006101000a81548173ffffffffffffffffffffffffffffffffffffffff021916908373ffffffffffffffffffffffffffffffffffffffff160217905550808273ffffffffffffffffffffffffffffffffffffffff168473ffffffffffffffffffffffffffffffffffffffff167fddf252ad1be2c89b69c2b068fc378daa952ba7f163c4a11628f55a4df523b3ef60405160405180910390a4505050565b6000600a60009054906101000a900473ffffffffffffffffffffffffffffffffffffffff16905081600a60006101000a81548173ffffffffffffffffffffffffffffffffffffffff021916908373ffffffffffffffffffffffffffffffffffffffff1602179055508173ffffffffffffffffffffffffffffffffffffffff168173ffffffffffffffffffffffffffffffffffffffff167f8be0079c531659141344cd1fd0a4f28419497f9722a3daafe3b4186f6b6457e060405160405180910390a35050565b8173ffffffffffffffffffffffffffffffffffffffff168373ffffffffffffffffffffffffffffffffffffffff161415611bd7576040517f08c379a0000000000000000000000000000000000000000000000000000000008152600401611bce906132ab565b60405180910390fd5b80600560008573ffffffffffffffffffffffffffffffffffffffff1673ffffffffffffffffffffffffffffffffffffffff16815260200190815260200160002060008473ffffffffffffffffffffffffffffffffffffffff1673ffffffffffffffffffffffffffffffffffffffff16815260200190815260200160002060006101000a81548160ff0219169083151502179055508173ffffffffffffffffffffffffffffffffffffffff168373ffffffffffffffffffffffffffffffffffffffff167f17307eab39ab6107e8899845ad3d59bd9653f200f220920489ca2b5937696c3183604051611cc891906131ae565b60405180910390a3505050565b611ce0848484611846565b611cec84848484612073565b611d2b576040517f08c379a0000000000000000000000000000000000000000000000000000000008152600401611d229061320b565b60405180910390fd5b50505050565b606060405180602001604052806000815250905090565b60606000821415611d90576040518060400160405280600181526020017f30000000000000000000000000000000000000000000000000000000000000008152509050611ef0565b600082905060005b60008214611dc2578080611dab90613732565b915050600a82611dbb919061358b565b9150611d98565b60008167ffffffffffffffff811115611e04577f4e487b7100000000000000000000000000000000000000000000000000000000600052604160045260246000fd5b6040519080825280601f01601f191660200182016040528015611e365781602001600182028036833780820191505090505b5090505b60008514611ee957600182611e4f9190613616565b9150600a85611e5e919061377b565b6030611e6a9190613535565b60f81b818381518110611ea6577f4e487b7100000000000000000000000000000000000000000000000000000000600052603260045260246000fd5b60200101907effffffffffffffffffffffffffffffffffffffffffffffffffffffffffffff1916908160001a905350600a85611ee2919061358b565b9450611e3a565b8093505050505b919050565b60007f01ffc9a7000000000000000000000000000000000000000000000000000000007bffffffffffffffffffffffffffffffffffffffffffffffffffffffff1916827bffffffffffffffffffffffffffffffffffffffffffffffffffffffff1916149050919050565b611f6a838383611554565b600073ffffffffffffffffffffffffffffffffffffffff168373ffffffffffffffffffffffffffffffffffffffff161415611fad57611fa88161220a565b611fec565b8173ffffffffffffffffffffffffffffffffffffffff168373ffffffffffffffffffffffffffffffffffffffff1614611feb57611fea8382612253565b5b5b600073ffffffffffffffffffffffffffffffffffffffff168273ffffffffffffffffffffffffffffffffffffffff16141561202f5761202a816123c0565b61206e565b8273ffffffffffffffffffffffffffffffffffffffff168273ffffffffffffffffffffffffffffffffffffffff161461206d5761206c8282612503565b5b5b505050565b60006120948473ffffffffffffffffffffffffffffffffffffffff16611541565b156121fd578373ffffffffffffffffffffffffffffffffffffffff1663150b7a026120bd6116a7565b8786866040518563ffffffff1660e01b81526004016120df9493929190613139565b602060405180830381600087803b1580156120f957600080fd5b505af192505050801561212a57506040513d601f19601f820116820180604052508101906121279190612823565b60015b6121ad573d806000811461215a576040519150601f19603f3d011682016040523d82523d6000602084013e61215f565b606091505b506000815114156121a5576040517f08c379a000000000000000000000000000000000000000000000000000000000815260040161219c9061320b565b60405180910390fd5b805181602001fd5b63150b7a0260e01b7bffffffffffffffffffffffffffffffffffffffffffffffffffffffff1916817bffffffffffffffffffffffffffffffffffffffffffffffffffffffff191614915050612202565b600190505b949350505050565b6008805490506009600083815260200190815260200160002081905550600881908060018154018082558091505060019003906000526020600020016000909190919091505550565b6000600161226084611018565b61226a9190613616565b905060006007600084815260200190815260200160002054905081811461234f576000600660008673ffffffffffffffffffffffffffffffffffffffff1673ffffffffffffffffffffffffffffffffffffffff168152602001908152602001600020600084815260200190815260200160002054905080600660008773ffffffffffffffffffffffffffffffffffffffff1673ffffffffffffffffffffffffffffffffffffffff168152602001908152602001600020600084815260200190815260200160002081905550816007600083815260200190815260200160002081905550505b6007600084815260200190815260200160002060009055600660008573ffffffffffffffffffffffffffffffffffffffff1673ffffffffffffffffffffffffffffffffffffffff16815260200190815260200160002060008381526020019081526020016000206000905550505050565b600060016008805490506123d49190613616565b905060006009600084815260200190815260200160002054905060006008838154811061242a577f4e487b7100000000000000000000000000000000000000000000000000000000600052603260045260246000fd5b906000526020600020015490508060088381548110612472577f4e487b7100000000000000000000000000000000000000000000000000000000600052603260045260246000fd5b9060005260206000200181905550816009600083815260200190815260200160002081905550600960008581526020019081526020016000206000905560088054806124e7577f4e487b7100000000000000000000000000000000000000000000000000000000600052603160045260246000fd5b6001900381819060005260206000200160009055905550505050565b600061250e83611018565b905081600660008573ffffffffffffffffffffffffffffffffffffffff1673ffffffffffffffffffffffffffffffffffffffff168152602001908152602001600020600083815260200190815260200160002081905550806007600084815260200190815260200160002081905550505050565b6000612595612590846134b7565b613486565b9050828152602081018484840111156125ad57600080fd5b6125b88482856136be565b509392505050565b6000813590506125cf81613879565b92915050565b6000813590506125e481613890565b92915050565b6000813590506125f9816138a7565b92915050565b60008151905061260e816138a7565b92915050565b600082601f83011261262557600080fd5b8135612635848260208601612582565b91505092915050565b60008135905061264d816138be565b92915050565b60006020828403121561266557600080fd5b6000612673848285016125c0565b91505092915050565b6000806040838503121561268f57600080fd5b600061269d858286016125c0565b92505060206126ae858286016125c0565b9150509250929050565b6000806000606084860312156126cd57600080fd5b60006126db868287016125c0565b93505060206126ec868287016125c0565b92505060406126fd8682870161263e565b9150509250925092565b6000806000806080858703121561271d57600080fd5b600061272b878288016125c0565b945050602061273c878288016125c0565b935050604061274d8782880161263e565b925050606085013567ffffffffffffffff81111561276a57600080fd5b61277687828801612614565b91505092959194509250565b6000806040838503121561279557600080fd5b60006127a3858286016125c0565b92505060206127b4858286016125d5565b9150509250929050565b600080604083850312156127d157600080fd5b60006127df858286016125c0565b92505060206127f08582860161263e565b9150509250929050565b60006020828403121561280c57600080fd5b600061281a848285016125ea565b91505092915050565b60006020828403121561283557600080fd5b6000612843848285016125ff565b91505092915050565b60006020828403121561285e57600080fd5b600061286c8482850161263e565b91505092915050565b61287e8161364a565b82525050565b61288d8161365c565b82525050565b600061289e826134e7565b6128a881856134fd565b93506128b88185602086016136cd565b6128c181613868565b840191505092915050565b60006128d7826134f2565b6128e18185613519565b93506128f18185602086016136cd565b6128fa81613868565b840191505092915050565b6000612910826134f2565b61291a818561352a565b935061292a8185602086016136cd565b80840191505092915050565b6000612943602b83613519565b91507f455243373231456e756d657261626c653a206f776e657220696e646578206f7560008301527f74206f6620626f756e64730000000000000000000000000000000000000000006020830152604082019050919050565b60006129a9603283613519565b91507f4552433732313a207472616e7366657220746f206e6f6e20455243373231526560008301527f63656976657220696d706c656d656e74657200000000000000000000000000006020830152604082019050919050565b6000612a0f602683613519565b91507f4f776e61626c653a206e6577206f776e657220697320746865207a65726f206160008301527f64647265737300000000000000000000000000000000000000000000000000006020830152604082019050919050565b6000612a75603583613519565b91507f6f6e6c79207368617265686f6c646572732061726520616c6c6f77656420746f60008301527f20616363657373207468697320666561747572652e00000000000000000000006020830152604082019050919050565b6000612adb602483613519565b91507f596f7520617265206e6f7420746865206f776e6572206f66207468697320746f60008301527f6b656e2e000000000000000000000000000000000000000000000000000000006020830152604082019050919050565b6000612b41602483613519565b91507f4552433732313a207472616e7366657220746f20746865207a65726f2061646460008301527f72657373000000000000000000000000000000000000000000000000000000006020830152604082019050919050565b6000612ba7601983613519565b91507f4552433732313a20617070726f766520746f2063616c6c6572000000000000006000830152602082019050919050565b6000612be7602c83613519565b91507f4552433732313a206f70657261746f7220717565727920666f72206e6f6e657860008301527f697374656e7420746f6b656e00000000000000000000000000000000000000006020830152604082019050919050565b6000612c4d603883613519565b91507f4552433732313a20617070726f76652063616c6c6572206973206e6f74206f7760008301527f6e6572206e6f7220617070726f76656420666f7220616c6c00000000000000006020830152604082019050919050565b6000612cb3602a83613519565b91507f4552433732313a2062616c616e636520717565727920666f7220746865207a6560008301527f726f2061646472657373000000000000000000000000000000000000000000006020830152604082019050919050565b6000612d19602983613519565b91507f4552433732313a206f776e657220717565727920666f72206e6f6e657869737460008301527f656e7420746f6b656e00000000000000000000000000000000000000000000006020830152604082019050919050565b6000612d7f601683613519565b91507f596f7520646f6e74206465736572766520736869742e000000000000000000006000830152602082019050919050565b6000612dbf602c83613519565b91507f4552433732313a20617070726f76656420717565727920666f72206e6f6e657860008301527f697374656e7420746f6b656e00000000000000000000000000000000000000006020830152604082019050919050565b6000612e25602083613519565b91507f4f776e61626c653a2063616c6c6572206973206e6f7420746865206f776e65726000830152602082019050919050565b6000612e65602983613519565b91507f4552433732313a207472616e73666572206f6620746f6b656e2074686174206960008301527f73206e6f74206f776e00000000000000000000000000000000000000000000006020830152604082019050919050565b6000612ecb602f83613519565b91507f4552433732314d657461646174613a2055524920717565727920666f72206e6f60008301527f6e6578697374656e7420746f6b656e00000000000000000000000000000000006020830152604082019050919050565b6000612f31602183613519565b91507f4552433732313a20617070726f76616c20746f2063757272656e74206f776e6560008301527f72000000000000000000000000000000000000000000000000000000000000006020830152604082019050919050565b6000612f97603183613519565b91507f4552433732313a207472616e736665722063616c6c6572206973206e6f74206f60008301527f776e6572206e6f7220617070726f7665640000000000000000000000000000006020830152604082019050919050565b6000612ffd602c83613519565b91507f455243373231456e756d657261626c653a20676c6f62616c20696e646578206f60008301527f7574206f6620626f756e647300000000000000000000000000000000000000006020830152604082019050919050565b6000613063600c83613519565b91507f436c61696d206661696c656400000000000000000000000000000000000000006000830152602082019050919050565b60006130a360078361350e565b91507f42652072696368000000000000000000000000000000000000000000000000006000830152600782019050919050565b6130df816136b4565b82525050565b60006130f18285612905565b91506130fd8284612905565b91508190509392505050565b600061311482613096565b9150819050919050565b60006020820190506131336000830184612875565b92915050565b600060808201905061314e6000830187612875565b61315b6020830186612875565b61316860408301856130d6565b818103606083015261317a8184612893565b905095945050505050565b600060408201905061319a6000830185612875565b6131a760208301846130d6565b9392505050565b60006020820190506131c36000830184612884565b92915050565b600060208201905081810360008301526131e381846128cc565b905092915050565b6000602082019050818103600083015261320481612936565b9050919050565b600060208201905081810360008301526132248161299c565b9050919050565b6000602082019050818103600083015261324481612a02565b9050919050565b6000602082019050818103600083015261326481612a68565b9050919050565b6000602082019050818103600083015261328481612ace565b9050919050565b600060208201905081810360008301526132a481612b34565b9050919050565b600060208201905081810360008301526132c481612b9a565b9050919050565b600060208201905081810360008301526132e481612bda565b9050919050565b6000602082019050818103600083015261330481612c40565b9050919050565b6000602082019050818103600083015261332481612ca6565b9050919050565b6000602082019050818103600083015261334481612d0c565b9050919050565b6000602082019050818103600083015261336481612d72565b9050919050565b6000602082019050818103600083015261338481612db2565b9050919050565b600060208201905081810360008301526133a481612e18565b9050919050565b600060208201905081810360008301526133c481612e58565b9050919050565b600060208201905081810360008301526133e481612ebe565b9050919050565b6000602082019050818103600083015261340481612f24565b9050919050565b6000602082019050818103600083015261342481612f8a565b9050919050565b6000602082019050818103600083015261344481612ff0565b9050919050565b6000602082019050818103600083015261346481613056565b9050919050565b600060208201905061348060008301846130d6565b92915050565b6000604051905081810181811067ffffffffffffffff821117156134ad576134ac613839565b5b8060405250919050565b600067ffffffffffffffff8211156134d2576134d1613839565b5b601f19601f8301169050602081019050919050565b600081519050919050565b600081519050919050565b600082825260208201905092915050565b600081905092915050565b600082825260208201905092915050565b600081905092915050565b6000613540826136b4565b915061354b836136b4565b9250827fffffffffffffffffffffffffffffffffffffffffffffffffffffffffffffffff038211156135805761357f6137ac565b5b828201905092915050565b6000613596826136b4565b91506135a1836136b4565b9250826135b1576135b06137db565b5b828204905092915050565b60006135c7826136b4565b91506135d2836136b4565b9250817fffffffffffffffffffffffffffffffffffffffffffffffffffffffffffffffff048311821515161561360b5761360a6137ac565b5b828202905092915050565b6000613621826136b4565b915061362c836136b4565b92508282101561363f5761363e6137ac565b5b828203905092915050565b600061365582613694565b9050919050565b60008115159050919050565b60007fffffffff0000000000000000000000000000000000000000000000000000000082169050919050565b600073ffffffffffffffffffffffffffffffffffffffff82169050919050565b6000819050919050565b82818337600083830152505050565b60005b838110156136eb5780820151818401526020810190506136d0565b838111156136fa576000848401525b50505050565b6000600282049050600182168061371857607f821691505b6020821081141561372c5761372b61380a565b5b50919050565b600061373d826136b4565b91507fffffffffffffffffffffffffffffffffffffffffffffffffffffffffffffffff8214156137705761376f6137ac565b5b600182019050919050565b6000613786826136b4565b9150613791836136b4565b9250826137a1576137a06137db565b5b828206905092915050565b7f4e487b7100000000000000000000000000000000000000000000000000000000600052601160045260246000fd5b7f4e487b7100000000000000000000000000000000000000000000000000000000600052601260045260246000fd5b7f4e487b7100000000000000000000000000000000000000000000000000000000600052602260045260246000fd5b7f4e487b7100000000000000000000000000000000000000000000000000000000600052604160045260246000fd5b6000601f19601f8301169050919050565b6138828161364a565b811461388d57600080fd5b50565b6138998161365c565b81146138a457600080fd5b50565b6138b081613668565b81146138bb57600080fd5b50565b6138c7816136b4565b81146138d257600080fd5b5056fea2646970667358221220571efe814fb43f6eeea19fc870ea2bc251fcb17b77ebe3bec9aa2eeaaf06292464736f6c63430008000033",
  "linkReferences": {},
  "deployedLinkReferences": {}
}