{
  "_format": "hh-sol-artifact-1",
  "contractName": "Playground",
  "sourceName": "contracts/Playground.sol",
  "abi": [
    {
      "inputs": [
        {
          "internalType": "string",
          "name": "_name",
          "type": "string"
        },
        {
          "internalType": "string",
          "name": "_symbol",
          "type": "string"
        },
        {
          "internalType": "address[]",
          "name": "shareholders",
          "type": "address[]"
        },
        {
          "internalType": "uint256[]",
          "name": "shareAmounts",
          "type": "uint256[]"
        }
      ],
      "stateMutability": "nonpayable",
      "type": "constructor"
    },
    {
      "anonymous": false,
      "inputs": [
        {
          "indexed": true,
          "internalType": "address",
          "name": "owner",
          "type": "address"
        },
        {
          "indexed": true,
          "internalType": "address",
          "name": "approved",
          "type": "address"
        },
        {
          "indexed": true,
          "internalType": "uint256",
          "name": "tokenId",
          "type": "uint256"
        }
      ],
      "name": "Approval",
      "type": "event"
    },
    {
      "anonymous": false,
      "inputs": [
        {
          "indexed": true,
          "internalType": "address",
          "name": "owner",
          "type": "address"
        },
        {
          "indexed": true,
          "internalType": "address",
          "name": "operator",
          "type": "address"
        },
        {
          "indexed": false,
          "internalType": "bool",
          "name": "approved",
          "type": "bool"
        }
      ],
      "name": "ApprovalForAll",
      "type": "event"
    },
    {
      "anonymous": false,
      "inputs": [
        {
          "indexed": false,
          "internalType": "address",
          "name": "shareHolder",
          "type": "address"
        },
        {
          "indexed": false,
          "internalType": "uint256",
          "name": "amountClaimed",
          "type": "uint256"
        }
      ],
      "name": "Claim",
      "type": "event"
    },
    {
      "anonymous": false,
      "inputs": [
        {
          "indexed": false,
          "internalType": "uint256",
          "name": "_amount",
          "type": "uint256"
        }
      ],
      "name": "Deposit",
      "type": "event"
    },
    {
      "anonymous": false,
      "inputs": [
        {
          "indexed": false,
          "internalType": "address",
          "name": "_to",
          "type": "address"
        },
        {
          "indexed": false,
          "internalType": "uint256",
          "name": "_share",
          "type": "uint256"
        }
      ],
      "name": "Mint",
      "type": "event"
    },
    {
      "anonymous": false,
      "inputs": [
        {
          "indexed": true,
          "internalType": "address",
          "name": "previousOwner",
          "type": "address"
        },
        {
          "indexed": true,
          "internalType": "address",
          "name": "newOwner",
          "type": "address"
        }
      ],
      "name": "OwnershipTransferred",
      "type": "event"
    },
    {
      "anonymous": false,
      "inputs": [
        {
          "indexed": true,
          "internalType": "address",
          "name": "from",
          "type": "address"
        },
        {
          "indexed": true,
          "internalType": "address",
          "name": "to",
          "type": "address"
        },
        {
          "indexed": true,
          "internalType": "uint256",
          "name": "tokenId",
          "type": "uint256"
        }
      ],
      "name": "Transfer",
      "type": "event"
    },
    {
      "inputs": [],
      "name": "_tokenIds",
      "outputs": [
        {
          "internalType": "uint256",
          "name": "_value",
          "type": "uint256"
        }
      ],
      "stateMutability": "view",
      "type": "function"
    },
    {
      "inputs": [
        {
          "internalType": "address",
          "name": "to",
          "type": "address"
        },
        {
          "internalType": "uint256",
          "name": "tokenId",
          "type": "uint256"
        }
      ],
      "name": "approve",
      "outputs": [],
      "stateMutability": "nonpayable",
      "type": "function"
    },
    {
      "inputs": [
        {
          "internalType": "address",
          "name": "owner",
          "type": "address"
        }
      ],
      "name": "balanceOf",
      "outputs": [
        {
          "internalType": "uint256",
          "name": "",
          "type": "uint256"
        }
      ],
      "stateMutability": "view",
      "type": "function"
    },
    {
      "inputs": [
        {
          "internalType": "uint256",
          "name": "_tokenId",
          "type": "uint256"
        }
      ],
      "name": "claim",
      "outputs": [],
      "stateMutability": "nonpayable",
      "type": "function"
    },
    {
      "inputs": [
        {
          "internalType": "uint256",
          "name": "_tokenId",
          "type": "uint256"
        }
      ],
      "name": "claimedAmount",
      "outputs": [
        {
          "internalType": "uint256",
          "name": "",
          "type": "uint256"
        }
      ],
      "stateMutability": "view",
      "type": "function"
    },
    {
      "inputs": [],
      "name": "deposit",
      "outputs": [],
      "stateMutability": "payable",
      "type": "function"
    },
    {
      "inputs": [
        {
          "internalType": "uint256",
          "name": "tokenId",
          "type": "uint256"
        }
      ],
      "name": "getApproved",
      "outputs": [
        {
          "internalType": "address",
          "name": "",
          "type": "address"
        }
      ],
      "stateMutability": "view",
      "type": "function"
    },
    {
      "inputs": [
        {
          "internalType": "address",
          "name": "owner",
          "type": "address"
        },
        {
          "internalType": "address",
          "name": "operator",
          "type": "address"
        }
      ],
      "name": "isApprovedForAll",
      "outputs": [
        {
          "internalType": "bool",
          "name": "",
          "type": "bool"
        }
      ],
      "stateMutability": "view",
      "type": "function"
    },
    {
      "inputs": [],
      "name": "name",
      "outputs": [
        {
          "internalType": "string",
          "name": "",
          "type": "string"
        }
      ],
      "stateMutability": "view",
      "type": "function"
    },
    {
      "inputs": [],
      "name": "owner",
      "outputs": [
        {
          "internalType": "address",
          "name": "",
          "type": "address"
        }
      ],
      "stateMutability": "view",
      "type": "function"
    },
    {
      "inputs": [
        {
          "internalType": "uint256",
          "name": "tokenId",
          "type": "uint256"
        }
      ],
      "name": "ownerOf",
      "outputs": [
        {
          "internalType": "address",
          "name": "",
          "type": "address"
        }
      ],
      "stateMutability": "view",
      "type": "function"
    },
    {
      "inputs": [],
      "name": "renounceOwnership",
      "outputs": [],
      "stateMutability": "nonpayable",
      "type": "function"
    },
    {
      "inputs": [
        {
          "internalType": "address",
          "name": "from",
          "type": "address"
        },
        {
          "internalType": "address",
          "name": "to",
          "type": "address"
        },
        {
          "internalType": "uint256",
          "name": "tokenId",
          "type": "uint256"
        }
      ],
      "name": "safeTransferFrom",
      "outputs": [],
      "stateMutability": "nonpayable",
      "type": "function"
    },
    {
      "inputs": [
        {
          "internalType": "address",
          "name": "from",
          "type": "address"
        },
        {
          "internalType": "address",
          "name": "to",
          "type": "address"
        },
        {
          "internalType": "uint256",
          "name": "tokenId",
          "type": "uint256"
        },
        {
          "internalType": "bytes",
          "name": "_data",
          "type": "bytes"
        }
      ],
      "name": "safeTransferFrom",
      "outputs": [],
      "stateMutability": "nonpayable",
      "type": "function"
    },
    {
      "inputs": [
        {
          "internalType": "address",
          "name": "operator",
          "type": "address"
        },
        {
          "internalType": "bool",
          "name": "approved",
          "type": "bool"
        }
      ],
      "name": "setApprovalForAll",
      "outputs": [],
      "stateMutability": "nonpayable",
      "type": "function"
    },
    {
      "inputs": [
        {
          "internalType": "uint256",
          "name": "",
          "type": "uint256"
        }
      ],
      "name": "shares",
      "outputs": [
        {
          "internalType": "uint256",
          "name": "",
          "type": "uint256"
        }
      ],
      "stateMutability": "view",
      "type": "function"
    },
    {
      "inputs": [
        {
          "internalType": "address",
          "name": "_to",
          "type": "address"
        },
        {
          "internalType": "uint256",
          "name": "_tokenId",
          "type": "uint256"
        },
        {
          "internalType": "uint256",
          "name": "_newShare",
          "type": "uint256"
        }
      ],
      "name": "splitToken",
      "outputs": [
        {
          "internalType": "uint256",
          "name": "",
          "type": "uint256"
        }
      ],
      "stateMutability": "nonpayable",
      "type": "function"
    },
    {
      "inputs": [
        {
          "internalType": "bytes4",
          "name": "interfaceId",
          "type": "bytes4"
        }
      ],
      "name": "supportsInterface",
      "outputs": [
        {
          "internalType": "bool",
          "name": "",
          "type": "bool"
        }
      ],
      "stateMutability": "view",
      "type": "function"
    },
    {
      "inputs": [],
      "name": "symbol",
      "outputs": [
        {
          "internalType": "string",
          "name": "",
          "type": "string"
        }
      ],
      "stateMutability": "view",
      "type": "function"
    },
    {
      "inputs": [
        {
          "internalType": "uint256",
          "name": "index",
          "type": "uint256"
        }
      ],
      "name": "tokenByIndex",
      "outputs": [
        {
          "internalType": "uint256",
          "name": "",
          "type": "uint256"
        }
      ],
      "stateMutability": "view",
      "type": "function"
    },
    {
      "inputs": [
        {
          "internalType": "address",
          "name": "owner",
          "type": "address"
        },
        {
          "internalType": "uint256",
          "name": "index",
          "type": "uint256"
        }
      ],
      "name": "tokenOfOwnerByIndex",
      "outputs": [
        {
          "internalType": "uint256",
          "name": "",
          "type": "uint256"
        }
      ],
      "stateMutability": "view",
      "type": "function"
    },
    {
      "inputs": [
        {
          "internalType": "uint256",
          "name": "tokenId",
          "type": "uint256"
        }
      ],
      "name": "tokenURI",
      "outputs": [
        {
          "internalType": "string",
          "name": "",
          "type": "string"
        }
      ],
      "stateMutability": "view",
      "type": "function"
    },
    {
      "inputs": [],
      "name": "totalDepositedAmount",
      "outputs": [
        {
          "internalType": "uint256",
          "name": "",
          "type": "uint256"
        }
      ],
      "stateMutability": "view",
      "type": "function"
    },
    {
      "inputs": [],
      "name": "totalSupply",
      "outputs": [
        {
          "internalType": "uint256",
          "name": "",
          "type": "uint256"
        }
      ],
      "stateMutability": "view",
      "type": "function"
    },
    {
      "inputs": [
        {
          "internalType": "address",
          "name": "from",
          "type": "address"
        },
        {
          "internalType": "address",
          "name": "to",
          "type": "address"
        },
        {
          "internalType": "uint256",
          "name": "tokenId",
          "type": "uint256"
        }
      ],
      "name": "transferFrom",
      "outputs": [],
      "stateMutability": "nonpayable",
      "type": "function"
    },
    {
      "inputs": [
        {
          "internalType": "address",
          "name": "newOwner",
          "type": "address"
        }
      ],
      "name": "transferOwnership",
      "outputs": [],
      "stateMutability": "nonpayable",
      "type": "function"
    }
  ],
  "bytecode": "0x60806040523480156200001157600080fd5b506040516200588938038062005889833981810160405281019062000037919062001254565b838381600090805190602001906200005192919062000f7d565b5080600190805190602001906200006a92919062000f7d565b5050506200008d62000081620002db60201b60201c565b620002e360201b60201c565b8051825114620000d4576040517f08c379a0000000000000000000000000000000000000000000000000000000008152600401620000cb9062001756565b60405180910390fd5b6000805b8251811015620001d05760008382815181106200011e577f4e487b7100000000000000000000000000000000000000000000000000000000600052603260045260246000fd5b60200260200101511162000169576040517f08c379a0000000000000000000000000000000000000000000000000000000008152600401620001609062001778565b60405180910390fd5b828181518110620001a3577f4e487b7100000000000000000000000000000000000000000000000000000000600052603260045260246000fd5b602002602001015182620001b891906200188c565b91508080620001c790620019fa565b915050620000d8565b506064811462000217576040517f08c379a00000000000000000000000000000000000000000000000000000000081526004016200020e90620016ce565b60405180910390fd5b60005b8351811015620002cf57620002b884828151811062000262577f4e487b7100000000000000000000000000000000000000000000000000000000600052603260045260246000fd5b6020026020010151848381518110620002a4577f4e487b7100000000000000000000000000000000000000000000000000000000600052603260045260246000fd5b6020026020010151620003a960201b60201c565b508080620002c690620019fa565b9150506200021a565b50505050505062001b34565b600033905090565b6000600a60009054906101000a900473ffffffffffffffffffffffffffffffffffffffff16905081600a60006101000a81548173ffffffffffffffffffffffffffffffffffffffff021916908373ffffffffffffffffffffffffffffffffffffffff1602179055508173ffffffffffffffffffffffffffffffffffffffff168173ffffffffffffffffffffffffffffffffffffffff167f8be0079c531659141344cd1fd0a4f28419497f9722a3daafe3b4186f6b6457e060405160405180910390a35050565b6000620003bb620002db60201b60201c565b73ffffffffffffffffffffffffffffffffffffffff16620003e1620004db60201b60201c565b73ffffffffffffffffffffffffffffffffffffffff16146200043a576040517f08c379a0000000000000000000000000000000000000000000000000000000008152600401620004319062001734565b60405180910390fd5b600062000453600b6200050560201b620015431760201c565b90506200046784826200051360201b60201c565b82600c60008381526020019081526020016000208190555062000496600b6200053960201b620015511760201c565b7f0f6798a560793a54c3bcfe86a93cde1e73087d944c0ea20544137d41213968858484604051620004c99291906200165d565b60405180910390a18091505092915050565b6000600a60009054906101000a900473ffffffffffffffffffffffffffffffffffffffff16905090565b600081600001549050919050565b620005358282604051806020016040528060008152506200054f60201b60201c565b5050565b6001816000016000828254019250508190555050565b620005618383620005bd60201b60201c565b620005766000848484620007a360201b60201c565b620005b8576040517f08c379a0000000000000000000000000000000000000000000000000000000008152600401620005af906200168a565b60405180910390fd5b505050565b600073ffffffffffffffffffffffffffffffffffffffff168273ffffffffffffffffffffffffffffffffffffffff16141562000630576040517f08c379a0000000000000000000000000000000000000000000000000000000008152600401620006279062001712565b60405180910390fd5b62000641816200095d60201b60201c565b1562000684576040517f08c379a00000000000000000000000000000000000000000000000000000000081526004016200067b90620016ac565b60405180910390fd5b6200069860008383620009c960201b60201c565b6001600360008473ffffffffffffffffffffffffffffffffffffffff1673ffffffffffffffffffffffffffffffffffffffff1681526020019081526020016000206000828254620006ea91906200188c565b92505081905550816002600083815260200190815260200160002060006101000a81548173ffffffffffffffffffffffffffffffffffffffff021916908373ffffffffffffffffffffffffffffffffffffffff160217905550808273ffffffffffffffffffffffffffffffffffffffff16600073ffffffffffffffffffffffffffffffffffffffff167fddf252ad1be2c89b69c2b068fc378daa952ba7f163c4a11628f55a4df523b3ef60405160405180910390a45050565b6000620007d18473ffffffffffffffffffffffffffffffffffffffff1662000b1060201b620015671760201c565b1562000950578373ffffffffffffffffffffffffffffffffffffffff1663150b7a0262000803620002db60201b60201c565b8786866040518563ffffffff1660e01b815260040162000827949392919062001609565b602060405180830381600087803b1580156200084257600080fd5b505af19250505080156200087657506040513d601f19601f8201168201806040525081019062000873919062001228565b60015b620008ff573d8060008114620008a9576040519150601f19603f3d011682016040523d82523d6000602084013e620008ae565b606091505b50600081511415620008f7576040517f08c379a0000000000000000000000000000000000000000000000000000000008152600401620008ee906200168a565b60405180910390fd5b805181602001fd5b63150b7a0260e01b7bffffffffffffffffffffffffffffffffffffffffffffffffffffffff1916817bffffffffffffffffffffffffffffffffffffffffffffffffffffffff19161491505062000955565b600190505b949350505050565b60008073ffffffffffffffffffffffffffffffffffffffff166002600084815260200190815260200160002060009054906101000a900473ffffffffffffffffffffffffffffffffffffffff1673ffffffffffffffffffffffffffffffffffffffff1614159050919050565b620009e183838362000b2360201b6200157a1760201c565b600073ffffffffffffffffffffffffffffffffffffffff168373ffffffffffffffffffffffffffffffffffffffff16141562000a2e5762000a288162000b2860201b60201c565b62000a76565b8173ffffffffffffffffffffffffffffffffffffffff168373ffffffffffffffffffffffffffffffffffffffff161462000a755762000a74838262000b7160201b60201c565b5b5b600073ffffffffffffffffffffffffffffffffffffffff168273ffffffffffffffffffffffffffffffffffffffff16141562000ac35762000abd8162000cee60201b60201c565b62000b0b565b8273ffffffffffffffffffffffffffffffffffffffff168273ffffffffffffffffffffffffffffffffffffffff161462000b0a5762000b09828262000e3660201b60201c565b5b5b505050565b600080823b905060008111915050919050565b505050565b6008805490506009600083815260200190815260200160002081905550600881908060018154018082558091505060019003906000526020600020016000909190919091505550565b6000600162000b8b8462000ec260201b6200103e1760201c565b62000b979190620018e9565b905060006007600084815260200190815260200160002054905081811462000c7d576000600660008673ffffffffffffffffffffffffffffffffffffffff1673ffffffffffffffffffffffffffffffffffffffff168152602001908152602001600020600084815260200190815260200160002054905080600660008773ffffffffffffffffffffffffffffffffffffffff1673ffffffffffffffffffffffffffffffffffffffff168152602001908152602001600020600084815260200190815260200160002081905550816007600083815260200190815260200160002081905550505b6007600084815260200190815260200160002060009055600660008573ffffffffffffffffffffffffffffffffffffffff1673ffffffffffffffffffffffffffffffffffffffff16815260200190815260200160002060008381526020019081526020016000206000905550505050565b6000600160088054905062000d049190620018e9565b905060006009600084815260200190815260200160002054905060006008838154811062000d5b577f4e487b7100000000000000000000000000000000000000000000000000000000600052603260045260246000fd5b90600052602060002001549050806008838154811062000da4577f4e487b7100000000000000000000000000000000000000000000000000000000600052603260045260246000fd5b90600052602060002001819055508160096000838152602001908152602001600020819055506009600085815260200190815260200160002060009055600880548062000e1a577f4e487b7100000000000000000000000000000000000000000000000000000000600052603160045260246000fd5b6001900381819060005260206000200160009055905550505050565b600062000e4e8362000ec260201b6200103e1760201c565b905081600660008573ffffffffffffffffffffffffffffffffffffffff1673ffffffffffffffffffffffffffffffffffffffff168152602001908152602001600020600083815260200190815260200160002081905550806007600084815260200190815260200160002081905550505050565b60008073ffffffffffffffffffffffffffffffffffffffff168273ffffffffffffffffffffffffffffffffffffffff16141562000f36576040517f08c379a000000000000000000000000000000000000000000000000000000000815260040162000f2d90620016f0565b60405180910390fd5b600360008373ffffffffffffffffffffffffffffffffffffffff1673ffffffffffffffffffffffffffffffffffffffff168152602001908152602001600020549050919050565b82805462000f8b90620019c4565b90600052602060002090601f01602090048101928262000faf576000855562000ffb565b82601f1062000fca57805160ff191683800117855562000ffb565b8280016001018555821562000ffb579182015b8281111562000ffa57825182559160200191906001019062000fdd565b5b5090506200100a91906200100e565b5090565b5b80821115620010295760008160009055506001016200100f565b5090565b6000620010446200103e84620017ce565b6200179a565b905080838252602082019050828560208602820111156200106457600080fd5b60005b858110156200109857816200107d88826200115c565b84526020840193506020830192505060018101905062001067565b5050509392505050565b6000620010b9620010b384620017fd565b6200179a565b90508083825260208201905082856020860282011115620010d957600080fd5b60005b858110156200110d5781620010f2888262001211565b845260208401935060208301925050600181019050620010dc565b5050509392505050565b60006200112e62001128846200182c565b6200179a565b9050828152602081018484840111156200114757600080fd5b620011548482856200198e565b509392505050565b6000815190506200116d8162001ae6565b92915050565b600082601f8301126200118557600080fd5b8151620011978482602086016200102d565b91505092915050565b600082601f830112620011b257600080fd5b8151620011c4848260208601620010a2565b91505092915050565b600081519050620011de8162001b00565b92915050565b600082601f830112620011f657600080fd5b81516200120884826020860162001117565b91505092915050565b600081519050620012228162001b1a565b92915050565b6000602082840312156200123b57600080fd5b60006200124b84828501620011cd565b91505092915050565b600080600080608085870312156200126b57600080fd5b600085015167ffffffffffffffff8111156200128657600080fd5b6200129487828801620011e4565b945050602085015167ffffffffffffffff811115620012b257600080fd5b620012c087828801620011e4565b935050604085015167ffffffffffffffff811115620012de57600080fd5b620012ec8782880162001173565b925050606085015167ffffffffffffffff8111156200130a57600080fd5b6200131887828801620011a0565b91505092959194509250565b6200132f8162001924565b82525050565b600062001342826200185f565b6200134e81856200186a565b9350620013608185602086016200198e565b6200136b8162001ad5565b840191505092915050565b6000620013856032836200187b565b91507f4552433732313a207472616e7366657220746f206e6f6e20455243373231526560008301527f63656976657220696d706c656d656e74657200000000000000000000000000006020830152604082019050919050565b6000620013ed601c836200187b565b91507f4552433732313a20746f6b656e20616c7265616479206d696e746564000000006000830152602082019050919050565b60006200142f601b836200187b565b91507f73756d206f66207368617265732073686f756c642062652031303000000000006000830152602082019050919050565b600062001471602a836200187b565b91507f4552433732313a2062616c616e636520717565727920666f7220746865207a6560008301527f726f2061646472657373000000000000000000000000000000000000000000006020830152604082019050919050565b6000620014d96020836200187b565b91507f4552433732313a206d696e7420746f20746865207a65726f20616464726573736000830152602082019050919050565b60006200151b6020836200187b565b91507f4f776e61626c653a2063616c6c6572206973206e6f7420746865206f776e65726000830152602082019050919050565b60006200155d603e836200187b565b91507f73697a65206f66207368617265686f6c64657220616e6420736861726520616d60008301527f6f756e742061727261792073686f756c64206265207468652073616d652e00006020830152604082019050919050565b6000620015c5601e836200187b565b91507f416d6f756e742073686f756c6420626520626967676572207468616e203000006000830152602082019050919050565b620016038162001984565b82525050565b600060808201905062001620600083018762001324565b6200162f602083018662001324565b6200163e6040830185620015f8565b818103606083015262001652818462001335565b905095945050505050565b600060408201905062001674600083018562001324565b620016836020830184620015f8565b9392505050565b60006020820190508181036000830152620016a58162001376565b9050919050565b60006020820190508181036000830152620016c781620013de565b9050919050565b60006020820190508181036000830152620016e98162001420565b9050919050565b600060208201905081810360008301526200170b8162001462565b9050919050565b600060208201905081810360008301526200172d81620014ca565b9050919050565b600060208201905081810360008301526200174f816200150c565b9050919050565b6000602082019050818103600083015262001771816200154e565b9050919050565b600060208201905081810360008301526200179381620015b6565b9050919050565b6000604051905081810181811067ffffffffffffffff82111715620017c457620017c362001aa6565b5b8060405250919050565b600067ffffffffffffffff821115620017ec57620017eb62001aa6565b5b602082029050602081019050919050565b600067ffffffffffffffff8211156200181b576200181a62001aa6565b5b602082029050602081019050919050565b600067ffffffffffffffff8211156200184a576200184962001aa6565b5b601f19601f8301169050602081019050919050565b600081519050919050565b600082825260208201905092915050565b600082825260208201905092915050565b6000620018998262001984565b9150620018a68362001984565b9250827fffffffffffffffffffffffffffffffffffffffffffffffffffffffffffffffff03821115620018de57620018dd62001a48565b5b828201905092915050565b6000620018f68262001984565b9150620019038362001984565b92508282101562001919576200191862001a48565b5b828203905092915050565b6000620019318262001964565b9050919050565b60007fffffffff0000000000000000000000000000000000000000000000000000000082169050919050565b600073ffffffffffffffffffffffffffffffffffffffff82169050919050565b6000819050919050565b60005b83811015620019ae57808201518184015260208101905062001991565b83811115620019be576000848401525b50505050565b60006002820490506001821680620019dd57607f821691505b60208210811415620019f457620019f362001a77565b5b50919050565b600062001a078262001984565b91507fffffffffffffffffffffffffffffffffffffffffffffffffffffffffffffffff82141562001a3d5762001a3c62001a48565b5b600182019050919050565b7f4e487b7100000000000000000000000000000000000000000000000000000000600052601160045260246000fd5b7f4e487b7100000000000000000000000000000000000000000000000000000000600052602260045260246000fd5b7f4e487b7100000000000000000000000000000000000000000000000000000000600052604160045260246000fd5b6000601f19601f8301169050919050565b62001af18162001924565b811462001afd57600080fd5b50565b62001b0b8162001938565b811462001b1757600080fd5b50565b62001b258162001984565b811462001b3157600080fd5b50565b613d458062001b446000396000f3fe6080604052600436106101805760003560e01c806357a858fc116100d1578063a22cb4651161008a578063c87b56dd11610064578063c87b56dd146105b9578063d0e30db0146105f6578063e985e9c514610600578063f2fde38b1461063d57610180565b8063a22cb4651461053c578063aa46a40014610565578063b88d4fde1461059057610180565b806357a858fc146104185780636352211e1461045557806370a0823114610492578063715018a6146104cf5780638da5cb5b146104e657806395d89b411461051157610180565b806318160ddd1161013e5780632f745c59116101185780632f745c591461034c578063379607f51461038957806342842e0e146103b25780634f6ccce7146103db57610180565b806318160ddd146102bb57806323b872dd146102e6578063296365f31461030f57610180565b80626cb8831461018557806301ffc9a7146101c257806306fdde03146101ff578063081812fc1461022a578063095ea7b3146102675780631729589414610290575b600080fd5b34801561019157600080fd5b506101ac60048036038101906101a79190612b27565b610666565b6040516101b99190613866565b60405180910390f35b3480156101ce57600080fd5b506101e960048036038101906101e49190612ad5565b6106fb565b6040516101f69190613549565b60405180910390f35b34801561020b57600080fd5b50610214610775565b6040516102219190613564565b60405180910390f35b34801561023657600080fd5b50610251600480360381019061024c9190612b27565b610807565b60405161025e91906134b9565b60405180910390f35b34801561027357600080fd5b5061028e60048036038101906102899190612a4a565b61088c565b005b34801561029c57600080fd5b506102a56109a4565b6040516102b29190613866565b60405180910390f35b3480156102c757600080fd5b506102d06109ae565b6040516102dd9190613866565b60405180910390f35b3480156102f257600080fd5b5061030d60048036038101906103089190612944565b6109bb565b005b34801561031b57600080fd5b5061033660048036038101906103319190612a86565b610a1b565b6040516103439190613866565b60405180910390f35b34801561035857600080fd5b50610373600480360381019061036e9190612a4a565b610bf4565b6040516103809190613866565b60405180910390f35b34801561039557600080fd5b506103b060048036038101906103ab9190612b27565b610c99565b005b3480156103be57600080fd5b506103d960048036038101906103d49190612944565b610ebd565b005b3480156103e757600080fd5b5061040260048036038101906103fd9190612b27565b610edd565b60405161040f9190613866565b60405180910390f35b34801561042457600080fd5b5061043f600480360381019061043a9190612b27565b610f74565b60405161044c9190613866565b60405180910390f35b34801561046157600080fd5b5061047c60048036038101906104779190612b27565b610f8c565b60405161048991906134b9565b60405180910390f35b34801561049e57600080fd5b506104b960048036038101906104b491906128df565b61103e565b6040516104c69190613866565b60405180910390f35b3480156104db57600080fd5b506104e46110f6565b005b3480156104f257600080fd5b506104fb61117e565b60405161050891906134b9565b60405180910390f35b34801561051d57600080fd5b506105266111a8565b6040516105339190613564565b60405180910390f35b34801561054857600080fd5b50610563600480360381019061055e9190612a0e565b61123a565b005b34801561057157600080fd5b5061057a611250565b6040516105879190613866565b60405180910390f35b34801561059c57600080fd5b506105b760048036038101906105b29190612993565b61125c565b005b3480156105c557600080fd5b506105e060048036038101906105db9190612b27565b6112be565b6040516105ed9190613564565b60405180910390f35b6105fe611365565b005b34801561060c57600080fd5b5061062760048036038101906106229190612908565b6113b7565b6040516106349190613549565b60405180910390f35b34801561064957600080fd5b50610664600480360381019061065f91906128df565b61144b565b005b6000813373ffffffffffffffffffffffffffffffffffffffff1661068982610f8c565b73ffffffffffffffffffffffffffffffffffffffff16146106df576040517f08c379a00000000000000000000000000000000000000000000000000000000081526004016106d6906135e6565b60405180910390fd5b600d600084815260200190815260200160002054915050919050565b60007f780e9d63000000000000000000000000000000000000000000000000000000007bffffffffffffffffffffffffffffffffffffffffffffffffffffffff1916827bffffffffffffffffffffffffffffffffffffffffffffffffffffffff1916148061076e575061076d8261157f565b5b9050919050565b60606000805461078490613afb565b80601f01602080910402602001604051908101604052809291908181526020018280546107b090613afb565b80156107fd5780601f106107d2576101008083540402835291602001916107fd565b820191906000526020600020905b8154815290600101906020018083116107e057829003601f168201915b5050505050905090565b600061081282611661565b610851576040517f08c379a000000000000000000000000000000000000000000000000000000000815260040161084890613726565b60405180910390fd5b6004600083815260200190815260200160002060009054906101000a900473ffffffffffffffffffffffffffffffffffffffff169050919050565b600061089782610f8c565b90508073ffffffffffffffffffffffffffffffffffffffff168373ffffffffffffffffffffffffffffffffffffffff161415610908576040517f08c379a00000000000000000000000000000000000000000000000000000000081526004016108ff906137a6565b60405180910390fd5b8073ffffffffffffffffffffffffffffffffffffffff166109276116cd565b73ffffffffffffffffffffffffffffffffffffffff1614806109565750610955816109506116cd565b6113b7565b5b610995576040517f08c379a000000000000000000000000000000000000000000000000000000000815260040161098c90613686565b60405180910390fd5b61099f83836116d5565b505050565b6000600e54905090565b6000600880549050905090565b6109cc6109c66116cd565b8261178e565b610a0b576040517f08c379a0000000000000000000000000000000000000000000000000000000008152600401610a02906137c6565b60405180910390fd5b610a1683838361186c565b505050565b6000823373ffffffffffffffffffffffffffffffffffffffff16610a3e82610f8c565b73ffffffffffffffffffffffffffffffffffffffff1614610a94576040517f08c379a0000000000000000000000000000000000000000000000000000000008152600401610a8b906135e6565b60405180910390fd5b82600c60008681526020019081526020016000205411610ae9576040517f08c379a0000000000000000000000000000000000000000000000000000000008152600401610ae090613846565b60405180910390fd5b60008311610b2c576040517f08c379a0000000000000000000000000000000000000000000000000000000008152600401610b2390613806565b60405180910390fd5b6000610b38600b611543565b9050610b448682611ac8565b83600c600083815260200190815260200160002081905550610b66600b611551565b6000600c60008781526020019081526020016000205490506000610b938683611ae690919063ffffffff16565b905080600c6000898152602001908152602001600020819055507f0f6798a560793a54c3bcfe86a93cde1e73087d944c0ea20544137d41213968858887604051610bde929190613520565b60405180910390a1829450505050509392505050565b6000610bff8361103e565b8210610c40576040517f08c379a0000000000000000000000000000000000000000000000000000000008152600401610c3790613586565b60405180910390fd5b600660008473ffffffffffffffffffffffffffffffffffffffff1673ffffffffffffffffffffffffffffffffffffffff168152602001908152602001600020600083815260200190815260200160002054905092915050565b803373ffffffffffffffffffffffffffffffffffffffff16610cba82610f8c565b73ffffffffffffffffffffffffffffffffffffffff1614610d10576040517f08c379a0000000000000000000000000000000000000000000000000000000008152600401610d07906135e6565b60405180910390fd5b60006064600c600085815260200190815260200160002054600e54610d3591906139b7565b610d3f9190613986565b90506000600d60008581526020019081526020016000205482610d629190613a11565b905060008111610da7576040517f08c379a0000000000000000000000000000000000000000000000000000000008152600401610d9e906136e6565b60405180910390fd5b80600d60008681526020019081526020016000206000828254610dca9190613930565b9250508190555060003373ffffffffffffffffffffffffffffffffffffffff1682604051610df7906134a4565b60006040518083038185875af1925050503d8060008114610e34576040519150601f19603f3d011682016040523d82523d6000602084013e610e39565b606091505b5050905080610e7d576040517f08c379a0000000000000000000000000000000000000000000000000000000008152600401610e7490613826565b60405180910390fd5b7f47cee97cb7acd717b3c0aa1435d004cd5b3c8c57d70dbceb4e4458bbd60e39d43383604051610eae929190613520565b60405180910390a15050505050565b610ed88383836040518060200160405280600081525061125c565b505050565b6000610ee76109ae565b8210610f28576040517f08c379a0000000000000000000000000000000000000000000000000000000008152600401610f1f906137e6565b60405180910390fd5b60088281548110610f62577f4e487b7100000000000000000000000000000000000000000000000000000000600052603260045260246000fd5b90600052602060002001549050919050565b600c6020528060005260406000206000915090505481565b6000806002600084815260200190815260200160002060009054906101000a900473ffffffffffffffffffffffffffffffffffffffff169050600073ffffffffffffffffffffffffffffffffffffffff168173ffffffffffffffffffffffffffffffffffffffff161415611035576040517f08c379a000000000000000000000000000000000000000000000000000000000815260040161102c906136c6565b60405180910390fd5b80915050919050565b60008073ffffffffffffffffffffffffffffffffffffffff168273ffffffffffffffffffffffffffffffffffffffff1614156110af576040517f08c379a00000000000000000000000000000000000000000000000000000000081526004016110a6906136a6565b60405180910390fd5b600360008373ffffffffffffffffffffffffffffffffffffffff1673ffffffffffffffffffffffffffffffffffffffff168152602001908152602001600020549050919050565b6110fe6116cd565b73ffffffffffffffffffffffffffffffffffffffff1661111c61117e565b73ffffffffffffffffffffffffffffffffffffffff1614611172576040517f08c379a000000000000000000000000000000000000000000000000000000000815260040161116990613746565b60405180910390fd5b61117c6000611afc565b565b6000600a60009054906101000a900473ffffffffffffffffffffffffffffffffffffffff16905090565b6060600180546111b790613afb565b80601f01602080910402602001604051908101604052809291908181526020018280546111e390613afb565b80156112305780601f1061120557610100808354040283529160200191611230565b820191906000526020600020905b81548152906001019060200180831161121357829003601f168201915b5050505050905090565b61124c6112456116cd565b8383611bc2565b5050565b600b8060000154905081565b61126d6112676116cd565b8361178e565b6112ac576040517f08c379a00000000000000000000000000000000000000000000000000000000081526004016112a3906137c6565b60405180910390fd5b6112b884848484611d2f565b50505050565b60606112c982611661565b611308576040517f08c379a00000000000000000000000000000000000000000000000000000000081526004016112ff90613786565b60405180910390fd5b6000611312611d8b565b90506000815111611332576040518060200160405280600081525061135d565b8061133c84611dab565b60405160200161134d929190613480565b6040516020818303038152906040525b915050919050565b34600e60008282546113779190613930565b925050819055507f4d6ce1e535dbade1c23defba91e23b8f791ce5edc0cc320257a2b364e4e38426346040516113ad9190613866565b60405180910390a1565b6000600560008473ffffffffffffffffffffffffffffffffffffffff1673ffffffffffffffffffffffffffffffffffffffff16815260200190815260200160002060008373ffffffffffffffffffffffffffffffffffffffff1673ffffffffffffffffffffffffffffffffffffffff16815260200190815260200160002060009054906101000a900460ff16905092915050565b6114536116cd565b73ffffffffffffffffffffffffffffffffffffffff1661147161117e565b73ffffffffffffffffffffffffffffffffffffffff16146114c7576040517f08c379a00000000000000000000000000000000000000000000000000000000081526004016114be90613746565b60405180910390fd5b600073ffffffffffffffffffffffffffffffffffffffff168173ffffffffffffffffffffffffffffffffffffffff161415611537576040517f08c379a000000000000000000000000000000000000000000000000000000000815260040161152e906135c6565b60405180910390fd5b61154081611afc565b50565b600081600001549050919050565b6001816000016000828254019250508190555050565b600080823b905060008111915050919050565b505050565b60007f80ac58cd000000000000000000000000000000000000000000000000000000007bffffffffffffffffffffffffffffffffffffffffffffffffffffffff1916827bffffffffffffffffffffffffffffffffffffffffffffffffffffffff1916148061164a57507f5b5e139f000000000000000000000000000000000000000000000000000000007bffffffffffffffffffffffffffffffffffffffffffffffffffffffff1916827bffffffffffffffffffffffffffffffffffffffffffffffffffffffff1916145b8061165a575061165982611f58565b5b9050919050565b60008073ffffffffffffffffffffffffffffffffffffffff166002600084815260200190815260200160002060009054906101000a900473ffffffffffffffffffffffffffffffffffffffff1673ffffffffffffffffffffffffffffffffffffffff1614159050919050565b600033905090565b816004600083815260200190815260200160002060006101000a81548173ffffffffffffffffffffffffffffffffffffffff021916908373ffffffffffffffffffffffffffffffffffffffff160217905550808273ffffffffffffffffffffffffffffffffffffffff1661174883610f8c565b73ffffffffffffffffffffffffffffffffffffffff167f8c5be1e5ebec7d5bd14f71427d1e84f3dd0314c0f7b2291e5b200ac8c7c3b92560405160405180910390a45050565b600061179982611661565b6117d8576040517f08c379a00000000000000000000000000000000000000000000000000000000081526004016117cf90613666565b60405180910390fd5b60006117e383610f8c565b90508073ffffffffffffffffffffffffffffffffffffffff168473ffffffffffffffffffffffffffffffffffffffff16148061185257508373ffffffffffffffffffffffffffffffffffffffff1661183a84610807565b73ffffffffffffffffffffffffffffffffffffffff16145b80611863575061186281856113b7565b5b91505092915050565b8273ffffffffffffffffffffffffffffffffffffffff1661188c82610f8c565b73ffffffffffffffffffffffffffffffffffffffff16146118e2576040517f08c379a00000000000000000000000000000000000000000000000000000000081526004016118d990613766565b60405180910390fd5b600073ffffffffffffffffffffffffffffffffffffffff168273ffffffffffffffffffffffffffffffffffffffff161415611952576040517f08c379a000000000000000000000000000000000000000000000000000000000815260040161194990613626565b60405180910390fd5b61195d838383611fc2565b6119686000826116d5565b6001600360008573ffffffffffffffffffffffffffffffffffffffff1673ffffffffffffffffffffffffffffffffffffffff16815260200190815260200160002060008282546119b89190613a11565b925050819055506001600360008473ffffffffffffffffffffffffffffffffffffffff1673ffffffffffffffffffffffffffffffffffffffff1681526020019081526020016000206000828254611a0f9190613930565b92505081905550816002600083815260200190815260200160002060006101000a81548173ffffffffffffffffffffffffffffffffffffffff021916908373ffffffffffffffffffffffffffffffffffffffff160217905550808273ffffffffffffffffffffffffffffffffffffffff168473ffffffffffffffffffffffffffffffffffffffff167fddf252ad1be2c89b69c2b068fc378daa952ba7f163c4a11628f55a4df523b3ef60405160405180910390a4505050565b611ae28282604051806020016040528060008152506120d6565b5050565b60008183611af49190613a11565b905092915050565b6000600a60009054906101000a900473ffffffffffffffffffffffffffffffffffffffff16905081600a60006101000a81548173ffffffffffffffffffffffffffffffffffffffff021916908373ffffffffffffffffffffffffffffffffffffffff1602179055508173ffffffffffffffffffffffffffffffffffffffff168173ffffffffffffffffffffffffffffffffffffffff167f8be0079c531659141344cd1fd0a4f28419497f9722a3daafe3b4186f6b6457e060405160405180910390a35050565b8173ffffffffffffffffffffffffffffffffffffffff168373ffffffffffffffffffffffffffffffffffffffff161415611c31576040517f08c379a0000000000000000000000000000000000000000000000000000000008152600401611c2890613646565b60405180910390fd5b80600560008573ffffffffffffffffffffffffffffffffffffffff1673ffffffffffffffffffffffffffffffffffffffff16815260200190815260200160002060008473ffffffffffffffffffffffffffffffffffffffff1673ffffffffffffffffffffffffffffffffffffffff16815260200190815260200160002060006101000a81548160ff0219169083151502179055508173ffffffffffffffffffffffffffffffffffffffff168373ffffffffffffffffffffffffffffffffffffffff167f17307eab39ab6107e8899845ad3d59bd9653f200f220920489ca2b5937696c3183604051611d229190613549565b60405180910390a3505050565b611d3a84848461186c565b611d4684848484612131565b611d85576040517f08c379a0000000000000000000000000000000000000000000000000000000008152600401611d7c906135a6565b60405180910390fd5b50505050565b60606040518060600160405280603f8152602001613cd1603f9139905090565b60606000821415611df3576040518060400160405280600181526020017f30000000000000000000000000000000000000000000000000000000000000008152509050611f53565b600082905060005b60008214611e25578080611e0e90613b2d565b915050600a82611e1e9190613986565b9150611dfb565b60008167ffffffffffffffff811115611e67577f4e487b7100000000000000000000000000000000000000000000000000000000600052604160045260246000fd5b6040519080825280601f01601f191660200182016040528015611e995781602001600182028036833780820191505090505b5090505b60008514611f4c57600182611eb29190613a11565b9150600a85611ec19190613b76565b6030611ecd9190613930565b60f81b818381518110611f09577f4e487b7100000000000000000000000000000000000000000000000000000000600052603260045260246000fd5b60200101907effffffffffffffffffffffffffffffffffffffffffffffffffffffffffffff1916908160001a905350600a85611f459190613986565b9450611e9d565b8093505050505b919050565b60007f01ffc9a7000000000000000000000000000000000000000000000000000000007bffffffffffffffffffffffffffffffffffffffffffffffffffffffff1916827bffffffffffffffffffffffffffffffffffffffffffffffffffffffff1916149050919050565b611fcd83838361157a565b600073ffffffffffffffffffffffffffffffffffffffff168373ffffffffffffffffffffffffffffffffffffffff1614156120105761200b816122c8565b61204f565b8173ffffffffffffffffffffffffffffffffffffffff168373ffffffffffffffffffffffffffffffffffffffff161461204e5761204d8382612311565b5b5b600073ffffffffffffffffffffffffffffffffffffffff168273ffffffffffffffffffffffffffffffffffffffff1614156120925761208d8161247e565b6120d1565b8273ffffffffffffffffffffffffffffffffffffffff168273ffffffffffffffffffffffffffffffffffffffff16146120d0576120cf82826125c1565b5b5b505050565b6120e08383612640565b6120ed6000848484612131565b61212c576040517f08c379a0000000000000000000000000000000000000000000000000000000008152600401612123906135a6565b60405180910390fd5b505050565b60006121528473ffffffffffffffffffffffffffffffffffffffff16611567565b156122bb578373ffffffffffffffffffffffffffffffffffffffff1663150b7a0261217b6116cd565b8786866040518563ffffffff1660e01b815260040161219d94939291906134d4565b602060405180830381600087803b1580156121b757600080fd5b505af19250505080156121e857506040513d601f19601f820116820180604052508101906121e59190612afe565b60015b61226b573d8060008114612218576040519150601f19603f3d011682016040523d82523d6000602084013e61221d565b606091505b50600081511415612263576040517f08c379a000000000000000000000000000000000000000000000000000000000815260040161225a906135a6565b60405180910390fd5b805181602001fd5b63150b7a0260e01b7bffffffffffffffffffffffffffffffffffffffffffffffffffffffff1916817bffffffffffffffffffffffffffffffffffffffffffffffffffffffff1916149150506122c0565b600190505b949350505050565b6008805490506009600083815260200190815260200160002081905550600881908060018154018082558091505060019003906000526020600020016000909190919091505550565b6000600161231e8461103e565b6123289190613a11565b905060006007600084815260200190815260200160002054905081811461240d576000600660008673ffffffffffffffffffffffffffffffffffffffff1673ffffffffffffffffffffffffffffffffffffffff168152602001908152602001600020600084815260200190815260200160002054905080600660008773ffffffffffffffffffffffffffffffffffffffff1673ffffffffffffffffffffffffffffffffffffffff168152602001908152602001600020600084815260200190815260200160002081905550816007600083815260200190815260200160002081905550505b6007600084815260200190815260200160002060009055600660008573ffffffffffffffffffffffffffffffffffffffff1673ffffffffffffffffffffffffffffffffffffffff16815260200190815260200160002060008381526020019081526020016000206000905550505050565b600060016008805490506124929190613a11565b90506000600960008481526020019081526020016000205490506000600883815481106124e8577f4e487b7100000000000000000000000000000000000000000000000000000000600052603260045260246000fd5b906000526020600020015490508060088381548110612530577f4e487b7100000000000000000000000000000000000000000000000000000000600052603260045260246000fd5b9060005260206000200181905550816009600083815260200190815260200160002081905550600960008581526020019081526020016000206000905560088054806125a5577f4e487b7100000000000000000000000000000000000000000000000000000000600052603160045260246000fd5b6001900381819060005260206000200160009055905550505050565b60006125cc8361103e565b905081600660008573ffffffffffffffffffffffffffffffffffffffff1673ffffffffffffffffffffffffffffffffffffffff168152602001908152602001600020600083815260200190815260200160002081905550806007600084815260200190815260200160002081905550505050565b600073ffffffffffffffffffffffffffffffffffffffff168273ffffffffffffffffffffffffffffffffffffffff1614156126b0576040517f08c379a00000000000000000000000000000000000000000000000000000000081526004016126a790613706565b60405180910390fd5b6126b981611661565b156126f9576040517f08c379a00000000000000000000000000000000000000000000000000000000081526004016126f090613606565b60405180910390fd5b61270560008383611fc2565b6001600360008473ffffffffffffffffffffffffffffffffffffffff1673ffffffffffffffffffffffffffffffffffffffff16815260200190815260200160002060008282546127559190613930565b92505081905550816002600083815260200190815260200160002060006101000a81548173ffffffffffffffffffffffffffffffffffffffff021916908373ffffffffffffffffffffffffffffffffffffffff160217905550808273ffffffffffffffffffffffffffffffffffffffff16600073ffffffffffffffffffffffffffffffffffffffff167fddf252ad1be2c89b69c2b068fc378daa952ba7f163c4a11628f55a4df523b3ef60405160405180910390a45050565b600061282161281c846138b2565b613881565b90508281526020810184848401111561283957600080fd5b612844848285613ab9565b509392505050565b60008135905061285b81613c74565b92915050565b60008135905061287081613c8b565b92915050565b60008135905061288581613ca2565b92915050565b60008151905061289a81613ca2565b92915050565b600082601f8301126128b157600080fd5b81356128c184826020860161280e565b91505092915050565b6000813590506128d981613cb9565b92915050565b6000602082840312156128f157600080fd5b60006128ff8482850161284c565b91505092915050565b6000806040838503121561291b57600080fd5b60006129298582860161284c565b925050602061293a8582860161284c565b9150509250929050565b60008060006060848603121561295957600080fd5b60006129678682870161284c565b93505060206129788682870161284c565b9250506040612989868287016128ca565b9150509250925092565b600080600080608085870312156129a957600080fd5b60006129b78782880161284c565b94505060206129c88782880161284c565b93505060406129d9878288016128ca565b925050606085013567ffffffffffffffff8111156129f657600080fd5b612a02878288016128a0565b91505092959194509250565b60008060408385031215612a2157600080fd5b6000612a2f8582860161284c565b9250506020612a4085828601612861565b9150509250929050565b60008060408385031215612a5d57600080fd5b6000612a6b8582860161284c565b9250506020612a7c858286016128ca565b9150509250929050565b600080600060608486031215612a9b57600080fd5b6000612aa98682870161284c565b9350506020612aba868287016128ca565b9250506040612acb868287016128ca565b9150509250925092565b600060208284031215612ae757600080fd5b6000612af584828501612876565b91505092915050565b600060208284031215612b1057600080fd5b6000612b1e8482850161288b565b91505092915050565b600060208284031215612b3957600080fd5b6000612b47848285016128ca565b91505092915050565b612b5981613a45565b82525050565b612b6881613a57565b82525050565b6000612b79826138e2565b612b8381856138f8565b9350612b93818560208601613ac8565b612b9c81613c63565b840191505092915050565b6000612bb2826138ed565b612bbc8185613914565b9350612bcc818560208601613ac8565b612bd581613c63565b840191505092915050565b6000612beb826138ed565b612bf58185613925565b9350612c05818560208601613ac8565b80840191505092915050565b6000612c1e602b83613914565b91507f455243373231456e756d657261626c653a206f776e657220696e646578206f7560008301527f74206f6620626f756e64730000000000000000000000000000000000000000006020830152604082019050919050565b6000612c84603283613914565b91507f4552433732313a207472616e7366657220746f206e6f6e20455243373231526560008301527f63656976657220696d706c656d656e74657200000000000000000000000000006020830152604082019050919050565b6000612cea602683613914565b91507f4f776e61626c653a206e6577206f776e657220697320746865207a65726f206160008301527f64647265737300000000000000000000000000000000000000000000000000006020830152604082019050919050565b6000612d50602483613914565b91507f596f7520617265206e6f7420746865206f776e6572206f66207468697320746f60008301527f6b656e2e000000000000000000000000000000000000000000000000000000006020830152604082019050919050565b6000612db6601c83613914565b91507f4552433732313a20746f6b656e20616c7265616479206d696e746564000000006000830152602082019050919050565b6000612df6602483613914565b91507f4552433732313a207472616e7366657220746f20746865207a65726f2061646460008301527f72657373000000000000000000000000000000000000000000000000000000006020830152604082019050919050565b6000612e5c601983613914565b91507f4552433732313a20617070726f766520746f2063616c6c6572000000000000006000830152602082019050919050565b6000612e9c602c83613914565b91507f4552433732313a206f70657261746f7220717565727920666f72206e6f6e657860008301527f697374656e7420746f6b656e00000000000000000000000000000000000000006020830152604082019050919050565b6000612f02603883613914565b91507f4552433732313a20617070726f76652063616c6c6572206973206e6f74206f7760008301527f6e6572206e6f7220617070726f76656420666f7220616c6c00000000000000006020830152604082019050919050565b6000612f68602a83613914565b91507f4552433732313a2062616c616e636520717565727920666f7220746865207a6560008301527f726f2061646472657373000000000000000000000000000000000000000000006020830152604082019050919050565b6000612fce602983613914565b91507f4552433732313a206f776e657220717565727920666f72206e6f6e657869737460008301527f656e7420746f6b656e00000000000000000000000000000000000000000000006020830152604082019050919050565b6000613034601683613914565b91507f596f7520646f6e74206465736572766520736869742e000000000000000000006000830152602082019050919050565b6000613074602083613914565b91507f4552433732313a206d696e7420746f20746865207a65726f20616464726573736000830152602082019050919050565b60006130b4602c83613914565b91507f4552433732313a20617070726f76656420717565727920666f72206e6f6e657860008301527f697374656e7420746f6b656e00000000000000000000000000000000000000006020830152604082019050919050565b600061311a602083613914565b91507f4f776e61626c653a2063616c6c6572206973206e6f7420746865206f776e65726000830152602082019050919050565b600061315a602983613914565b91507f4552433732313a207472616e73666572206f6620746f6b656e2074686174206960008301527f73206e6f74206f776e00000000000000000000000000000000000000000000006020830152604082019050919050565b60006131c0602f83613914565b91507f4552433732314d657461646174613a2055524920717565727920666f72206e6f60008301527f6e6578697374656e7420746f6b656e00000000000000000000000000000000006020830152604082019050919050565b6000613226602183613914565b91507f4552433732313a20617070726f76616c20746f2063757272656e74206f776e6560008301527f72000000000000000000000000000000000000000000000000000000000000006020830152604082019050919050565b600061328c603183613914565b91507f4552433732313a207472616e736665722063616c6c6572206973206e6f74206f60008301527f776e6572206e6f7220617070726f7665640000000000000000000000000000006020830152604082019050919050565b60006132f2602c83613914565b91507f455243373231456e756d657261626c653a20676c6f62616c20696e646578206f60008301527f7574206f6620626f756e647300000000000000000000000000000000000000006020830152604082019050919050565b6000613358601d83613914565b91507f536861726573206d7573742062652067726561746572207468616e20300000006000830152602082019050919050565b6000613398600c83613914565b91507f436c61696d206661696c656400000000000000000000000000000000000000006000830152602082019050919050565b60006133d8603183613914565b91507f4e657720736861726573206d757374206265206c657373207468616e20796f7560008301527f7220617661696c61626c652073686172650000000000000000000000000000006020830152604082019050919050565b600061343e600783613909565b91507f42652072696368000000000000000000000000000000000000000000000000006000830152600782019050919050565b61347a81613aaf565b82525050565b600061348c8285612be0565b91506134988284612be0565b91508190509392505050565b60006134af82613431565b9150819050919050565b60006020820190506134ce6000830184612b50565b92915050565b60006080820190506134e96000830187612b50565b6134f66020830186612b50565b6135036040830185613471565b81810360608301526135158184612b6e565b905095945050505050565b60006040820190506135356000830185612b50565b6135426020830184613471565b9392505050565b600060208201905061355e6000830184612b5f565b92915050565b6000602082019050818103600083015261357e8184612ba7565b905092915050565b6000602082019050818103600083015261359f81612c11565b9050919050565b600060208201905081810360008301526135bf81612c77565b9050919050565b600060208201905081810360008301526135df81612cdd565b9050919050565b600060208201905081810360008301526135ff81612d43565b9050919050565b6000602082019050818103600083015261361f81612da9565b9050919050565b6000602082019050818103600083015261363f81612de9565b9050919050565b6000602082019050818103600083015261365f81612e4f565b9050919050565b6000602082019050818103600083015261367f81612e8f565b9050919050565b6000602082019050818103600083015261369f81612ef5565b9050919050565b600060208201905081810360008301526136bf81612f5b565b9050919050565b600060208201905081810360008301526136df81612fc1565b9050919050565b600060208201905081810360008301526136ff81613027565b9050919050565b6000602082019050818103600083015261371f81613067565b9050919050565b6000602082019050818103600083015261373f816130a7565b9050919050565b6000602082019050818103600083015261375f8161310d565b9050919050565b6000602082019050818103600083015261377f8161314d565b9050919050565b6000602082019050818103600083015261379f816131b3565b9050919050565b600060208201905081810360008301526137bf81613219565b9050919050565b600060208201905081810360008301526137df8161327f565b9050919050565b600060208201905081810360008301526137ff816132e5565b9050919050565b6000602082019050818103600083015261381f8161334b565b9050919050565b6000602082019050818103600083015261383f8161338b565b9050919050565b6000602082019050818103600083015261385f816133cb565b9050919050565b600060208201905061387b6000830184613471565b92915050565b6000604051905081810181811067ffffffffffffffff821117156138a8576138a7613c34565b5b8060405250919050565b600067ffffffffffffffff8211156138cd576138cc613c34565b5b601f19601f8301169050602081019050919050565b600081519050919050565b600081519050919050565b600082825260208201905092915050565b600081905092915050565b600082825260208201905092915050565b600081905092915050565b600061393b82613aaf565b915061394683613aaf565b9250827fffffffffffffffffffffffffffffffffffffffffffffffffffffffffffffffff0382111561397b5761397a613ba7565b5b828201905092915050565b600061399182613aaf565b915061399c83613aaf565b9250826139ac576139ab613bd6565b5b828204905092915050565b60006139c282613aaf565b91506139cd83613aaf565b9250817fffffffffffffffffffffffffffffffffffffffffffffffffffffffffffffffff0483118215151615613a0657613a05613ba7565b5b828202905092915050565b6000613a1c82613aaf565b9150613a2783613aaf565b925082821015613a3a57613a39613ba7565b5b828203905092915050565b6000613a5082613a8f565b9050919050565b60008115159050919050565b60007fffffffff0000000000000000000000000000000000000000000000000000000082169050919050565b600073ffffffffffffffffffffffffffffffffffffffff82169050919050565b6000819050919050565b82818337600083830152505050565b60005b83811015613ae6578082015181840152602081019050613acb565b83811115613af5576000848401525b50505050565b60006002820490506001821680613b1357607f821691505b60208210811415613b2757613b26613c05565b5b50919050565b6000613b3882613aaf565b91507fffffffffffffffffffffffffffffffffffffffffffffffffffffffffffffffff821415613b6b57613b6a613ba7565b5b600182019050919050565b6000613b8182613aaf565b9150613b8c83613aaf565b925082613b9c57613b9b613bd6565b5b828206905092915050565b7f4e487b7100000000000000000000000000000000000000000000000000000000600052601160045260246000fd5b7f4e487b7100000000000000000000000000000000000000000000000000000000600052601260045260246000fd5b7f4e487b7100000000000000000000000000000000000000000000000000000000600052602260045260246000fd5b7f4e487b7100000000000000000000000000000000000000000000000000000000600052604160045260246000fd5b6000601f19601f8301169050919050565b613c7d81613a45565b8114613c8857600080fd5b50565b613c9481613a57565b8114613c9f57600080fd5b50565b613cab81613a63565b8114613cb657600080fd5b50565b613cc281613aaf565b8114613ccd57600080fd5b5056fe68747470733a2f2f3631663565333863363266316533303031373363343236342e6d6f636b6170692e696f2f6170692f746f6b656e5572692f546f6b656e2fa26469706673582212208e3153d77054bc51b76a91fba9d2971f3f3d2e607493ef70ed7d81e9bb17d2fe64736f6c63430008000033",
  "linkReferences": {},
  "deployedLinkReferences": {}
}