{
  "_format": "hh-sol-artifact-1",
  "contractName": "Playground",
  "sourceName": "contracts/Plaground.sol",
  "abi": [
    {
      "inputs": [],
      "stateMutability": "nonpayable",
      "type": "constructor"
    },
    {
      "anonymous": false,
      "inputs": [
        {
          "indexed": true,
          "internalType": "address",
          "name": "owner",
          "type": "address"
        },
        {
          "indexed": true,
          "internalType": "address",
          "name": "approved",
          "type": "address"
        },
        {
          "indexed": true,
          "internalType": "uint256",
          "name": "tokenId",
          "type": "uint256"
        }
      ],
      "name": "Approval",
      "type": "event"
    },
    {
      "anonymous": false,
      "inputs": [
        {
          "indexed": true,
          "internalType": "address",
          "name": "owner",
          "type": "address"
        },
        {
          "indexed": true,
          "internalType": "address",
          "name": "operator",
          "type": "address"
        },
        {
          "indexed": false,
          "internalType": "bool",
          "name": "approved",
          "type": "bool"
        }
      ],
      "name": "ApprovalForAll",
      "type": "event"
    },
    {
      "anonymous": false,
      "inputs": [
        {
          "indexed": true,
          "internalType": "address",
          "name": "previousOwner",
          "type": "address"
        },
        {
          "indexed": true,
          "internalType": "address",
          "name": "newOwner",
          "type": "address"
        }
      ],
      "name": "OwnershipTransferred",
      "type": "event"
    },
    {
      "anonymous": false,
      "inputs": [
        {
          "indexed": true,
          "internalType": "address",
          "name": "from",
          "type": "address"
        },
        {
          "indexed": true,
          "internalType": "address",
          "name": "to",
          "type": "address"
        },
        {
          "indexed": true,
          "internalType": "uint256",
          "name": "tokenId",
          "type": "uint256"
        }
      ],
      "name": "Transfer",
      "type": "event"
    },
    {
      "inputs": [],
      "name": "_tokenIds",
      "outputs": [
        {
          "internalType": "uint256",
          "name": "_value",
          "type": "uint256"
        }
      ],
      "stateMutability": "view",
      "type": "function"
    },
    {
      "inputs": [
        {
          "internalType": "address",
          "name": "to",
          "type": "address"
        },
        {
          "internalType": "uint256",
          "name": "tokenId",
          "type": "uint256"
        }
      ],
      "name": "approve",
      "outputs": [],
      "stateMutability": "nonpayable",
      "type": "function"
    },
    {
      "inputs": [
        {
          "internalType": "address",
          "name": "owner",
          "type": "address"
        }
      ],
      "name": "balanceOf",
      "outputs": [
        {
          "internalType": "uint256",
          "name": "",
          "type": "uint256"
        }
      ],
      "stateMutability": "view",
      "type": "function"
    },
    {
      "inputs": [
        {
          "internalType": "uint256",
          "name": "_tokenId",
          "type": "uint256"
        }
      ],
      "name": "claim",
      "outputs": [],
      "stateMutability": "nonpayable",
      "type": "function"
    },
    {
      "inputs": [
        {
          "internalType": "uint256",
          "name": "_amount",
          "type": "uint256"
        }
      ],
      "name": "deposit",
      "outputs": [],
      "stateMutability": "payable",
      "type": "function"
    },
    {
      "inputs": [
        {
          "internalType": "uint256",
          "name": "tokenId",
          "type": "uint256"
        }
      ],
      "name": "getApproved",
      "outputs": [
        {
          "internalType": "address",
          "name": "",
          "type": "address"
        }
      ],
      "stateMutability": "view",
      "type": "function"
    },
    {
      "inputs": [
        {
          "internalType": "address",
          "name": "owner",
          "type": "address"
        },
        {
          "internalType": "address",
          "name": "operator",
          "type": "address"
        }
      ],
      "name": "isApprovedForAll",
      "outputs": [
        {
          "internalType": "bool",
          "name": "",
          "type": "bool"
        }
      ],
      "stateMutability": "view",
      "type": "function"
    },
    {
      "inputs": [
        {
          "internalType": "address",
          "name": "_to",
          "type": "address"
        },
        {
          "internalType": "uint256",
          "name": "_share",
          "type": "uint256"
        }
      ],
      "name": "mint",
      "outputs": [
        {
          "internalType": "uint256",
          "name": "",
          "type": "uint256"
        }
      ],
      "stateMutability": "nonpayable",
      "type": "function"
    },
    {
      "inputs": [],
      "name": "name",
      "outputs": [
        {
          "internalType": "string",
          "name": "",
          "type": "string"
        }
      ],
      "stateMutability": "view",
      "type": "function"
    },
    {
      "inputs": [],
      "name": "owner",
      "outputs": [
        {
          "internalType": "address",
          "name": "",
          "type": "address"
        }
      ],
      "stateMutability": "view",
      "type": "function"
    },
    {
      "inputs": [
        {
          "internalType": "uint256",
          "name": "tokenId",
          "type": "uint256"
        }
      ],
      "name": "ownerOf",
      "outputs": [
        {
          "internalType": "address",
          "name": "",
          "type": "address"
        }
      ],
      "stateMutability": "view",
      "type": "function"
    },
    {
      "inputs": [],
      "name": "renounceOwnership",
      "outputs": [],
      "stateMutability": "nonpayable",
      "type": "function"
    },
    {
      "inputs": [
        {
          "internalType": "address",
          "name": "from",
          "type": "address"
        },
        {
          "internalType": "address",
          "name": "to",
          "type": "address"
        },
        {
          "internalType": "uint256",
          "name": "tokenId",
          "type": "uint256"
        }
      ],
      "name": "safeTransferFrom",
      "outputs": [],
      "stateMutability": "nonpayable",
      "type": "function"
    },
    {
      "inputs": [
        {
          "internalType": "address",
          "name": "from",
          "type": "address"
        },
        {
          "internalType": "address",
          "name": "to",
          "type": "address"
        },
        {
          "internalType": "uint256",
          "name": "tokenId",
          "type": "uint256"
        },
        {
          "internalType": "bytes",
          "name": "_data",
          "type": "bytes"
        }
      ],
      "name": "safeTransferFrom",
      "outputs": [],
      "stateMutability": "nonpayable",
      "type": "function"
    },
    {
      "inputs": [
        {
          "internalType": "address",
          "name": "operator",
          "type": "address"
        },
        {
          "internalType": "bool",
          "name": "approved",
          "type": "bool"
        }
      ],
      "name": "setApprovalForAll",
      "outputs": [],
      "stateMutability": "nonpayable",
      "type": "function"
    },
    {
      "inputs": [
        {
          "internalType": "uint256",
          "name": "",
          "type": "uint256"
        }
      ],
      "name": "shares",
      "outputs": [
        {
          "internalType": "uint256",
          "name": "",
          "type": "uint256"
        }
      ],
      "stateMutability": "view",
      "type": "function"
    },
    {
      "inputs": [
        {
          "internalType": "bytes4",
          "name": "interfaceId",
          "type": "bytes4"
        }
      ],
      "name": "supportsInterface",
      "outputs": [
        {
          "internalType": "bool",
          "name": "",
          "type": "bool"
        }
      ],
      "stateMutability": "view",
      "type": "function"
    },
    {
      "inputs": [],
      "name": "symbol",
      "outputs": [
        {
          "internalType": "string",
          "name": "",
          "type": "string"
        }
      ],
      "stateMutability": "view",
      "type": "function"
    },
    {
      "inputs": [
        {
          "internalType": "uint256",
          "name": "index",
          "type": "uint256"
        }
      ],
      "name": "tokenByIndex",
      "outputs": [
        {
          "internalType": "uint256",
          "name": "",
          "type": "uint256"
        }
      ],
      "stateMutability": "view",
      "type": "function"
    },
    {
      "inputs": [
        {
          "internalType": "address",
          "name": "owner",
          "type": "address"
        },
        {
          "internalType": "uint256",
          "name": "index",
          "type": "uint256"
        }
      ],
      "name": "tokenOfOwnerByIndex",
      "outputs": [
        {
          "internalType": "uint256",
          "name": "",
          "type": "uint256"
        }
      ],
      "stateMutability": "view",
      "type": "function"
    },
    {
      "inputs": [
        {
          "internalType": "uint256",
          "name": "tokenId",
          "type": "uint256"
        }
      ],
      "name": "tokenURI",
      "outputs": [
        {
          "internalType": "string",
          "name": "",
          "type": "string"
        }
      ],
      "stateMutability": "view",
      "type": "function"
    },
    {
      "inputs": [],
      "name": "totalDepositedAmount",
      "outputs": [
        {
          "internalType": "uint256",
          "name": "",
          "type": "uint256"
        }
      ],
      "stateMutability": "view",
      "type": "function"
    },
    {
      "inputs": [],
      "name": "totalShares",
      "outputs": [
        {
          "internalType": "uint256",
          "name": "",
          "type": "uint256"
        }
      ],
      "stateMutability": "view",
      "type": "function"
    },
    {
      "inputs": [],
      "name": "totalSupply",
      "outputs": [
        {
          "internalType": "uint256",
          "name": "",
          "type": "uint256"
        }
      ],
      "stateMutability": "view",
      "type": "function"
    },
    {
      "inputs": [
        {
          "internalType": "address",
          "name": "from",
          "type": "address"
        },
        {
          "internalType": "address",
          "name": "to",
          "type": "address"
        },
        {
          "internalType": "uint256",
          "name": "tokenId",
          "type": "uint256"
        }
      ],
      "name": "transferFrom",
      "outputs": [],
      "stateMutability": "nonpayable",
      "type": "function"
    },
    {
      "inputs": [
        {
          "internalType": "address",
          "name": "newOwner",
          "type": "address"
        }
      ],
      "name": "transferOwnership",
      "outputs": [],
      "stateMutability": "nonpayable",
      "type": "function"
    }
  ],
  "bytecode": "0x60806040526064600e553480156200001657600080fd5b506040518060400160405280600a81526020017f506c617967726f756e64000000000000000000000000000000000000000000008152506040518060400160405280600281526020017f504700000000000000000000000000000000000000000000000000000000000081525081600090805190602001906200009b929190620001ab565b508060019080519060200190620000b4929190620001ab565b505050620000d7620000cb620000dd60201b60201c565b620000e560201b60201c565b620002c0565b600033905090565b6000600a60009054906101000a900473ffffffffffffffffffffffffffffffffffffffff16905081600a60006101000a81548173ffffffffffffffffffffffffffffffffffffffff021916908373ffffffffffffffffffffffffffffffffffffffff1602179055508173ffffffffffffffffffffffffffffffffffffffff168173ffffffffffffffffffffffffffffffffffffffff167f8be0079c531659141344cd1fd0a4f28419497f9722a3daafe3b4186f6b6457e060405160405180910390a35050565b828054620001b9906200025b565b90600052602060002090601f016020900481019282620001dd576000855562000229565b82601f10620001f857805160ff191683800117855562000229565b8280016001018555821562000229579182015b82811115620002285782518255916020019190600101906200020b565b5b5090506200023891906200023c565b5090565b5b80821115620002575760008160009055506001016200023d565b5090565b600060028204905060018216806200027457607f821691505b602082108114156200028b576200028a62000291565b5b50919050565b7f4e487b7100000000000000000000000000000000000000000000000000000000600052602260045260246000fd5b613a4b80620002d06000396000f3fe6080604052600436106101815760003560e01c806357a858fc116100d1578063a22cb4651161008a578063b88d4fde11610064578063b88d4fde1461059b578063c87b56dd146105c4578063e985e9c514610601578063f2fde38b1461063e57610181565b8063a22cb4651461052b578063aa46a40014610554578063b6b55f251461057f57610181565b806357a858fc146104075780636352211e1461044457806370a0823114610481578063715018a6146104be5780638da5cb5b146104d557806395d89b411461050057610181565b806323b872dd1161013e5780633a98ef39116101185780633a98ef391461033957806340c10f191461036457806342842e0e146103a15780634f6ccce7146103ca57610181565b806323b872dd146102aa5780632f745c59146102d3578063379607f51461031057610181565b806301ffc9a71461018657806306fdde03146101c3578063081812fc146101ee578063095ea7b31461022b578063172958941461025457806318160ddd1461027f575b600080fd5b34801561019257600080fd5b506101ad60048036038101906101a891906128c9565b610667565b6040516101ba91906132ae565b60405180910390f35b3480156101cf57600080fd5b506101d86106e1565b6040516101e591906132c9565b60405180910390f35b3480156101fa57600080fd5b506102156004803603810190610210919061291b565b610773565b6040516102229190613247565b60405180910390f35b34801561023757600080fd5b50610252600480360381019061024d919061288d565b6107f8565b005b34801561026057600080fd5b50610269610910565b60405161027691906135ab565b60405180910390f35b34801561028b57600080fd5b50610294610916565b6040516102a191906135ab565b60405180910390f35b3480156102b657600080fd5b506102d160048036038101906102cc9190612787565b610923565b005b3480156102df57600080fd5b506102fa60048036038101906102f5919061288d565b610983565b60405161030791906135ab565b60405180910390f35b34801561031c57600080fd5b506103376004803603810190610332919061291b565b610a28565b005b34801561034557600080fd5b5061034e610c12565b60405161035b91906135ab565b60405180910390f35b34801561037057600080fd5b5061038b6004803603810190610386919061288d565b610c18565b60405161039891906135ab565b60405180910390f35b3480156103ad57600080fd5b506103c860048036038101906103c39190612787565b610d0f565b005b3480156103d657600080fd5b506103f160048036038101906103ec919061291b565b610d2f565b6040516103fe91906135ab565b60405180910390f35b34801561041357600080fd5b5061042e6004803603810190610429919061291b565b610dc6565b60405161043b91906135ab565b60405180910390f35b34801561045057600080fd5b5061046b6004803603810190610466919061291b565b610dde565b6040516104789190613247565b60405180910390f35b34801561048d57600080fd5b506104a860048036038101906104a39190612722565b610e90565b6040516104b591906135ab565b60405180910390f35b3480156104ca57600080fd5b506104d3610f48565b005b3480156104e157600080fd5b506104ea610fd0565b6040516104f79190613247565b60405180910390f35b34801561050c57600080fd5b50610515610ffa565b60405161052291906132c9565b60405180910390f35b34801561053757600080fd5b50610552600480360381019061054d9190612851565b61108c565b005b34801561056057600080fd5b506105696110a2565b60405161057691906135ab565b60405180910390f35b6105996004803603810190610594919061291b565b6110ae565b005b3480156105a757600080fd5b506105c260048036038101906105bd91906127d6565b611110565b005b3480156105d057600080fd5b506105eb60048036038101906105e6919061291b565b611172565b6040516105f891906132c9565b60405180910390f35b34801561060d57600080fd5b506106286004803603810190610623919061274b565b611219565b60405161063591906132ae565b60405180910390f35b34801561064a57600080fd5b5061066560048036038101906106609190612722565b6112ad565b005b60007f780e9d63000000000000000000000000000000000000000000000000000000007bffffffffffffffffffffffffffffffffffffffffffffffffffffffff1916827bffffffffffffffffffffffffffffffffffffffffffffffffffffffff191614806106da57506106d9826113a5565b5b9050919050565b6060600080546106f090613840565b80601f016020809104026020016040519081016040528092919081815260200182805461071c90613840565b80156107695780601f1061073e57610100808354040283529160200191610769565b820191906000526020600020905b81548152906001019060200180831161074c57829003601f168201915b5050505050905090565b600061077e82611487565b6107bd576040517f08c379a00000000000000000000000000000000000000000000000000000000081526004016107b49061348b565b60405180910390fd5b6004600083815260200190815260200160002060009054906101000a900473ffffffffffffffffffffffffffffffffffffffff169050919050565b600061080382610dde565b90508073ffffffffffffffffffffffffffffffffffffffff168373ffffffffffffffffffffffffffffffffffffffff161415610874576040517f08c379a000000000000000000000000000000000000000000000000000000000815260040161086b9061350b565b60405180910390fd5b8073ffffffffffffffffffffffffffffffffffffffff166108936114f3565b73ffffffffffffffffffffffffffffffffffffffff1614806108c257506108c1816108bc6114f3565b611219565b5b610901576040517f08c379a00000000000000000000000000000000000000000000000000000000081526004016108f8906133eb565b60405180910390fd5b61090b83836114fb565b505050565b60105481565b6000600880549050905090565b61093461092e6114f3565b826115b4565b610973576040517f08c379a000000000000000000000000000000000000000000000000000000000815260040161096a9061352b565b60405180910390fd5b61097e838383611692565b505050565b600061098e83610e90565b82106109cf576040517f08c379a00000000000000000000000000000000000000000000000000000000081526004016109c6906132eb565b60405180910390fd5b600660008473ffffffffffffffffffffffffffffffffffffffff1673ffffffffffffffffffffffffffffffffffffffff168152602001908152602001600020600083815260200190815260200160002054905092915050565b3373ffffffffffffffffffffffffffffffffffffffff16610a4882610dde565b73ffffffffffffffffffffffffffffffffffffffff1614610a9e576040517f08c379a0000000000000000000000000000000000000000000000000000000008152600401610a959061334b565b60405180910390fd5b6000600e54600c600084815260200190815260200160002054601054610ac491906136fc565b610ace91906136cb565b90506000600d60008481526020019081526020016000205482610af19190613756565b905060008111610b36576040517f08c379a0000000000000000000000000000000000000000000000000000000008152600401610b2d9061344b565b60405180910390fd5b60003373ffffffffffffffffffffffffffffffffffffffff1682604051610b5c90613232565b60006040518083038185875af1925050503d8060008114610b99576040519150601f19603f3d011682016040523d82523d6000602084013e610b9e565b606091505b5050905080610be2576040517f08c379a0000000000000000000000000000000000000000000000000000000008152600401610bd99061358b565b60405180910390fd5b81600d60008681526020019081526020016000206000828254610c059190613675565b9250508190555050505050565b600e5481565b6000610c226114f3565b73ffffffffffffffffffffffffffffffffffffffff16610c40610fd0565b73ffffffffffffffffffffffffffffffffffffffff1614610c96576040517f08c379a0000000000000000000000000000000000000000000000000000000008152600401610c8d906134ab565b60405180910390fd5b600e5482600f54610ca79190613675565b1115610cb257600080fd5b6000610cbe600b6118ee565b9050610cca84826118fc565b82600c600083815260200190815260200160002081905550610cec600b61191a565b82600f6000828254610cfe9190613675565b925050819055508091505092915050565b610d2a83838360405180602001604052806000815250611110565b505050565b6000610d39610916565b8210610d7a576040517f08c379a0000000000000000000000000000000000000000000000000000000008152600401610d719061354b565b60405180910390fd5b60088281548110610db4577f4e487b7100000000000000000000000000000000000000000000000000000000600052603260045260246000fd5b90600052602060002001549050919050565b600c6020528060005260406000206000915090505481565b6000806002600084815260200190815260200160002060009054906101000a900473ffffffffffffffffffffffffffffffffffffffff169050600073ffffffffffffffffffffffffffffffffffffffff168173ffffffffffffffffffffffffffffffffffffffff161415610e87576040517f08c379a0000000000000000000000000000000000000000000000000000000008152600401610e7e9061342b565b60405180910390fd5b80915050919050565b60008073ffffffffffffffffffffffffffffffffffffffff168273ffffffffffffffffffffffffffffffffffffffff161415610f01576040517f08c379a0000000000000000000000000000000000000000000000000000000008152600401610ef89061340b565b60405180910390fd5b600360008373ffffffffffffffffffffffffffffffffffffffff1673ffffffffffffffffffffffffffffffffffffffff168152602001908152602001600020549050919050565b610f506114f3565b73ffffffffffffffffffffffffffffffffffffffff16610f6e610fd0565b73ffffffffffffffffffffffffffffffffffffffff1614610fc4576040517f08c379a0000000000000000000000000000000000000000000000000000000008152600401610fbb906134ab565b60405180910390fd5b610fce6000611930565b565b6000600a60009054906101000a900473ffffffffffffffffffffffffffffffffffffffff16905090565b60606001805461100990613840565b80601f016020809104026020016040519081016040528092919081815260200182805461103590613840565b80156110825780601f1061105757610100808354040283529160200191611082565b820191906000526020600020905b81548152906001019060200180831161106557829003601f168201915b5050505050905090565b61109e6110976114f3565b83836119f6565b5050565b600b8060000154905081565b8060008114156110f3576040517f08c379a00000000000000000000000000000000000000000000000000000000081526004016110ea9061356b565b60405180910390fd5b81601060008282546111059190613675565b925050819055505050565b61112161111b6114f3565b836115b4565b611160576040517f08c379a00000000000000000000000000000000000000000000000000000000081526004016111579061352b565b60405180910390fd5b61116c84848484611b63565b50505050565b606061117d82611487565b6111bc576040517f08c379a00000000000000000000000000000000000000000000000000000000081526004016111b3906134eb565b60405180910390fd5b60006111c6611bbf565b905060008151116111e65760405180602001604052806000815250611211565b806111f084611bd6565b60405160200161120192919061320e565b6040516020818303038152906040525b915050919050565b6000600560008473ffffffffffffffffffffffffffffffffffffffff1673ffffffffffffffffffffffffffffffffffffffff16815260200190815260200160002060008373ffffffffffffffffffffffffffffffffffffffff1673ffffffffffffffffffffffffffffffffffffffff16815260200190815260200160002060009054906101000a900460ff16905092915050565b6112b56114f3565b73ffffffffffffffffffffffffffffffffffffffff166112d3610fd0565b73ffffffffffffffffffffffffffffffffffffffff1614611329576040517f08c379a0000000000000000000000000000000000000000000000000000000008152600401611320906134ab565b60405180910390fd5b600073ffffffffffffffffffffffffffffffffffffffff168173ffffffffffffffffffffffffffffffffffffffff161415611399576040517f08c379a00000000000000000000000000000000000000000000000000000000081526004016113909061332b565b60405180910390fd5b6113a281611930565b50565b60007f80ac58cd000000000000000000000000000000000000000000000000000000007bffffffffffffffffffffffffffffffffffffffffffffffffffffffff1916827bffffffffffffffffffffffffffffffffffffffffffffffffffffffff1916148061147057507f5b5e139f000000000000000000000000000000000000000000000000000000007bffffffffffffffffffffffffffffffffffffffffffffffffffffffff1916827bffffffffffffffffffffffffffffffffffffffffffffffffffffffff1916145b80611480575061147f82611d83565b5b9050919050565b60008073ffffffffffffffffffffffffffffffffffffffff166002600084815260200190815260200160002060009054906101000a900473ffffffffffffffffffffffffffffffffffffffff1673ffffffffffffffffffffffffffffffffffffffff1614159050919050565b600033905090565b816004600083815260200190815260200160002060006101000a81548173ffffffffffffffffffffffffffffffffffffffff021916908373ffffffffffffffffffffffffffffffffffffffff160217905550808273ffffffffffffffffffffffffffffffffffffffff1661156e83610dde565b73ffffffffffffffffffffffffffffffffffffffff167f8c5be1e5ebec7d5bd14f71427d1e84f3dd0314c0f7b2291e5b200ac8c7c3b92560405160405180910390a45050565b60006115bf82611487565b6115fe576040517f08c379a00000000000000000000000000000000000000000000000000000000081526004016115f5906133cb565b60405180910390fd5b600061160983610dde565b90508073ffffffffffffffffffffffffffffffffffffffff168473ffffffffffffffffffffffffffffffffffffffff16148061167857508373ffffffffffffffffffffffffffffffffffffffff1661166084610773565b73ffffffffffffffffffffffffffffffffffffffff16145b8061168957506116888185611219565b5b91505092915050565b8273ffffffffffffffffffffffffffffffffffffffff166116b282610dde565b73ffffffffffffffffffffffffffffffffffffffff1614611708576040517f08c379a00000000000000000000000000000000000000000000000000000000081526004016116ff906134cb565b60405180910390fd5b600073ffffffffffffffffffffffffffffffffffffffff168273ffffffffffffffffffffffffffffffffffffffff161415611778576040517f08c379a000000000000000000000000000000000000000000000000000000000815260040161176f9061338b565b60405180910390fd5b611783838383611ded565b61178e6000826114fb565b6001600360008573ffffffffffffffffffffffffffffffffffffffff1673ffffffffffffffffffffffffffffffffffffffff16815260200190815260200160002060008282546117de9190613756565b925050819055506001600360008473ffffffffffffffffffffffffffffffffffffffff1673ffffffffffffffffffffffffffffffffffffffff16815260200190815260200160002060008282546118359190613675565b92505081905550816002600083815260200190815260200160002060006101000a81548173ffffffffffffffffffffffffffffffffffffffff021916908373ffffffffffffffffffffffffffffffffffffffff160217905550808273ffffffffffffffffffffffffffffffffffffffff168473ffffffffffffffffffffffffffffffffffffffff167fddf252ad1be2c89b69c2b068fc378daa952ba7f163c4a11628f55a4df523b3ef60405160405180910390a4505050565b600081600001549050919050565b611916828260405180602001604052806000815250611f01565b5050565b6001816000016000828254019250508190555050565b6000600a60009054906101000a900473ffffffffffffffffffffffffffffffffffffffff16905081600a60006101000a81548173ffffffffffffffffffffffffffffffffffffffff021916908373ffffffffffffffffffffffffffffffffffffffff1602179055508173ffffffffffffffffffffffffffffffffffffffff168173ffffffffffffffffffffffffffffffffffffffff167f8be0079c531659141344cd1fd0a4f28419497f9722a3daafe3b4186f6b6457e060405160405180910390a35050565b8173ffffffffffffffffffffffffffffffffffffffff168373ffffffffffffffffffffffffffffffffffffffff161415611a65576040517f08c379a0000000000000000000000000000000000000000000000000000000008152600401611a5c906133ab565b60405180910390fd5b80600560008573ffffffffffffffffffffffffffffffffffffffff1673ffffffffffffffffffffffffffffffffffffffff16815260200190815260200160002060008473ffffffffffffffffffffffffffffffffffffffff1673ffffffffffffffffffffffffffffffffffffffff16815260200190815260200160002060006101000a81548160ff0219169083151502179055508173ffffffffffffffffffffffffffffffffffffffff168373ffffffffffffffffffffffffffffffffffffffff167f17307eab39ab6107e8899845ad3d59bd9653f200f220920489ca2b5937696c3183604051611b5691906132ae565b60405180910390a3505050565b611b6e848484611692565b611b7a84848484611f5c565b611bb9576040517f08c379a0000000000000000000000000000000000000000000000000000000008152600401611bb09061330b565b60405180910390fd5b50505050565b606060405180602001604052806000815250905090565b60606000821415611c1e576040518060400160405280600181526020017f30000000000000000000000000000000000000000000000000000000000000008152509050611d7e565b600082905060005b60008214611c50578080611c3990613872565b915050600a82611c4991906136cb565b9150611c26565b60008167ffffffffffffffff811115611c92577f4e487b7100000000000000000000000000000000000000000000000000000000600052604160045260246000fd5b6040519080825280601f01601f191660200182016040528015611cc45781602001600182028036833780820191505090505b5090505b60008514611d7757600182611cdd9190613756565b9150600a85611cec91906138bb565b6030611cf89190613675565b60f81b818381518110611d34577f4e487b7100000000000000000000000000000000000000000000000000000000600052603260045260246000fd5b60200101907effffffffffffffffffffffffffffffffffffffffffffffffffffffffffffff1916908160001a905350600a85611d7091906136cb565b9450611cc8565b8093505050505b919050565b60007f01ffc9a7000000000000000000000000000000000000000000000000000000007bffffffffffffffffffffffffffffffffffffffffffffffffffffffff1916827bffffffffffffffffffffffffffffffffffffffffffffffffffffffff1916149050919050565b611df88383836120f3565b600073ffffffffffffffffffffffffffffffffffffffff168373ffffffffffffffffffffffffffffffffffffffff161415611e3b57611e36816120f8565b611e7a565b8173ffffffffffffffffffffffffffffffffffffffff168373ffffffffffffffffffffffffffffffffffffffff1614611e7957611e788382612141565b5b5b600073ffffffffffffffffffffffffffffffffffffffff168273ffffffffffffffffffffffffffffffffffffffff161415611ebd57611eb8816122ae565b611efc565b8273ffffffffffffffffffffffffffffffffffffffff168273ffffffffffffffffffffffffffffffffffffffff1614611efb57611efa82826123f1565b5b5b505050565b611f0b8383612470565b611f186000848484611f5c565b611f57576040517f08c379a0000000000000000000000000000000000000000000000000000000008152600401611f4e9061330b565b60405180910390fd5b505050565b6000611f7d8473ffffffffffffffffffffffffffffffffffffffff1661263e565b156120e6578373ffffffffffffffffffffffffffffffffffffffff1663150b7a02611fa66114f3565b8786866040518563ffffffff1660e01b8152600401611fc89493929190613262565b602060405180830381600087803b158015611fe257600080fd5b505af192505050801561201357506040513d601f19601f8201168201806040525081019061201091906128f2565b60015b612096573d8060008114612043576040519150601f19603f3d011682016040523d82523d6000602084013e612048565b606091505b5060008151141561208e576040517f08c379a00000000000000000000000000000000000000000000000000000000081526004016120859061330b565b60405180910390fd5b805181602001fd5b63150b7a0260e01b7bffffffffffffffffffffffffffffffffffffffffffffffffffffffff1916817bffffffffffffffffffffffffffffffffffffffffffffffffffffffff1916149150506120eb565b600190505b949350505050565b505050565b6008805490506009600083815260200190815260200160002081905550600881908060018154018082558091505060019003906000526020600020016000909190919091505550565b6000600161214e84610e90565b6121589190613756565b905060006007600084815260200190815260200160002054905081811461223d576000600660008673ffffffffffffffffffffffffffffffffffffffff1673ffffffffffffffffffffffffffffffffffffffff168152602001908152602001600020600084815260200190815260200160002054905080600660008773ffffffffffffffffffffffffffffffffffffffff1673ffffffffffffffffffffffffffffffffffffffff168152602001908152602001600020600084815260200190815260200160002081905550816007600083815260200190815260200160002081905550505b6007600084815260200190815260200160002060009055600660008573ffffffffffffffffffffffffffffffffffffffff1673ffffffffffffffffffffffffffffffffffffffff16815260200190815260200160002060008381526020019081526020016000206000905550505050565b600060016008805490506122c29190613756565b9050600060096000848152602001908152602001600020549050600060088381548110612318577f4e487b7100000000000000000000000000000000000000000000000000000000600052603260045260246000fd5b906000526020600020015490508060088381548110612360577f4e487b7100000000000000000000000000000000000000000000000000000000600052603260045260246000fd5b9060005260206000200181905550816009600083815260200190815260200160002081905550600960008581526020019081526020016000206000905560088054806123d5577f4e487b7100000000000000000000000000000000000000000000000000000000600052603160045260246000fd5b6001900381819060005260206000200160009055905550505050565b60006123fc83610e90565b905081600660008573ffffffffffffffffffffffffffffffffffffffff1673ffffffffffffffffffffffffffffffffffffffff168152602001908152602001600020600083815260200190815260200160002081905550806007600084815260200190815260200160002081905550505050565b600073ffffffffffffffffffffffffffffffffffffffff168273ffffffffffffffffffffffffffffffffffffffff1614156124e0576040517f08c379a00000000000000000000000000000000000000000000000000000000081526004016124d79061346b565b60405180910390fd5b6124e981611487565b15612529576040517f08c379a00000000000000000000000000000000000000000000000000000000081526004016125209061336b565b60405180910390fd5b61253560008383611ded565b6001600360008473ffffffffffffffffffffffffffffffffffffffff1673ffffffffffffffffffffffffffffffffffffffff16815260200190815260200160002060008282546125859190613675565b92505081905550816002600083815260200190815260200160002060006101000a81548173ffffffffffffffffffffffffffffffffffffffff021916908373ffffffffffffffffffffffffffffffffffffffff160217905550808273ffffffffffffffffffffffffffffffffffffffff16600073ffffffffffffffffffffffffffffffffffffffff167fddf252ad1be2c89b69c2b068fc378daa952ba7f163c4a11628f55a4df523b3ef60405160405180910390a45050565b600080823b905060008111915050919050565b600061266461265f846135f7565b6135c6565b90508281526020810184848401111561267c57600080fd5b6126878482856137fe565b509392505050565b60008135905061269e816139b9565b92915050565b6000813590506126b3816139d0565b92915050565b6000813590506126c8816139e7565b92915050565b6000815190506126dd816139e7565b92915050565b600082601f8301126126f457600080fd5b8135612704848260208601612651565b91505092915050565b60008135905061271c816139fe565b92915050565b60006020828403121561273457600080fd5b60006127428482850161268f565b91505092915050565b6000806040838503121561275e57600080fd5b600061276c8582860161268f565b925050602061277d8582860161268f565b9150509250929050565b60008060006060848603121561279c57600080fd5b60006127aa8682870161268f565b93505060206127bb8682870161268f565b92505060406127cc8682870161270d565b9150509250925092565b600080600080608085870312156127ec57600080fd5b60006127fa8782880161268f565b945050602061280b8782880161268f565b935050604061281c8782880161270d565b925050606085013567ffffffffffffffff81111561283957600080fd5b612845878288016126e3565b91505092959194509250565b6000806040838503121561286457600080fd5b60006128728582860161268f565b9250506020612883858286016126a4565b9150509250929050565b600080604083850312156128a057600080fd5b60006128ae8582860161268f565b92505060206128bf8582860161270d565b9150509250929050565b6000602082840312156128db57600080fd5b60006128e9848285016126b9565b91505092915050565b60006020828403121561290457600080fd5b6000612912848285016126ce565b91505092915050565b60006020828403121561292d57600080fd5b600061293b8482850161270d565b91505092915050565b61294d8161378a565b82525050565b61295c8161379c565b82525050565b600061296d82613627565b612977818561363d565b935061298781856020860161380d565b612990816139a8565b840191505092915050565b60006129a682613632565b6129b08185613659565b93506129c081856020860161380d565b6129c9816139a8565b840191505092915050565b60006129df82613632565b6129e9818561366a565b93506129f981856020860161380d565b80840191505092915050565b6000612a12602b83613659565b91507f455243373231456e756d657261626c653a206f776e657220696e646578206f7560008301527f74206f6620626f756e64730000000000000000000000000000000000000000006020830152604082019050919050565b6000612a78603283613659565b91507f4552433732313a207472616e7366657220746f206e6f6e20455243373231526560008301527f63656976657220696d706c656d656e74657200000000000000000000000000006020830152604082019050919050565b6000612ade602683613659565b91507f4f776e61626c653a206e6577206f776e657220697320746865207a65726f206160008301527f64647265737300000000000000000000000000000000000000000000000000006020830152604082019050919050565b6000612b44602483613659565b91507f596f7520617265206e6f7420746865206f776e6572206f66207468697320746f60008301527f6b656e2e000000000000000000000000000000000000000000000000000000006020830152604082019050919050565b6000612baa601c83613659565b91507f4552433732313a20746f6b656e20616c7265616479206d696e746564000000006000830152602082019050919050565b6000612bea602483613659565b91507f4552433732313a207472616e7366657220746f20746865207a65726f2061646460008301527f72657373000000000000000000000000000000000000000000000000000000006020830152604082019050919050565b6000612c50601983613659565b91507f4552433732313a20617070726f766520746f2063616c6c6572000000000000006000830152602082019050919050565b6000612c90602c83613659565b91507f4552433732313a206f70657261746f7220717565727920666f72206e6f6e657860008301527f697374656e7420746f6b656e00000000000000000000000000000000000000006020830152604082019050919050565b6000612cf6603883613659565b91507f4552433732313a20617070726f76652063616c6c6572206973206e6f74206f7760008301527f6e6572206e6f7220617070726f76656420666f7220616c6c00000000000000006020830152604082019050919050565b6000612d5c602a83613659565b91507f4552433732313a2062616c616e636520717565727920666f7220746865207a6560008301527f726f2061646472657373000000000000000000000000000000000000000000006020830152604082019050919050565b6000612dc2602983613659565b91507f4552433732313a206f776e657220717565727920666f72206e6f6e657869737460008301527f656e7420746f6b656e00000000000000000000000000000000000000000000006020830152604082019050919050565b6000612e28601683613659565b91507f596f7520646f6e74206465736572766520736869742e000000000000000000006000830152602082019050919050565b6000612e68602083613659565b91507f4552433732313a206d696e7420746f20746865207a65726f20616464726573736000830152602082019050919050565b6000612ea8602c83613659565b91507f4552433732313a20617070726f76656420717565727920666f72206e6f6e657860008301527f697374656e7420746f6b656e00000000000000000000000000000000000000006020830152604082019050919050565b6000612f0e602083613659565b91507f4f776e61626c653a2063616c6c6572206973206e6f7420746865206f776e65726000830152602082019050919050565b6000612f4e602983613659565b91507f4552433732313a207472616e73666572206f6620746f6b656e2074686174206960008301527f73206e6f74206f776e00000000000000000000000000000000000000000000006020830152604082019050919050565b6000612fb4602f83613659565b91507f4552433732314d657461646174613a2055524920717565727920666f72206e6f60008301527f6e6578697374656e7420746f6b656e00000000000000000000000000000000006020830152604082019050919050565b600061301a602183613659565b91507f4552433732313a20617070726f76616c20746f2063757272656e74206f776e6560008301527f72000000000000000000000000000000000000000000000000000000000000006020830152604082019050919050565b6000613080603183613659565b91507f4552433732313a207472616e736665722063616c6c6572206973206e6f74206f60008301527f776e6572206e6f7220617070726f7665640000000000000000000000000000006020830152604082019050919050565b60006130e6602c83613659565b91507f455243373231456e756d657261626c653a20676c6f62616c20696e646578206f60008301527f7574206f6620626f756e647300000000000000000000000000000000000000006020830152604082019050919050565b600061314c601e83613659565b91507f416d6f756e742073686f756c6420626520626967676572207468616e203000006000830152602082019050919050565b600061318c600c83613659565b91507f436c61696d206661696c656400000000000000000000000000000000000000006000830152602082019050919050565b60006131cc60078361364e565b91507f42652072696368000000000000000000000000000000000000000000000000006000830152600782019050919050565b613208816137f4565b82525050565b600061321a82856129d4565b915061322682846129d4565b91508190509392505050565b600061323d826131bf565b9150819050919050565b600060208201905061325c6000830184612944565b92915050565b60006080820190506132776000830187612944565b6132846020830186612944565b61329160408301856131ff565b81810360608301526132a38184612962565b905095945050505050565b60006020820190506132c36000830184612953565b92915050565b600060208201905081810360008301526132e3818461299b565b905092915050565b6000602082019050818103600083015261330481612a05565b9050919050565b6000602082019050818103600083015261332481612a6b565b9050919050565b6000602082019050818103600083015261334481612ad1565b9050919050565b6000602082019050818103600083015261336481612b37565b9050919050565b6000602082019050818103600083015261338481612b9d565b9050919050565b600060208201905081810360008301526133a481612bdd565b9050919050565b600060208201905081810360008301526133c481612c43565b9050919050565b600060208201905081810360008301526133e481612c83565b9050919050565b6000602082019050818103600083015261340481612ce9565b9050919050565b6000602082019050818103600083015261342481612d4f565b9050919050565b6000602082019050818103600083015261344481612db5565b9050919050565b6000602082019050818103600083015261346481612e1b565b9050919050565b6000602082019050818103600083015261348481612e5b565b9050919050565b600060208201905081810360008301526134a481612e9b565b9050919050565b600060208201905081810360008301526134c481612f01565b9050919050565b600060208201905081810360008301526134e481612f41565b9050919050565b6000602082019050818103600083015261350481612fa7565b9050919050565b600060208201905081810360008301526135248161300d565b9050919050565b6000602082019050818103600083015261354481613073565b9050919050565b60006020820190508181036000830152613564816130d9565b9050919050565b600060208201905081810360008301526135848161313f565b9050919050565b600060208201905081810360008301526135a48161317f565b9050919050565b60006020820190506135c060008301846131ff565b92915050565b6000604051905081810181811067ffffffffffffffff821117156135ed576135ec613979565b5b8060405250919050565b600067ffffffffffffffff82111561361257613611613979565b5b601f19601f8301169050602081019050919050565b600081519050919050565b600081519050919050565b600082825260208201905092915050565b600081905092915050565b600082825260208201905092915050565b600081905092915050565b6000613680826137f4565b915061368b836137f4565b9250827fffffffffffffffffffffffffffffffffffffffffffffffffffffffffffffffff038211156136c0576136bf6138ec565b5b828201905092915050565b60006136d6826137f4565b91506136e1836137f4565b9250826136f1576136f061391b565b5b828204905092915050565b6000613707826137f4565b9150613712836137f4565b9250817fffffffffffffffffffffffffffffffffffffffffffffffffffffffffffffffff048311821515161561374b5761374a6138ec565b5b828202905092915050565b6000613761826137f4565b915061376c836137f4565b92508282101561377f5761377e6138ec565b5b828203905092915050565b6000613795826137d4565b9050919050565b60008115159050919050565b60007fffffffff0000000000000000000000000000000000000000000000000000000082169050919050565b600073ffffffffffffffffffffffffffffffffffffffff82169050919050565b6000819050919050565b82818337600083830152505050565b60005b8381101561382b578082015181840152602081019050613810565b8381111561383a576000848401525b50505050565b6000600282049050600182168061385857607f821691505b6020821081141561386c5761386b61394a565b5b50919050565b600061387d826137f4565b91507fffffffffffffffffffffffffffffffffffffffffffffffffffffffffffffffff8214156138b0576138af6138ec565b5b600182019050919050565b60006138c6826137f4565b91506138d1836137f4565b9250826138e1576138e061391b565b5b828206905092915050565b7f4e487b7100000000000000000000000000000000000000000000000000000000600052601160045260246000fd5b7f4e487b7100000000000000000000000000000000000000000000000000000000600052601260045260246000fd5b7f4e487b7100000000000000000000000000000000000000000000000000000000600052602260045260246000fd5b7f4e487b7100000000000000000000000000000000000000000000000000000000600052604160045260246000fd5b6000601f19601f8301169050919050565b6139c28161378a565b81146139cd57600080fd5b50565b6139d98161379c565b81146139e457600080fd5b50565b6139f0816137a8565b81146139fb57600080fd5b50565b613a07816137f4565b8114613a1257600080fd5b5056fea26469706673582212209e9ad16fd38fe17247710aca49dc8ad8ae92991f6b536132d39e3553478f64e164736f6c63430008000033",
  "linkReferences": {},
  "deployedLinkReferences": {}
}