{
  "_format": "hh-sol-artifact-1",
  "contractName": "Playground",
  "sourceName": "contracts/Plaground.sol",
  "abi": [
    {
      "inputs": [],
      "stateMutability": "nonpayable",
      "type": "constructor"
    },
    {
      "anonymous": false,
      "inputs": [
        {
          "indexed": true,
          "internalType": "address",
          "name": "owner",
          "type": "address"
        },
        {
          "indexed": true,
          "internalType": "address",
          "name": "approved",
          "type": "address"
        },
        {
          "indexed": true,
          "internalType": "uint256",
          "name": "tokenId",
          "type": "uint256"
        }
      ],
      "name": "Approval",
      "type": "event"
    },
    {
      "anonymous": false,
      "inputs": [
        {
          "indexed": true,
          "internalType": "address",
          "name": "owner",
          "type": "address"
        },
        {
          "indexed": true,
          "internalType": "address",
          "name": "operator",
          "type": "address"
        },
        {
          "indexed": false,
          "internalType": "bool",
          "name": "approved",
          "type": "bool"
        }
      ],
      "name": "ApprovalForAll",
      "type": "event"
    },
    {
      "anonymous": false,
      "inputs": [
        {
          "indexed": true,
          "internalType": "address",
          "name": "previousOwner",
          "type": "address"
        },
        {
          "indexed": true,
          "internalType": "address",
          "name": "newOwner",
          "type": "address"
        }
      ],
      "name": "OwnershipTransferred",
      "type": "event"
    },
    {
      "anonymous": false,
      "inputs": [
        {
          "indexed": true,
          "internalType": "address",
          "name": "from",
          "type": "address"
        },
        {
          "indexed": true,
          "internalType": "address",
          "name": "to",
          "type": "address"
        },
        {
          "indexed": true,
          "internalType": "uint256",
          "name": "tokenId",
          "type": "uint256"
        }
      ],
      "name": "Transfer",
      "type": "event"
    },
    {
      "inputs": [],
      "name": "_tokenIds",
      "outputs": [
        {
          "internalType": "uint256",
          "name": "_value",
          "type": "uint256"
        }
      ],
      "stateMutability": "view",
      "type": "function"
    },
    {
      "inputs": [
        {
          "internalType": "address",
          "name": "to",
          "type": "address"
        },
        {
          "internalType": "uint256",
          "name": "tokenId",
          "type": "uint256"
        }
      ],
      "name": "approve",
      "outputs": [],
      "stateMutability": "nonpayable",
      "type": "function"
    },
    {
      "inputs": [
        {
          "internalType": "address",
          "name": "owner",
          "type": "address"
        }
      ],
      "name": "balanceOf",
      "outputs": [
        {
          "internalType": "uint256",
          "name": "",
          "type": "uint256"
        }
      ],
      "stateMutability": "view",
      "type": "function"
    },
    {
      "inputs": [
        {
          "internalType": "uint256",
          "name": "_tokenId",
          "type": "uint256"
        }
      ],
      "name": "claim",
      "outputs": [],
      "stateMutability": "nonpayable",
      "type": "function"
    },
    {
      "inputs": [
        {
          "internalType": "uint256",
          "name": "_amount",
          "type": "uint256"
        }
      ],
      "name": "deposit",
      "outputs": [],
      "stateMutability": "payable",
      "type": "function"
    },
    {
      "inputs": [
        {
          "internalType": "uint256",
          "name": "tokenId",
          "type": "uint256"
        }
      ],
      "name": "getApproved",
      "outputs": [
        {
          "internalType": "address",
          "name": "",
          "type": "address"
        }
      ],
      "stateMutability": "view",
      "type": "function"
    },
    {
      "inputs": [
        {
          "internalType": "address",
          "name": "owner",
          "type": "address"
        },
        {
          "internalType": "address",
          "name": "operator",
          "type": "address"
        }
      ],
      "name": "isApprovedForAll",
      "outputs": [
        {
          "internalType": "bool",
          "name": "",
          "type": "bool"
        }
      ],
      "stateMutability": "view",
      "type": "function"
    },
    {
      "inputs": [
        {
          "internalType": "address",
          "name": "_to",
          "type": "address"
        },
        {
          "internalType": "uint256",
          "name": "_share",
          "type": "uint256"
        }
      ],
      "name": "mint",
      "outputs": [
        {
          "internalType": "uint256",
          "name": "",
          "type": "uint256"
        }
      ],
      "stateMutability": "nonpayable",
      "type": "function"
    },
    {
      "inputs": [],
      "name": "name",
      "outputs": [
        {
          "internalType": "string",
          "name": "",
          "type": "string"
        }
      ],
      "stateMutability": "view",
      "type": "function"
    },
    {
      "inputs": [],
      "name": "owner",
      "outputs": [
        {
          "internalType": "address",
          "name": "",
          "type": "address"
        }
      ],
      "stateMutability": "view",
      "type": "function"
    },
    {
      "inputs": [
        {
          "internalType": "uint256",
          "name": "tokenId",
          "type": "uint256"
        }
      ],
      "name": "ownerOf",
      "outputs": [
        {
          "internalType": "address",
          "name": "",
          "type": "address"
        }
      ],
      "stateMutability": "view",
      "type": "function"
    },
    {
      "inputs": [],
      "name": "renounceOwnership",
      "outputs": [],
      "stateMutability": "nonpayable",
      "type": "function"
    },
    {
      "inputs": [
        {
          "internalType": "address",
          "name": "from",
          "type": "address"
        },
        {
          "internalType": "address",
          "name": "to",
          "type": "address"
        },
        {
          "internalType": "uint256",
          "name": "tokenId",
          "type": "uint256"
        }
      ],
      "name": "safeTransferFrom",
      "outputs": [],
      "stateMutability": "nonpayable",
      "type": "function"
    },
    {
      "inputs": [
        {
          "internalType": "address",
          "name": "from",
          "type": "address"
        },
        {
          "internalType": "address",
          "name": "to",
          "type": "address"
        },
        {
          "internalType": "uint256",
          "name": "tokenId",
          "type": "uint256"
        },
        {
          "internalType": "bytes",
          "name": "_data",
          "type": "bytes"
        }
      ],
      "name": "safeTransferFrom",
      "outputs": [],
      "stateMutability": "nonpayable",
      "type": "function"
    },
    {
      "inputs": [
        {
          "internalType": "address",
          "name": "operator",
          "type": "address"
        },
        {
          "internalType": "bool",
          "name": "approved",
          "type": "bool"
        }
      ],
      "name": "setApprovalForAll",
      "outputs": [],
      "stateMutability": "nonpayable",
      "type": "function"
    },
    {
      "inputs": [
        {
          "internalType": "uint256",
          "name": "",
          "type": "uint256"
        }
      ],
      "name": "shares",
      "outputs": [
        {
          "internalType": "uint256",
          "name": "",
          "type": "uint256"
        }
      ],
      "stateMutability": "view",
      "type": "function"
    },
    {
      "inputs": [
        {
          "internalType": "bytes4",
          "name": "interfaceId",
          "type": "bytes4"
        }
      ],
      "name": "supportsInterface",
      "outputs": [
        {
          "internalType": "bool",
          "name": "",
          "type": "bool"
        }
      ],
      "stateMutability": "view",
      "type": "function"
    },
    {
      "inputs": [],
      "name": "symbol",
      "outputs": [
        {
          "internalType": "string",
          "name": "",
          "type": "string"
        }
      ],
      "stateMutability": "view",
      "type": "function"
    },
    {
      "inputs": [
        {
          "internalType": "uint256",
          "name": "index",
          "type": "uint256"
        }
      ],
      "name": "tokenByIndex",
      "outputs": [
        {
          "internalType": "uint256",
          "name": "",
          "type": "uint256"
        }
      ],
      "stateMutability": "view",
      "type": "function"
    },
    {
      "inputs": [
        {
          "internalType": "address",
          "name": "owner",
          "type": "address"
        },
        {
          "internalType": "uint256",
          "name": "index",
          "type": "uint256"
        }
      ],
      "name": "tokenOfOwnerByIndex",
      "outputs": [
        {
          "internalType": "uint256",
          "name": "",
          "type": "uint256"
        }
      ],
      "stateMutability": "view",
      "type": "function"
    },
    {
      "inputs": [
        {
          "internalType": "uint256",
          "name": "tokenId",
          "type": "uint256"
        }
      ],
      "name": "tokenURI",
      "outputs": [
        {
          "internalType": "string",
          "name": "",
          "type": "string"
        }
      ],
      "stateMutability": "view",
      "type": "function"
    },
    {
      "inputs": [],
      "name": "totalShares",
      "outputs": [
        {
          "internalType": "uint256",
          "name": "",
          "type": "uint256"
        }
      ],
      "stateMutability": "view",
      "type": "function"
    },
    {
      "inputs": [],
      "name": "totalSupply",
      "outputs": [
        {
          "internalType": "uint256",
          "name": "",
          "type": "uint256"
        }
      ],
      "stateMutability": "view",
      "type": "function"
    },
    {
      "inputs": [
        {
          "internalType": "address",
          "name": "from",
          "type": "address"
        },
        {
          "internalType": "address",
          "name": "to",
          "type": "address"
        },
        {
          "internalType": "uint256",
          "name": "tokenId",
          "type": "uint256"
        }
      ],
      "name": "transferFrom",
      "outputs": [],
      "stateMutability": "nonpayable",
      "type": "function"
    },
    {
      "inputs": [
        {
          "internalType": "address",
          "name": "newOwner",
          "type": "address"
        }
      ],
      "name": "transferOwnership",
      "outputs": [],
      "stateMutability": "nonpayable",
      "type": "function"
    }
  ],
  "bytecode": "0x60806040526064600e553480156200001657600080fd5b506040518060400160405280600a81526020017f506c617967726f756e64000000000000000000000000000000000000000000008152506040518060400160405280600281526020017f504700000000000000000000000000000000000000000000000000000000000081525081600090805190602001906200009b929190620001ab565b508060019080519060200190620000b4929190620001ab565b505050620000d7620000cb620000dd60201b60201c565b620000e560201b60201c565b620002c0565b600033905090565b6000600a60009054906101000a900473ffffffffffffffffffffffffffffffffffffffff16905081600a60006101000a81548173ffffffffffffffffffffffffffffffffffffffff021916908373ffffffffffffffffffffffffffffffffffffffff1602179055508173ffffffffffffffffffffffffffffffffffffffff168173ffffffffffffffffffffffffffffffffffffffff167f8be0079c531659141344cd1fd0a4f28419497f9722a3daafe3b4186f6b6457e060405160405180910390a35050565b828054620001b9906200025b565b90600052602060002090601f016020900481019282620001dd576000855562000229565b82601f10620001f857805160ff191683800117855562000229565b8280016001018555821562000229579182015b82811115620002285782518255916020019190600101906200020b565b5b5090506200023891906200023c565b5090565b5b80821115620002575760008160009055506001016200023d565b5090565b600060028204905060018216806200027457607f821691505b602082108114156200028b576200028a62000291565b5b50919050565b7f4e487b7100000000000000000000000000000000000000000000000000000000600052602260045260246000fd5b6139ff80620002d06000396000f3fe6080604052600436106101665760003560e01c806357a858fc116100d1578063a22cb4651161008a578063b88d4fde11610064578063b88d4fde14610555578063c87b56dd1461057e578063e985e9c5146105bb578063f2fde38b146105f857610166565b8063a22cb465146104e5578063aa46a4001461050e578063b6b55f251461053957610166565b806357a858fc146103c15780636352211e146103fe57806370a082311461043b578063715018a6146104785780638da5cb5b1461048f57806395d89b41146104ba57610166565b80632f745c59116101235780632f745c591461028d578063379607f5146102ca5780633a98ef39146102f357806340c10f191461031e57806342842e0e1461035b5780634f6ccce71461038457610166565b806301ffc9a71461016b57806306fdde03146101a8578063081812fc146101d3578063095ea7b31461021057806318160ddd1461023957806323b872dd14610264575b600080fd5b34801561017757600080fd5b50610192600480360381019061018d919061287d565b610621565b60405161019f9190613262565b60405180910390f35b3480156101b457600080fd5b506101bd61069b565b6040516101ca919061327d565b60405180910390f35b3480156101df57600080fd5b506101fa60048036038101906101f591906128cf565b61072d565b60405161020791906131fb565b60405180910390f35b34801561021c57600080fd5b5061023760048036038101906102329190612841565b6107b2565b005b34801561024557600080fd5b5061024e6108ca565b60405161025b919061355f565b60405180910390f35b34801561027057600080fd5b5061028b6004803603810190610286919061273b565b6108d7565b005b34801561029957600080fd5b506102b460048036038101906102af9190612841565b610937565b6040516102c1919061355f565b60405180910390f35b3480156102d657600080fd5b506102f160048036038101906102ec91906128cf565b6109dc565b005b3480156102ff57600080fd5b50610308610bc6565b604051610315919061355f565b60405180910390f35b34801561032a57600080fd5b5061034560048036038101906103409190612841565b610bcc565b604051610352919061355f565b60405180910390f35b34801561036757600080fd5b50610382600480360381019061037d919061273b565b610cc3565b005b34801561039057600080fd5b506103ab60048036038101906103a691906128cf565b610ce3565b6040516103b8919061355f565b60405180910390f35b3480156103cd57600080fd5b506103e860048036038101906103e391906128cf565b610d7a565b6040516103f5919061355f565b60405180910390f35b34801561040a57600080fd5b50610425600480360381019061042091906128cf565b610d92565b60405161043291906131fb565b60405180910390f35b34801561044757600080fd5b50610462600480360381019061045d91906126d6565b610e44565b60405161046f919061355f565b60405180910390f35b34801561048457600080fd5b5061048d610efc565b005b34801561049b57600080fd5b506104a4610f84565b6040516104b191906131fb565b60405180910390f35b3480156104c657600080fd5b506104cf610fae565b6040516104dc919061327d565b60405180910390f35b3480156104f157600080fd5b5061050c60048036038101906105079190612805565b611040565b005b34801561051a57600080fd5b50610523611056565b604051610530919061355f565b60405180910390f35b610553600480360381019061054e91906128cf565b611062565b005b34801561056157600080fd5b5061057c6004803603810190610577919061278a565b6110c4565b005b34801561058a57600080fd5b506105a560048036038101906105a091906128cf565b611126565b6040516105b2919061327d565b60405180910390f35b3480156105c757600080fd5b506105e260048036038101906105dd91906126ff565b6111cd565b6040516105ef9190613262565b60405180910390f35b34801561060457600080fd5b5061061f600480360381019061061a91906126d6565b611261565b005b60007f780e9d63000000000000000000000000000000000000000000000000000000007bffffffffffffffffffffffffffffffffffffffffffffffffffffffff1916827bffffffffffffffffffffffffffffffffffffffffffffffffffffffff19161480610694575061069382611359565b5b9050919050565b6060600080546106aa906137f4565b80601f01602080910402602001604051908101604052809291908181526020018280546106d6906137f4565b80156107235780601f106106f857610100808354040283529160200191610723565b820191906000526020600020905b81548152906001019060200180831161070657829003601f168201915b5050505050905090565b60006107388261143b565b610777576040517f08c379a000000000000000000000000000000000000000000000000000000000815260040161076e9061343f565b60405180910390fd5b6004600083815260200190815260200160002060009054906101000a900473ffffffffffffffffffffffffffffffffffffffff169050919050565b60006107bd82610d92565b90508073ffffffffffffffffffffffffffffffffffffffff168373ffffffffffffffffffffffffffffffffffffffff16141561082e576040517f08c379a0000000000000000000000000000000000000000000000000000000008152600401610825906134bf565b60405180910390fd5b8073ffffffffffffffffffffffffffffffffffffffff1661084d6114a7565b73ffffffffffffffffffffffffffffffffffffffff16148061087c575061087b816108766114a7565b6111cd565b5b6108bb576040517f08c379a00000000000000000000000000000000000000000000000000000000081526004016108b29061339f565b60405180910390fd5b6108c583836114af565b505050565b6000600880549050905090565b6108e86108e26114a7565b82611568565b610927576040517f08c379a000000000000000000000000000000000000000000000000000000000815260040161091e906134df565b60405180910390fd5b610932838383611646565b505050565b600061094283610e44565b8210610983576040517f08c379a000000000000000000000000000000000000000000000000000000000815260040161097a9061329f565b60405180910390fd5b600660008473ffffffffffffffffffffffffffffffffffffffff1673ffffffffffffffffffffffffffffffffffffffff168152602001908152602001600020600083815260200190815260200160002054905092915050565b3373ffffffffffffffffffffffffffffffffffffffff166109fc82610d92565b73ffffffffffffffffffffffffffffffffffffffff1614610a52576040517f08c379a0000000000000000000000000000000000000000000000000000000008152600401610a49906132ff565b60405180910390fd5b6000600e54600c600084815260200190815260200160002054601054610a7891906136b0565b610a82919061367f565b90506000600d60008481526020019081526020016000205482610aa5919061370a565b905060008111610aea576040517f08c379a0000000000000000000000000000000000000000000000000000000008152600401610ae1906133ff565b60405180910390fd5b60003373ffffffffffffffffffffffffffffffffffffffff1682604051610b10906131e6565b60006040518083038185875af1925050503d8060008114610b4d576040519150601f19603f3d011682016040523d82523d6000602084013e610b52565b606091505b5050905080610b96576040517f08c379a0000000000000000000000000000000000000000000000000000000008152600401610b8d9061353f565b60405180910390fd5b81600d60008681526020019081526020016000206000828254610bb99190613629565b9250508190555050505050565b600e5481565b6000610bd66114a7565b73ffffffffffffffffffffffffffffffffffffffff16610bf4610f84565b73ffffffffffffffffffffffffffffffffffffffff1614610c4a576040517f08c379a0000000000000000000000000000000000000000000000000000000008152600401610c419061345f565b60405180910390fd5b600e5482600f54610c5b9190613629565b1115610c6657600080fd5b6000610c72600b6118a2565b9050610c7e84826118b0565b82600c600083815260200190815260200160002081905550610ca0600b6118ce565b82600f6000828254610cb29190613629565b925050819055508091505092915050565b610cde838383604051806020016040528060008152506110c4565b505050565b6000610ced6108ca565b8210610d2e576040517f08c379a0000000000000000000000000000000000000000000000000000000008152600401610d25906134ff565b60405180910390fd5b60088281548110610d68577f4e487b7100000000000000000000000000000000000000000000000000000000600052603260045260246000fd5b90600052602060002001549050919050565b600c6020528060005260406000206000915090505481565b6000806002600084815260200190815260200160002060009054906101000a900473ffffffffffffffffffffffffffffffffffffffff169050600073ffffffffffffffffffffffffffffffffffffffff168173ffffffffffffffffffffffffffffffffffffffff161415610e3b576040517f08c379a0000000000000000000000000000000000000000000000000000000008152600401610e32906133df565b60405180910390fd5b80915050919050565b60008073ffffffffffffffffffffffffffffffffffffffff168273ffffffffffffffffffffffffffffffffffffffff161415610eb5576040517f08c379a0000000000000000000000000000000000000000000000000000000008152600401610eac906133bf565b60405180910390fd5b600360008373ffffffffffffffffffffffffffffffffffffffff1673ffffffffffffffffffffffffffffffffffffffff168152602001908152602001600020549050919050565b610f046114a7565b73ffffffffffffffffffffffffffffffffffffffff16610f22610f84565b73ffffffffffffffffffffffffffffffffffffffff1614610f78576040517f08c379a0000000000000000000000000000000000000000000000000000000008152600401610f6f9061345f565b60405180910390fd5b610f8260006118e4565b565b6000600a60009054906101000a900473ffffffffffffffffffffffffffffffffffffffff16905090565b606060018054610fbd906137f4565b80601f0160208091040260200160405190810160405280929190818152602001828054610fe9906137f4565b80156110365780601f1061100b57610100808354040283529160200191611036565b820191906000526020600020905b81548152906001019060200180831161101957829003601f168201915b5050505050905090565b61105261104b6114a7565b83836119aa565b5050565b600b8060000154905081565b8060008114156110a7576040517f08c379a000000000000000000000000000000000000000000000000000000000815260040161109e9061351f565b60405180910390fd5b81601060008282546110b99190613629565b925050819055505050565b6110d56110cf6114a7565b83611568565b611114576040517f08c379a000000000000000000000000000000000000000000000000000000000815260040161110b906134df565b60405180910390fd5b61112084848484611b17565b50505050565b60606111318261143b565b611170576040517f08c379a00000000000000000000000000000000000000000000000000000000081526004016111679061349f565b60405180910390fd5b600061117a611b73565b9050600081511161119a57604051806020016040528060008152506111c5565b806111a484611b8a565b6040516020016111b59291906131c2565b6040516020818303038152906040525b915050919050565b6000600560008473ffffffffffffffffffffffffffffffffffffffff1673ffffffffffffffffffffffffffffffffffffffff16815260200190815260200160002060008373ffffffffffffffffffffffffffffffffffffffff1673ffffffffffffffffffffffffffffffffffffffff16815260200190815260200160002060009054906101000a900460ff16905092915050565b6112696114a7565b73ffffffffffffffffffffffffffffffffffffffff16611287610f84565b73ffffffffffffffffffffffffffffffffffffffff16146112dd576040517f08c379a00000000000000000000000000000000000000000000000000000000081526004016112d49061345f565b60405180910390fd5b600073ffffffffffffffffffffffffffffffffffffffff168173ffffffffffffffffffffffffffffffffffffffff16141561134d576040517f08c379a0000000000000000000000000000000000000000000000000000000008152600401611344906132df565b60405180910390fd5b611356816118e4565b50565b60007f80ac58cd000000000000000000000000000000000000000000000000000000007bffffffffffffffffffffffffffffffffffffffffffffffffffffffff1916827bffffffffffffffffffffffffffffffffffffffffffffffffffffffff1916148061142457507f5b5e139f000000000000000000000000000000000000000000000000000000007bffffffffffffffffffffffffffffffffffffffffffffffffffffffff1916827bffffffffffffffffffffffffffffffffffffffffffffffffffffffff1916145b80611434575061143382611d37565b5b9050919050565b60008073ffffffffffffffffffffffffffffffffffffffff166002600084815260200190815260200160002060009054906101000a900473ffffffffffffffffffffffffffffffffffffffff1673ffffffffffffffffffffffffffffffffffffffff1614159050919050565b600033905090565b816004600083815260200190815260200160002060006101000a81548173ffffffffffffffffffffffffffffffffffffffff021916908373ffffffffffffffffffffffffffffffffffffffff160217905550808273ffffffffffffffffffffffffffffffffffffffff1661152283610d92565b73ffffffffffffffffffffffffffffffffffffffff167f8c5be1e5ebec7d5bd14f71427d1e84f3dd0314c0f7b2291e5b200ac8c7c3b92560405160405180910390a45050565b60006115738261143b565b6115b2576040517f08c379a00000000000000000000000000000000000000000000000000000000081526004016115a99061337f565b60405180910390fd5b60006115bd83610d92565b90508073ffffffffffffffffffffffffffffffffffffffff168473ffffffffffffffffffffffffffffffffffffffff16148061162c57508373ffffffffffffffffffffffffffffffffffffffff166116148461072d565b73ffffffffffffffffffffffffffffffffffffffff16145b8061163d575061163c81856111cd565b5b91505092915050565b8273ffffffffffffffffffffffffffffffffffffffff1661166682610d92565b73ffffffffffffffffffffffffffffffffffffffff16146116bc576040517f08c379a00000000000000000000000000000000000000000000000000000000081526004016116b39061347f565b60405180910390fd5b600073ffffffffffffffffffffffffffffffffffffffff168273ffffffffffffffffffffffffffffffffffffffff16141561172c576040517f08c379a00000000000000000000000000000000000000000000000000000000081526004016117239061333f565b60405180910390fd5b611737838383611da1565b6117426000826114af565b6001600360008573ffffffffffffffffffffffffffffffffffffffff1673ffffffffffffffffffffffffffffffffffffffff1681526020019081526020016000206000828254611792919061370a565b925050819055506001600360008473ffffffffffffffffffffffffffffffffffffffff1673ffffffffffffffffffffffffffffffffffffffff16815260200190815260200160002060008282546117e99190613629565b92505081905550816002600083815260200190815260200160002060006101000a81548173ffffffffffffffffffffffffffffffffffffffff021916908373ffffffffffffffffffffffffffffffffffffffff160217905550808273ffffffffffffffffffffffffffffffffffffffff168473ffffffffffffffffffffffffffffffffffffffff167fddf252ad1be2c89b69c2b068fc378daa952ba7f163c4a11628f55a4df523b3ef60405160405180910390a4505050565b600081600001549050919050565b6118ca828260405180602001604052806000815250611eb5565b5050565b6001816000016000828254019250508190555050565b6000600a60009054906101000a900473ffffffffffffffffffffffffffffffffffffffff16905081600a60006101000a81548173ffffffffffffffffffffffffffffffffffffffff021916908373ffffffffffffffffffffffffffffffffffffffff1602179055508173ffffffffffffffffffffffffffffffffffffffff168173ffffffffffffffffffffffffffffffffffffffff167f8be0079c531659141344cd1fd0a4f28419497f9722a3daafe3b4186f6b6457e060405160405180910390a35050565b8173ffffffffffffffffffffffffffffffffffffffff168373ffffffffffffffffffffffffffffffffffffffff161415611a19576040517f08c379a0000000000000000000000000000000000000000000000000000000008152600401611a109061335f565b60405180910390fd5b80600560008573ffffffffffffffffffffffffffffffffffffffff1673ffffffffffffffffffffffffffffffffffffffff16815260200190815260200160002060008473ffffffffffffffffffffffffffffffffffffffff1673ffffffffffffffffffffffffffffffffffffffff16815260200190815260200160002060006101000a81548160ff0219169083151502179055508173ffffffffffffffffffffffffffffffffffffffff168373ffffffffffffffffffffffffffffffffffffffff167f17307eab39ab6107e8899845ad3d59bd9653f200f220920489ca2b5937696c3183604051611b0a9190613262565b60405180910390a3505050565b611b22848484611646565b611b2e84848484611f10565b611b6d576040517f08c379a0000000000000000000000000000000000000000000000000000000008152600401611b64906132bf565b60405180910390fd5b50505050565b606060405180602001604052806000815250905090565b60606000821415611bd2576040518060400160405280600181526020017f30000000000000000000000000000000000000000000000000000000000000008152509050611d32565b600082905060005b60008214611c04578080611bed90613826565b915050600a82611bfd919061367f565b9150611bda565b60008167ffffffffffffffff811115611c46577f4e487b7100000000000000000000000000000000000000000000000000000000600052604160045260246000fd5b6040519080825280601f01601f191660200182016040528015611c785781602001600182028036833780820191505090505b5090505b60008514611d2b57600182611c91919061370a565b9150600a85611ca0919061386f565b6030611cac9190613629565b60f81b818381518110611ce8577f4e487b7100000000000000000000000000000000000000000000000000000000600052603260045260246000fd5b60200101907effffffffffffffffffffffffffffffffffffffffffffffffffffffffffffff1916908160001a905350600a85611d24919061367f565b9450611c7c565b8093505050505b919050565b60007f01ffc9a7000000000000000000000000000000000000000000000000000000007bffffffffffffffffffffffffffffffffffffffffffffffffffffffff1916827bffffffffffffffffffffffffffffffffffffffffffffffffffffffff1916149050919050565b611dac8383836120a7565b600073ffffffffffffffffffffffffffffffffffffffff168373ffffffffffffffffffffffffffffffffffffffff161415611def57611dea816120ac565b611e2e565b8173ffffffffffffffffffffffffffffffffffffffff168373ffffffffffffffffffffffffffffffffffffffff1614611e2d57611e2c83826120f5565b5b5b600073ffffffffffffffffffffffffffffffffffffffff168273ffffffffffffffffffffffffffffffffffffffff161415611e7157611e6c81612262565b611eb0565b8273ffffffffffffffffffffffffffffffffffffffff168273ffffffffffffffffffffffffffffffffffffffff1614611eaf57611eae82826123a5565b5b5b505050565b611ebf8383612424565b611ecc6000848484611f10565b611f0b576040517f08c379a0000000000000000000000000000000000000000000000000000000008152600401611f02906132bf565b60405180910390fd5b505050565b6000611f318473ffffffffffffffffffffffffffffffffffffffff166125f2565b1561209a578373ffffffffffffffffffffffffffffffffffffffff1663150b7a02611f5a6114a7565b8786866040518563ffffffff1660e01b8152600401611f7c9493929190613216565b602060405180830381600087803b158015611f9657600080fd5b505af1925050508015611fc757506040513d601f19601f82011682018060405250810190611fc491906128a6565b60015b61204a573d8060008114611ff7576040519150601f19603f3d011682016040523d82523d6000602084013e611ffc565b606091505b50600081511415612042576040517f08c379a0000000000000000000000000000000000000000000000000000000008152600401612039906132bf565b60405180910390fd5b805181602001fd5b63150b7a0260e01b7bffffffffffffffffffffffffffffffffffffffffffffffffffffffff1916817bffffffffffffffffffffffffffffffffffffffffffffffffffffffff19161491505061209f565b600190505b949350505050565b505050565b6008805490506009600083815260200190815260200160002081905550600881908060018154018082558091505060019003906000526020600020016000909190919091505550565b6000600161210284610e44565b61210c919061370a565b90506000600760008481526020019081526020016000205490508181146121f1576000600660008673ffffffffffffffffffffffffffffffffffffffff1673ffffffffffffffffffffffffffffffffffffffff168152602001908152602001600020600084815260200190815260200160002054905080600660008773ffffffffffffffffffffffffffffffffffffffff1673ffffffffffffffffffffffffffffffffffffffff168152602001908152602001600020600084815260200190815260200160002081905550816007600083815260200190815260200160002081905550505b6007600084815260200190815260200160002060009055600660008573ffffffffffffffffffffffffffffffffffffffff1673ffffffffffffffffffffffffffffffffffffffff16815260200190815260200160002060008381526020019081526020016000206000905550505050565b60006001600880549050612276919061370a565b90506000600960008481526020019081526020016000205490506000600883815481106122cc577f4e487b7100000000000000000000000000000000000000000000000000000000600052603260045260246000fd5b906000526020600020015490508060088381548110612314577f4e487b7100000000000000000000000000000000000000000000000000000000600052603260045260246000fd5b906000526020600020018190555081600960008381526020019081526020016000208190555060096000858152602001908152602001600020600090556008805480612389577f4e487b7100000000000000000000000000000000000000000000000000000000600052603160045260246000fd5b6001900381819060005260206000200160009055905550505050565b60006123b083610e44565b905081600660008573ffffffffffffffffffffffffffffffffffffffff1673ffffffffffffffffffffffffffffffffffffffff168152602001908152602001600020600083815260200190815260200160002081905550806007600084815260200190815260200160002081905550505050565b600073ffffffffffffffffffffffffffffffffffffffff168273ffffffffffffffffffffffffffffffffffffffff161415612494576040517f08c379a000000000000000000000000000000000000000000000000000000000815260040161248b9061341f565b60405180910390fd5b61249d8161143b565b156124dd576040517f08c379a00000000000000000000000000000000000000000000000000000000081526004016124d49061331f565b60405180910390fd5b6124e960008383611da1565b6001600360008473ffffffffffffffffffffffffffffffffffffffff1673ffffffffffffffffffffffffffffffffffffffff16815260200190815260200160002060008282546125399190613629565b92505081905550816002600083815260200190815260200160002060006101000a81548173ffffffffffffffffffffffffffffffffffffffff021916908373ffffffffffffffffffffffffffffffffffffffff160217905550808273ffffffffffffffffffffffffffffffffffffffff16600073ffffffffffffffffffffffffffffffffffffffff167fddf252ad1be2c89b69c2b068fc378daa952ba7f163c4a11628f55a4df523b3ef60405160405180910390a45050565b600080823b905060008111915050919050565b6000612618612613846135ab565b61357a565b90508281526020810184848401111561263057600080fd5b61263b8482856137b2565b509392505050565b6000813590506126528161396d565b92915050565b60008135905061266781613984565b92915050565b60008135905061267c8161399b565b92915050565b6000815190506126918161399b565b92915050565b600082601f8301126126a857600080fd5b81356126b8848260208601612605565b91505092915050565b6000813590506126d0816139b2565b92915050565b6000602082840312156126e857600080fd5b60006126f684828501612643565b91505092915050565b6000806040838503121561271257600080fd5b600061272085828601612643565b925050602061273185828601612643565b9150509250929050565b60008060006060848603121561275057600080fd5b600061275e86828701612643565b935050602061276f86828701612643565b9250506040612780868287016126c1565b9150509250925092565b600080600080608085870312156127a057600080fd5b60006127ae87828801612643565b94505060206127bf87828801612643565b93505060406127d0878288016126c1565b925050606085013567ffffffffffffffff8111156127ed57600080fd5b6127f987828801612697565b91505092959194509250565b6000806040838503121561281857600080fd5b600061282685828601612643565b925050602061283785828601612658565b9150509250929050565b6000806040838503121561285457600080fd5b600061286285828601612643565b9250506020612873858286016126c1565b9150509250929050565b60006020828403121561288f57600080fd5b600061289d8482850161266d565b91505092915050565b6000602082840312156128b857600080fd5b60006128c684828501612682565b91505092915050565b6000602082840312156128e157600080fd5b60006128ef848285016126c1565b91505092915050565b6129018161373e565b82525050565b61291081613750565b82525050565b6000612921826135db565b61292b81856135f1565b935061293b8185602086016137c1565b6129448161395c565b840191505092915050565b600061295a826135e6565b612964818561360d565b93506129748185602086016137c1565b61297d8161395c565b840191505092915050565b6000612993826135e6565b61299d818561361e565b93506129ad8185602086016137c1565b80840191505092915050565b60006129c6602b8361360d565b91507f455243373231456e756d657261626c653a206f776e657220696e646578206f7560008301527f74206f6620626f756e64730000000000000000000000000000000000000000006020830152604082019050919050565b6000612a2c60328361360d565b91507f4552433732313a207472616e7366657220746f206e6f6e20455243373231526560008301527f63656976657220696d706c656d656e74657200000000000000000000000000006020830152604082019050919050565b6000612a9260268361360d565b91507f4f776e61626c653a206e6577206f776e657220697320746865207a65726f206160008301527f64647265737300000000000000000000000000000000000000000000000000006020830152604082019050919050565b6000612af860248361360d565b91507f596f7520617265206e6f7420746865206f776e6572206f66207468697320746f60008301527f6b656e2e000000000000000000000000000000000000000000000000000000006020830152604082019050919050565b6000612b5e601c8361360d565b91507f4552433732313a20746f6b656e20616c7265616479206d696e746564000000006000830152602082019050919050565b6000612b9e60248361360d565b91507f4552433732313a207472616e7366657220746f20746865207a65726f2061646460008301527f72657373000000000000000000000000000000000000000000000000000000006020830152604082019050919050565b6000612c0460198361360d565b91507f4552433732313a20617070726f766520746f2063616c6c6572000000000000006000830152602082019050919050565b6000612c44602c8361360d565b91507f4552433732313a206f70657261746f7220717565727920666f72206e6f6e657860008301527f697374656e7420746f6b656e00000000000000000000000000000000000000006020830152604082019050919050565b6000612caa60388361360d565b91507f4552433732313a20617070726f76652063616c6c6572206973206e6f74206f7760008301527f6e6572206e6f7220617070726f76656420666f7220616c6c00000000000000006020830152604082019050919050565b6000612d10602a8361360d565b91507f4552433732313a2062616c616e636520717565727920666f7220746865207a6560008301527f726f2061646472657373000000000000000000000000000000000000000000006020830152604082019050919050565b6000612d7660298361360d565b91507f4552433732313a206f776e657220717565727920666f72206e6f6e657869737460008301527f656e7420746f6b656e00000000000000000000000000000000000000000000006020830152604082019050919050565b6000612ddc60168361360d565b91507f596f7520646f6e74206465736572766520736869742e000000000000000000006000830152602082019050919050565b6000612e1c60208361360d565b91507f4552433732313a206d696e7420746f20746865207a65726f20616464726573736000830152602082019050919050565b6000612e5c602c8361360d565b91507f4552433732313a20617070726f76656420717565727920666f72206e6f6e657860008301527f697374656e7420746f6b656e00000000000000000000000000000000000000006020830152604082019050919050565b6000612ec260208361360d565b91507f4f776e61626c653a2063616c6c6572206973206e6f7420746865206f776e65726000830152602082019050919050565b6000612f0260298361360d565b91507f4552433732313a207472616e73666572206f6620746f6b656e2074686174206960008301527f73206e6f74206f776e00000000000000000000000000000000000000000000006020830152604082019050919050565b6000612f68602f8361360d565b91507f4552433732314d657461646174613a2055524920717565727920666f72206e6f60008301527f6e6578697374656e7420746f6b656e00000000000000000000000000000000006020830152604082019050919050565b6000612fce60218361360d565b91507f4552433732313a20617070726f76616c20746f2063757272656e74206f776e6560008301527f72000000000000000000000000000000000000000000000000000000000000006020830152604082019050919050565b600061303460318361360d565b91507f4552433732313a207472616e736665722063616c6c6572206973206e6f74206f60008301527f776e6572206e6f7220617070726f7665640000000000000000000000000000006020830152604082019050919050565b600061309a602c8361360d565b91507f455243373231456e756d657261626c653a20676c6f62616c20696e646578206f60008301527f7574206f6620626f756e647300000000000000000000000000000000000000006020830152604082019050919050565b6000613100601e8361360d565b91507f416d6f756e742073686f756c6420626520626967676572207468616e203000006000830152602082019050919050565b6000613140600c8361360d565b91507f436c61696d206661696c656400000000000000000000000000000000000000006000830152602082019050919050565b6000613180600783613602565b91507f42652072696368000000000000000000000000000000000000000000000000006000830152600782019050919050565b6131bc816137a8565b82525050565b60006131ce8285612988565b91506131da8284612988565b91508190509392505050565b60006131f182613173565b9150819050919050565b600060208201905061321060008301846128f8565b92915050565b600060808201905061322b60008301876128f8565b61323860208301866128f8565b61324560408301856131b3565b81810360608301526132578184612916565b905095945050505050565b60006020820190506132776000830184612907565b92915050565b60006020820190508181036000830152613297818461294f565b905092915050565b600060208201905081810360008301526132b8816129b9565b9050919050565b600060208201905081810360008301526132d881612a1f565b9050919050565b600060208201905081810360008301526132f881612a85565b9050919050565b6000602082019050818103600083015261331881612aeb565b9050919050565b6000602082019050818103600083015261333881612b51565b9050919050565b6000602082019050818103600083015261335881612b91565b9050919050565b6000602082019050818103600083015261337881612bf7565b9050919050565b6000602082019050818103600083015261339881612c37565b9050919050565b600060208201905081810360008301526133b881612c9d565b9050919050565b600060208201905081810360008301526133d881612d03565b9050919050565b600060208201905081810360008301526133f881612d69565b9050919050565b6000602082019050818103600083015261341881612dcf565b9050919050565b6000602082019050818103600083015261343881612e0f565b9050919050565b6000602082019050818103600083015261345881612e4f565b9050919050565b6000602082019050818103600083015261347881612eb5565b9050919050565b6000602082019050818103600083015261349881612ef5565b9050919050565b600060208201905081810360008301526134b881612f5b565b9050919050565b600060208201905081810360008301526134d881612fc1565b9050919050565b600060208201905081810360008301526134f881613027565b9050919050565b600060208201905081810360008301526135188161308d565b9050919050565b60006020820190508181036000830152613538816130f3565b9050919050565b6000602082019050818103600083015261355881613133565b9050919050565b600060208201905061357460008301846131b3565b92915050565b6000604051905081810181811067ffffffffffffffff821117156135a1576135a061392d565b5b8060405250919050565b600067ffffffffffffffff8211156135c6576135c561392d565b5b601f19601f8301169050602081019050919050565b600081519050919050565b600081519050919050565b600082825260208201905092915050565b600081905092915050565b600082825260208201905092915050565b600081905092915050565b6000613634826137a8565b915061363f836137a8565b9250827fffffffffffffffffffffffffffffffffffffffffffffffffffffffffffffffff03821115613674576136736138a0565b5b828201905092915050565b600061368a826137a8565b9150613695836137a8565b9250826136a5576136a46138cf565b5b828204905092915050565b60006136bb826137a8565b91506136c6836137a8565b9250817fffffffffffffffffffffffffffffffffffffffffffffffffffffffffffffffff04831182151516156136ff576136fe6138a0565b5b828202905092915050565b6000613715826137a8565b9150613720836137a8565b925082821015613733576137326138a0565b5b828203905092915050565b600061374982613788565b9050919050565b60008115159050919050565b60007fffffffff0000000000000000000000000000000000000000000000000000000082169050919050565b600073ffffffffffffffffffffffffffffffffffffffff82169050919050565b6000819050919050565b82818337600083830152505050565b60005b838110156137df5780820151818401526020810190506137c4565b838111156137ee576000848401525b50505050565b6000600282049050600182168061380c57607f821691505b602082108114156138205761381f6138fe565b5b50919050565b6000613831826137a8565b91507fffffffffffffffffffffffffffffffffffffffffffffffffffffffffffffffff821415613864576138636138a0565b5b600182019050919050565b600061387a826137a8565b9150613885836137a8565b925082613895576138946138cf565b5b828206905092915050565b7f4e487b7100000000000000000000000000000000000000000000000000000000600052601160045260246000fd5b7f4e487b7100000000000000000000000000000000000000000000000000000000600052601260045260246000fd5b7f4e487b7100000000000000000000000000000000000000000000000000000000600052602260045260246000fd5b7f4e487b7100000000000000000000000000000000000000000000000000000000600052604160045260246000fd5b6000601f19601f8301169050919050565b6139768161373e565b811461398157600080fd5b50565b61398d81613750565b811461399857600080fd5b50565b6139a48161375c565b81146139af57600080fd5b50565b6139bb816137a8565b81146139c657600080fd5b5056fea2646970667358221220a51339597e041d9e1d3772b39770b26ffbf32cffb99d6bf8fe9a0727551b815364736f6c63430008000033",
  "linkReferences": {},
  "deployedLinkReferences": {}
}