{
  "_format": "hh-sol-artifact-1",
  "contractName": "Playground",
  "sourceName": "contracts/Playground.sol",
  "abi": [
    {
      "inputs": [
        {
          "internalType": "string",
          "name": "_name",
          "type": "string"
        },
        {
          "internalType": "string",
          "name": "_symbol",
          "type": "string"
        },
        {
          "internalType": "address[]",
          "name": "shareholders",
          "type": "address[]"
        },
        {
          "internalType": "uint256[]",
          "name": "shareAmounts",
          "type": "uint256[]"
        }
      ],
      "stateMutability": "nonpayable",
      "type": "constructor"
    },
    {
      "anonymous": false,
      "inputs": [
        {
          "indexed": true,
          "internalType": "address",
          "name": "owner",
          "type": "address"
        },
        {
          "indexed": true,
          "internalType": "address",
          "name": "approved",
          "type": "address"
        },
        {
          "indexed": true,
          "internalType": "uint256",
          "name": "tokenId",
          "type": "uint256"
        }
      ],
      "name": "Approval",
      "type": "event"
    },
    {
      "anonymous": false,
      "inputs": [
        {
          "indexed": true,
          "internalType": "address",
          "name": "owner",
          "type": "address"
        },
        {
          "indexed": true,
          "internalType": "address",
          "name": "operator",
          "type": "address"
        },
        {
          "indexed": false,
          "internalType": "bool",
          "name": "approved",
          "type": "bool"
        }
      ],
      "name": "ApprovalForAll",
      "type": "event"
    },
    {
      "anonymous": false,
      "inputs": [
        {
          "indexed": false,
          "internalType": "address",
          "name": "shareHolder",
          "type": "address"
        },
        {
          "indexed": false,
          "internalType": "uint256",
          "name": "amountClaimed",
          "type": "uint256"
        }
      ],
      "name": "Claim",
      "type": "event"
    },
    {
      "anonymous": false,
      "inputs": [
        {
          "indexed": false,
          "internalType": "uint256",
          "name": "_amount",
          "type": "uint256"
        }
      ],
      "name": "Deposit",
      "type": "event"
    },
    {
      "anonymous": false,
      "inputs": [
        {
          "indexed": false,
          "internalType": "address",
          "name": "_to",
          "type": "address"
        },
        {
          "indexed": false,
          "internalType": "uint256",
          "name": "_share",
          "type": "uint256"
        }
      ],
      "name": "Mint",
      "type": "event"
    },
    {
      "anonymous": false,
      "inputs": [
        {
          "indexed": true,
          "internalType": "address",
          "name": "previousOwner",
          "type": "address"
        },
        {
          "indexed": true,
          "internalType": "address",
          "name": "newOwner",
          "type": "address"
        }
      ],
      "name": "OwnershipTransferred",
      "type": "event"
    },
    {
      "anonymous": false,
      "inputs": [
        {
          "indexed": true,
          "internalType": "address",
          "name": "from",
          "type": "address"
        },
        {
          "indexed": true,
          "internalType": "address",
          "name": "to",
          "type": "address"
        },
        {
          "indexed": true,
          "internalType": "uint256",
          "name": "tokenId",
          "type": "uint256"
        }
      ],
      "name": "Transfer",
      "type": "event"
    },
    {
      "inputs": [],
      "name": "_tokenIds",
      "outputs": [
        {
          "internalType": "uint256",
          "name": "_value",
          "type": "uint256"
        }
      ],
      "stateMutability": "view",
      "type": "function"
    },
    {
      "inputs": [
        {
          "internalType": "address",
          "name": "to",
          "type": "address"
        },
        {
          "internalType": "uint256",
          "name": "tokenId",
          "type": "uint256"
        }
      ],
      "name": "approve",
      "outputs": [],
      "stateMutability": "nonpayable",
      "type": "function"
    },
    {
      "inputs": [
        {
          "internalType": "address",
          "name": "owner",
          "type": "address"
        }
      ],
      "name": "balanceOf",
      "outputs": [
        {
          "internalType": "uint256",
          "name": "",
          "type": "uint256"
        }
      ],
      "stateMutability": "view",
      "type": "function"
    },
    {
      "inputs": [
        {
          "internalType": "uint256",
          "name": "_tokenId",
          "type": "uint256"
        }
      ],
      "name": "claim",
      "outputs": [],
      "stateMutability": "nonpayable",
      "type": "function"
    },
    {
      "inputs": [
        {
          "internalType": "uint256",
          "name": "_tokenId",
          "type": "uint256"
        }
      ],
      "name": "claimedAmount",
      "outputs": [
        {
          "internalType": "uint256",
          "name": "",
          "type": "uint256"
        }
      ],
      "stateMutability": "view",
      "type": "function"
    },
    {
      "inputs": [],
      "name": "deposit",
      "outputs": [],
      "stateMutability": "payable",
      "type": "function"
    },
    {
      "inputs": [
        {
          "internalType": "uint256",
          "name": "tokenId",
          "type": "uint256"
        }
      ],
      "name": "getApproved",
      "outputs": [
        {
          "internalType": "address",
          "name": "",
          "type": "address"
        }
      ],
      "stateMutability": "view",
      "type": "function"
    },
    {
      "inputs": [
        {
          "internalType": "address",
          "name": "owner",
          "type": "address"
        },
        {
          "internalType": "address",
          "name": "operator",
          "type": "address"
        }
      ],
      "name": "isApprovedForAll",
      "outputs": [
        {
          "internalType": "bool",
          "name": "",
          "type": "bool"
        }
      ],
      "stateMutability": "view",
      "type": "function"
    },
    {
      "inputs": [],
      "name": "name",
      "outputs": [
        {
          "internalType": "string",
          "name": "",
          "type": "string"
        }
      ],
      "stateMutability": "view",
      "type": "function"
    },
    {
      "inputs": [],
      "name": "owner",
      "outputs": [
        {
          "internalType": "address",
          "name": "",
          "type": "address"
        }
      ],
      "stateMutability": "view",
      "type": "function"
    },
    {
      "inputs": [
        {
          "internalType": "uint256",
          "name": "tokenId",
          "type": "uint256"
        }
      ],
      "name": "ownerOf",
      "outputs": [
        {
          "internalType": "address",
          "name": "",
          "type": "address"
        }
      ],
      "stateMutability": "view",
      "type": "function"
    },
    {
      "inputs": [],
      "name": "renounceOwnership",
      "outputs": [],
      "stateMutability": "nonpayable",
      "type": "function"
    },
    {
      "inputs": [
        {
          "internalType": "address",
          "name": "from",
          "type": "address"
        },
        {
          "internalType": "address",
          "name": "to",
          "type": "address"
        },
        {
          "internalType": "uint256",
          "name": "tokenId",
          "type": "uint256"
        }
      ],
      "name": "safeTransferFrom",
      "outputs": [],
      "stateMutability": "nonpayable",
      "type": "function"
    },
    {
      "inputs": [
        {
          "internalType": "address",
          "name": "from",
          "type": "address"
        },
        {
          "internalType": "address",
          "name": "to",
          "type": "address"
        },
        {
          "internalType": "uint256",
          "name": "tokenId",
          "type": "uint256"
        },
        {
          "internalType": "bytes",
          "name": "_data",
          "type": "bytes"
        }
      ],
      "name": "safeTransferFrom",
      "outputs": [],
      "stateMutability": "nonpayable",
      "type": "function"
    },
    {
      "inputs": [
        {
          "internalType": "address",
          "name": "operator",
          "type": "address"
        },
        {
          "internalType": "bool",
          "name": "approved",
          "type": "bool"
        }
      ],
      "name": "setApprovalForAll",
      "outputs": [],
      "stateMutability": "nonpayable",
      "type": "function"
    },
    {
      "inputs": [
        {
          "internalType": "uint256",
          "name": "",
          "type": "uint256"
        }
      ],
      "name": "shares",
      "outputs": [
        {
          "internalType": "uint256",
          "name": "",
          "type": "uint256"
        }
      ],
      "stateMutability": "view",
      "type": "function"
    },
    {
      "inputs": [
        {
          "internalType": "bytes4",
          "name": "interfaceId",
          "type": "bytes4"
        }
      ],
      "name": "supportsInterface",
      "outputs": [
        {
          "internalType": "bool",
          "name": "",
          "type": "bool"
        }
      ],
      "stateMutability": "view",
      "type": "function"
    },
    {
      "inputs": [],
      "name": "symbol",
      "outputs": [
        {
          "internalType": "string",
          "name": "",
          "type": "string"
        }
      ],
      "stateMutability": "view",
      "type": "function"
    },
    {
      "inputs": [
        {
          "internalType": "uint256",
          "name": "index",
          "type": "uint256"
        }
      ],
      "name": "tokenByIndex",
      "outputs": [
        {
          "internalType": "uint256",
          "name": "",
          "type": "uint256"
        }
      ],
      "stateMutability": "view",
      "type": "function"
    },
    {
      "inputs": [
        {
          "internalType": "address",
          "name": "owner",
          "type": "address"
        },
        {
          "internalType": "uint256",
          "name": "index",
          "type": "uint256"
        }
      ],
      "name": "tokenOfOwnerByIndex",
      "outputs": [
        {
          "internalType": "uint256",
          "name": "",
          "type": "uint256"
        }
      ],
      "stateMutability": "view",
      "type": "function"
    },
    {
      "inputs": [
        {
          "internalType": "uint256",
          "name": "tokenId",
          "type": "uint256"
        }
      ],
      "name": "tokenURI",
      "outputs": [
        {
          "internalType": "string",
          "name": "",
          "type": "string"
        }
      ],
      "stateMutability": "view",
      "type": "function"
    },
    {
      "inputs": [],
      "name": "totalDepositedAmount",
      "outputs": [
        {
          "internalType": "uint256",
          "name": "",
          "type": "uint256"
        }
      ],
      "stateMutability": "view",
      "type": "function"
    },
    {
      "inputs": [],
      "name": "totalSupply",
      "outputs": [
        {
          "internalType": "uint256",
          "name": "",
          "type": "uint256"
        }
      ],
      "stateMutability": "view",
      "type": "function"
    },
    {
      "inputs": [
        {
          "internalType": "address",
          "name": "from",
          "type": "address"
        },
        {
          "internalType": "address",
          "name": "to",
          "type": "address"
        },
        {
          "internalType": "uint256",
          "name": "tokenId",
          "type": "uint256"
        }
      ],
      "name": "transferFrom",
      "outputs": [],
      "stateMutability": "nonpayable",
      "type": "function"
    },
    {
      "inputs": [
        {
          "internalType": "address",
          "name": "newOwner",
          "type": "address"
        }
      ],
      "name": "transferOwnership",
      "outputs": [],
      "stateMutability": "nonpayable",
      "type": "function"
    }
  ],
  "bytecode": "0x60806040523480156200001157600080fd5b50604051620052b4380380620052b4833981810160405281019062000037919062001254565b838381600090805190602001906200005192919062000f7d565b5080600190805190602001906200006a92919062000f7d565b5050506200008d62000081620002db60201b60201c565b620002e360201b60201c565b8051825114620000d4576040517f08c379a0000000000000000000000000000000000000000000000000000000008152600401620000cb9062001756565b60405180910390fd5b6000805b8251811015620001d05760008382815181106200011e577f4e487b7100000000000000000000000000000000000000000000000000000000600052603260045260246000fd5b60200260200101511162000169576040517f08c379a0000000000000000000000000000000000000000000000000000000008152600401620001609062001778565b60405180910390fd5b828181518110620001a3577f4e487b7100000000000000000000000000000000000000000000000000000000600052603260045260246000fd5b602002602001015182620001b891906200188c565b91508080620001c790620019fa565b915050620000d8565b506064811462000217576040517f08c379a00000000000000000000000000000000000000000000000000000000081526004016200020e90620016ce565b60405180910390fd5b60005b8351811015620002cf57620002b884828151811062000262577f4e487b7100000000000000000000000000000000000000000000000000000000600052603260045260246000fd5b6020026020010151848381518110620002a4577f4e487b7100000000000000000000000000000000000000000000000000000000600052603260045260246000fd5b6020026020010151620003a960201b60201c565b508080620002c690620019fa565b9150506200021a565b50505050505062001b34565b600033905090565b6000600a60009054906101000a900473ffffffffffffffffffffffffffffffffffffffff16905081600a60006101000a81548173ffffffffffffffffffffffffffffffffffffffff021916908373ffffffffffffffffffffffffffffffffffffffff1602179055508173ffffffffffffffffffffffffffffffffffffffff168173ffffffffffffffffffffffffffffffffffffffff167f8be0079c531659141344cd1fd0a4f28419497f9722a3daafe3b4186f6b6457e060405160405180910390a35050565b6000620003bb620002db60201b60201c565b73ffffffffffffffffffffffffffffffffffffffff16620003e1620004db60201b60201c565b73ffffffffffffffffffffffffffffffffffffffff16146200043a576040517f08c379a0000000000000000000000000000000000000000000000000000000008152600401620004319062001734565b60405180910390fd5b600062000453600b6200050560201b620013821760201c565b90506200046784826200051360201b60201c565b82600c60008381526020019081526020016000208190555062000496600b6200053960201b620013901760201c565b7f0f6798a560793a54c3bcfe86a93cde1e73087d944c0ea20544137d41213968858484604051620004c99291906200165d565b60405180910390a18091505092915050565b6000600a60009054906101000a900473ffffffffffffffffffffffffffffffffffffffff16905090565b600081600001549050919050565b620005358282604051806020016040528060008152506200054f60201b60201c565b5050565b6001816000016000828254019250508190555050565b620005618383620005bd60201b60201c565b620005766000848484620007a360201b60201c565b620005b8576040517f08c379a0000000000000000000000000000000000000000000000000000000008152600401620005af906200168a565b60405180910390fd5b505050565b600073ffffffffffffffffffffffffffffffffffffffff168273ffffffffffffffffffffffffffffffffffffffff16141562000630576040517f08c379a0000000000000000000000000000000000000000000000000000000008152600401620006279062001712565b60405180910390fd5b62000641816200095d60201b60201c565b1562000684576040517f08c379a00000000000000000000000000000000000000000000000000000000081526004016200067b90620016ac565b60405180910390fd5b6200069860008383620009c960201b60201c565b6001600360008473ffffffffffffffffffffffffffffffffffffffff1673ffffffffffffffffffffffffffffffffffffffff1681526020019081526020016000206000828254620006ea91906200188c565b92505081905550816002600083815260200190815260200160002060006101000a81548173ffffffffffffffffffffffffffffffffffffffff021916908373ffffffffffffffffffffffffffffffffffffffff160217905550808273ffffffffffffffffffffffffffffffffffffffff16600073ffffffffffffffffffffffffffffffffffffffff167fddf252ad1be2c89b69c2b068fc378daa952ba7f163c4a11628f55a4df523b3ef60405160405180910390a45050565b6000620007d18473ffffffffffffffffffffffffffffffffffffffff1662000b1060201b620013a61760201c565b1562000950578373ffffffffffffffffffffffffffffffffffffffff1663150b7a0262000803620002db60201b60201c565b8786866040518563ffffffff1660e01b815260040162000827949392919062001609565b602060405180830381600087803b1580156200084257600080fd5b505af19250505080156200087657506040513d601f19601f8201168201806040525081019062000873919062001228565b60015b620008ff573d8060008114620008a9576040519150601f19603f3d011682016040523d82523d6000602084013e620008ae565b606091505b50600081511415620008f7576040517f08c379a0000000000000000000000000000000000000000000000000000000008152600401620008ee906200168a565b60405180910390fd5b805181602001fd5b63150b7a0260e01b7bffffffffffffffffffffffffffffffffffffffffffffffffffffffff1916817bffffffffffffffffffffffffffffffffffffffffffffffffffffffff19161491505062000955565b600190505b949350505050565b60008073ffffffffffffffffffffffffffffffffffffffff166002600084815260200190815260200160002060009054906101000a900473ffffffffffffffffffffffffffffffffffffffff1673ffffffffffffffffffffffffffffffffffffffff1614159050919050565b620009e183838362000b2360201b620013b91760201c565b600073ffffffffffffffffffffffffffffffffffffffff168373ffffffffffffffffffffffffffffffffffffffff16141562000a2e5762000a288162000b2860201b60201c565b62000a76565b8173ffffffffffffffffffffffffffffffffffffffff168373ffffffffffffffffffffffffffffffffffffffff161462000a755762000a74838262000b7160201b60201c565b5b5b600073ffffffffffffffffffffffffffffffffffffffff168273ffffffffffffffffffffffffffffffffffffffff16141562000ac35762000abd8162000cee60201b60201c565b62000b0b565b8273ffffffffffffffffffffffffffffffffffffffff168273ffffffffffffffffffffffffffffffffffffffff161462000b0a5762000b09828262000e3660201b60201c565b5b5b505050565b600080823b905060008111915050919050565b505050565b6008805490506009600083815260200190815260200160002081905550600881908060018154018082558091505060019003906000526020600020016000909190919091505550565b6000600162000b8b8462000ec260201b62000e7d1760201c565b62000b979190620018e9565b905060006007600084815260200190815260200160002054905081811462000c7d576000600660008673ffffffffffffffffffffffffffffffffffffffff1673ffffffffffffffffffffffffffffffffffffffff168152602001908152602001600020600084815260200190815260200160002054905080600660008773ffffffffffffffffffffffffffffffffffffffff1673ffffffffffffffffffffffffffffffffffffffff168152602001908152602001600020600084815260200190815260200160002081905550816007600083815260200190815260200160002081905550505b6007600084815260200190815260200160002060009055600660008573ffffffffffffffffffffffffffffffffffffffff1673ffffffffffffffffffffffffffffffffffffffff16815260200190815260200160002060008381526020019081526020016000206000905550505050565b6000600160088054905062000d049190620018e9565b905060006009600084815260200190815260200160002054905060006008838154811062000d5b577f4e487b7100000000000000000000000000000000000000000000000000000000600052603260045260246000fd5b90600052602060002001549050806008838154811062000da4577f4e487b7100000000000000000000000000000000000000000000000000000000600052603260045260246000fd5b90600052602060002001819055508160096000838152602001908152602001600020819055506009600085815260200190815260200160002060009055600880548062000e1a577f4e487b7100000000000000000000000000000000000000000000000000000000600052603160045260246000fd5b6001900381819060005260206000200160009055905550505050565b600062000e4e8362000ec260201b62000e7d1760201c565b905081600660008573ffffffffffffffffffffffffffffffffffffffff1673ffffffffffffffffffffffffffffffffffffffff168152602001908152602001600020600083815260200190815260200160002081905550806007600084815260200190815260200160002081905550505050565b60008073ffffffffffffffffffffffffffffffffffffffff168273ffffffffffffffffffffffffffffffffffffffff16141562000f36576040517f08c379a000000000000000000000000000000000000000000000000000000000815260040162000f2d90620016f0565b60405180910390fd5b600360008373ffffffffffffffffffffffffffffffffffffffff1673ffffffffffffffffffffffffffffffffffffffff168152602001908152602001600020549050919050565b82805462000f8b90620019c4565b90600052602060002090601f01602090048101928262000faf576000855562000ffb565b82601f1062000fca57805160ff191683800117855562000ffb565b8280016001018555821562000ffb579182015b8281111562000ffa57825182559160200191906001019062000fdd565b5b5090506200100a91906200100e565b5090565b5b80821115620010295760008160009055506001016200100f565b5090565b6000620010446200103e84620017ce565b6200179a565b905080838252602082019050828560208602820111156200106457600080fd5b60005b858110156200109857816200107d88826200115c565b84526020840193506020830192505060018101905062001067565b5050509392505050565b6000620010b9620010b384620017fd565b6200179a565b90508083825260208201905082856020860282011115620010d957600080fd5b60005b858110156200110d5781620010f2888262001211565b845260208401935060208301925050600181019050620010dc565b5050509392505050565b60006200112e62001128846200182c565b6200179a565b9050828152602081018484840111156200114757600080fd5b620011548482856200198e565b509392505050565b6000815190506200116d8162001ae6565b92915050565b600082601f8301126200118557600080fd5b8151620011978482602086016200102d565b91505092915050565b600082601f830112620011b257600080fd5b8151620011c4848260208601620010a2565b91505092915050565b600081519050620011de8162001b00565b92915050565b600082601f830112620011f657600080fd5b81516200120884826020860162001117565b91505092915050565b600081519050620012228162001b1a565b92915050565b6000602082840312156200123b57600080fd5b60006200124b84828501620011cd565b91505092915050565b600080600080608085870312156200126b57600080fd5b600085015167ffffffffffffffff8111156200128657600080fd5b6200129487828801620011e4565b945050602085015167ffffffffffffffff811115620012b257600080fd5b620012c087828801620011e4565b935050604085015167ffffffffffffffff811115620012de57600080fd5b620012ec8782880162001173565b925050606085015167ffffffffffffffff8111156200130a57600080fd5b6200131887828801620011a0565b91505092959194509250565b6200132f8162001924565b82525050565b600062001342826200185f565b6200134e81856200186a565b9350620013608185602086016200198e565b6200136b8162001ad5565b840191505092915050565b6000620013856032836200187b565b91507f4552433732313a207472616e7366657220746f206e6f6e20455243373231526560008301527f63656976657220696d706c656d656e74657200000000000000000000000000006020830152604082019050919050565b6000620013ed601c836200187b565b91507f4552433732313a20746f6b656e20616c7265616479206d696e746564000000006000830152602082019050919050565b60006200142f601b836200187b565b91507f73756d206f66207368617265732073686f756c642062652031303000000000006000830152602082019050919050565b600062001471602a836200187b565b91507f4552433732313a2062616c616e636520717565727920666f7220746865207a6560008301527f726f2061646472657373000000000000000000000000000000000000000000006020830152604082019050919050565b6000620014d96020836200187b565b91507f4552433732313a206d696e7420746f20746865207a65726f20616464726573736000830152602082019050919050565b60006200151b6020836200187b565b91507f4f776e61626c653a2063616c6c6572206973206e6f7420746865206f776e65726000830152602082019050919050565b60006200155d603e836200187b565b91507f73697a65206f66207368617265686f6c64657220616e6420736861726520616d60008301527f6f756e742061727261792073686f756c64206265207468652073616d652e00006020830152604082019050919050565b6000620015c5601e836200187b565b91507f416d6f756e742073686f756c6420626520626967676572207468616e203000006000830152602082019050919050565b620016038162001984565b82525050565b600060808201905062001620600083018762001324565b6200162f602083018662001324565b6200163e6040830185620015f8565b818103606083015262001652818462001335565b905095945050505050565b600060408201905062001674600083018562001324565b620016836020830184620015f8565b9392505050565b60006020820190508181036000830152620016a58162001376565b9050919050565b60006020820190508181036000830152620016c781620013de565b9050919050565b60006020820190508181036000830152620016e98162001420565b9050919050565b600060208201905081810360008301526200170b8162001462565b9050919050565b600060208201905081810360008301526200172d81620014ca565b9050919050565b600060208201905081810360008301526200174f816200150c565b9050919050565b6000602082019050818103600083015262001771816200154e565b9050919050565b600060208201905081810360008301526200179381620015b6565b9050919050565b6000604051905081810181811067ffffffffffffffff82111715620017c457620017c362001aa6565b5b8060405250919050565b600067ffffffffffffffff821115620017ec57620017eb62001aa6565b5b602082029050602081019050919050565b600067ffffffffffffffff8211156200181b576200181a62001aa6565b5b602082029050602081019050919050565b600067ffffffffffffffff8211156200184a576200184962001aa6565b5b601f19601f8301169050602081019050919050565b600081519050919050565b600082825260208201905092915050565b600082825260208201905092915050565b6000620018998262001984565b9150620018a68362001984565b9250827fffffffffffffffffffffffffffffffffffffffffffffffffffffffffffffffff03821115620018de57620018dd62001a48565b5b828201905092915050565b6000620018f68262001984565b9150620019038362001984565b92508282101562001919576200191862001a48565b5b828203905092915050565b6000620019318262001964565b9050919050565b60007fffffffff0000000000000000000000000000000000000000000000000000000082169050919050565b600073ffffffffffffffffffffffffffffffffffffffff82169050919050565b6000819050919050565b60005b83811015620019ae57808201518184015260208101905062001991565b83811115620019be576000848401525b50505050565b60006002820490506001821680620019dd57607f821691505b60208210811415620019f457620019f362001a77565b5b50919050565b600062001a078262001984565b91507fffffffffffffffffffffffffffffffffffffffffffffffffffffffffffffffff82141562001a3d5762001a3c62001a48565b5b600182019050919050565b7f4e487b7100000000000000000000000000000000000000000000000000000000600052601160045260246000fd5b7f4e487b7100000000000000000000000000000000000000000000000000000000600052602260045260246000fd5b7f4e487b7100000000000000000000000000000000000000000000000000000000600052604160045260246000fd5b6000601f19601f8301169050919050565b62001af18162001924565b811462001afd57600080fd5b50565b62001b0b8162001938565b811462001b1757600080fd5b50565b62001b258162001984565b811462001b3157600080fd5b50565b6137708062001b446000396000f3fe60806040526004361061014b5760003560e01c80636352211e116100b6578063aa46a4001161006f578063aa46a400146104b6578063b88d4fde146104e1578063c87b56dd1461050a578063d0e30db014610547578063e985e9c514610551578063f2fde38b1461058e5761014b565b80636352211e146103a657806370a08231146103e3578063715018a6146104205780638da5cb5b1461043757806395d89b4114610462578063a22cb4651461048d5761014b565b806323b872dd1161010857806323b872dd146102745780632f745c591461029d578063379607f5146102da57806342842e0e146103035780634f6ccce71461032c57806357a858fc146103695761014b565b806301ffc9a71461015057806306fdde031461018d578063081812fc146101b8578063095ea7b3146101f5578063172958941461021e57806318160ddd14610249575b600080fd5b34801561015c57600080fd5b506101776004803603810190610172919061265f565b6105b7565b6040516101849190613013565b60405180910390f35b34801561019957600080fd5b506101a2610631565b6040516101af919061302e565b60405180910390f35b3480156101c457600080fd5b506101df60048036038101906101da91906126b1565b6106c3565b6040516101ec9190612f83565b60405180910390f35b34801561020157600080fd5b5061021c60048036038101906102179190612623565b610748565b005b34801561022a57600080fd5b50610233610860565b60405161024091906132d0565b60405180910390f35b34801561025557600080fd5b5061025e61091b565b60405161026b91906132d0565b60405180910390f35b34801561028057600080fd5b5061029b6004803603810190610296919061251d565b610928565b005b3480156102a957600080fd5b506102c460048036038101906102bf9190612623565b610988565b6040516102d191906132d0565b60405180910390f35b3480156102e657600080fd5b5061030160048036038101906102fc91906126b1565b610a2d565b005b34801561030f57600080fd5b5061032a6004803603810190610325919061251d565b610cfc565b005b34801561033857600080fd5b50610353600480360381019061034e91906126b1565b610d1c565b60405161036091906132d0565b60405180910390f35b34801561037557600080fd5b50610390600480360381019061038b91906126b1565b610db3565b60405161039d91906132d0565b60405180910390f35b3480156103b257600080fd5b506103cd60048036038101906103c891906126b1565b610dcb565b6040516103da9190612f83565b60405180910390f35b3480156103ef57600080fd5b5061040a600480360381019061040591906124b8565b610e7d565b60405161041791906132d0565b60405180910390f35b34801561042c57600080fd5b50610435610f35565b005b34801561044357600080fd5b5061044c610fbd565b6040516104599190612f83565b60405180910390f35b34801561046e57600080fd5b50610477610fe7565b604051610484919061302e565b60405180910390f35b34801561049957600080fd5b506104b460048036038101906104af91906125e7565b611079565b005b3480156104c257600080fd5b506104cb61108f565b6040516104d891906132d0565b60405180910390f35b3480156104ed57600080fd5b506105086004803603810190610503919061256c565b61109b565b005b34801561051657600080fd5b50610531600480360381019061052c91906126b1565b6110fd565b60405161053e919061302e565b60405180910390f35b61054f6111a4565b005b34801561055d57600080fd5b50610578600480360381019061057391906124e1565b6111f6565b6040516105859190613013565b60405180910390f35b34801561059a57600080fd5b506105b560048036038101906105b091906124b8565b61128a565b005b60007f780e9d63000000000000000000000000000000000000000000000000000000007bffffffffffffffffffffffffffffffffffffffffffffffffffffffff1916827bffffffffffffffffffffffffffffffffffffffffffffffffffffffff1916148061062a5750610629826113be565b5b9050919050565b60606000805461064090613565565b80601f016020809104026020016040519081016040528092919081815260200182805461066c90613565565b80156106b95780601f1061068e576101008083540402835291602001916106b9565b820191906000526020600020905b81548152906001019060200180831161069c57829003601f168201915b5050505050905090565b60006106ce826114a0565b61070d576040517f08c379a0000000000000000000000000000000000000000000000000000000008152600401610704906131d0565b60405180910390fd5b6004600083815260200190815260200160002060009054906101000a900473ffffffffffffffffffffffffffffffffffffffff169050919050565b600061075382610dcb565b90508073ffffffffffffffffffffffffffffffffffffffff168373ffffffffffffffffffffffffffffffffffffffff1614156107c4576040517f08c379a00000000000000000000000000000000000000000000000000000000081526004016107bb90613250565b60405180910390fd5b8073ffffffffffffffffffffffffffffffffffffffff166107e361150c565b73ffffffffffffffffffffffffffffffffffffffff16148061081257506108118161080c61150c565b6111f6565b5b610851576040517f08c379a000000000000000000000000000000000000000000000000000000000815260040161084890613150565b60405180910390fd5b61085b8383611514565b505050565b6000806000905060005b61087261091b565b8110156108d1573373ffffffffffffffffffffffffffffffffffffffff1661089982610dcb565b73ffffffffffffffffffffffffffffffffffffffff1614156108be57600191506108d1565b80806108c990613597565b91505061086a565b5080610912576040517f08c379a0000000000000000000000000000000000000000000000000000000008152600401610909906130b0565b60405180910390fd5b600e5491505090565b6000600880549050905090565b61093961093361150c565b826115cd565b610978576040517f08c379a000000000000000000000000000000000000000000000000000000000815260040161096f90613270565b60405180910390fd5b6109838383836116ab565b505050565b600061099383610e7d565b82106109d4576040517f08c379a00000000000000000000000000000000000000000000000000000000081526004016109cb90613050565b60405180910390fd5b600660008473ffffffffffffffffffffffffffffffffffffffff1673ffffffffffffffffffffffffffffffffffffffff168152602001908152602001600020600083815260200190815260200160002054905092915050565b6000805b610a3961091b565b811015610a98573373ffffffffffffffffffffffffffffffffffffffff16610a6082610dcb565b73ffffffffffffffffffffffffffffffffffffffff161415610a855760019150610a98565b8080610a9090613597565b915050610a31565b5080610ad9576040517f08c379a0000000000000000000000000000000000000000000000000000000008152600401610ad0906130b0565b60405180910390fd5b3373ffffffffffffffffffffffffffffffffffffffff16610af983610dcb565b73ffffffffffffffffffffffffffffffffffffffff1614610b4f576040517f08c379a0000000000000000000000000000000000000000000000000000000008152600401610b46906130d0565b60405180910390fd5b60006064600c600085815260200190815260200160002054600e54610b749190613421565b610b7e91906133f0565b90506000600d60008581526020019081526020016000205482610ba1919061347b565b905060008111610be6576040517f08c379a0000000000000000000000000000000000000000000000000000000008152600401610bdd906131b0565b60405180910390fd5b80600d60008681526020019081526020016000206000828254610c09919061339a565b9250508190555060003373ffffffffffffffffffffffffffffffffffffffff1682604051610c3690612f6e565b60006040518083038185875af1925050503d8060008114610c73576040519150601f19603f3d011682016040523d82523d6000602084013e610c78565b606091505b5050905080610cbc576040517f08c379a0000000000000000000000000000000000000000000000000000000008152600401610cb3906132b0565b60405180910390fd5b7f47cee97cb7acd717b3c0aa1435d004cd5b3c8c57d70dbceb4e4458bbd60e39d43383604051610ced929190612fea565b60405180910390a15050505050565b610d178383836040518060200160405280600081525061109b565b505050565b6000610d2661091b565b8210610d67576040517f08c379a0000000000000000000000000000000000000000000000000000000008152600401610d5e90613290565b60405180910390fd5b60088281548110610da1577f4e487b7100000000000000000000000000000000000000000000000000000000600052603260045260246000fd5b90600052602060002001549050919050565b600c6020528060005260406000206000915090505481565b6000806002600084815260200190815260200160002060009054906101000a900473ffffffffffffffffffffffffffffffffffffffff169050600073ffffffffffffffffffffffffffffffffffffffff168173ffffffffffffffffffffffffffffffffffffffff161415610e74576040517f08c379a0000000000000000000000000000000000000000000000000000000008152600401610e6b90613190565b60405180910390fd5b80915050919050565b60008073ffffffffffffffffffffffffffffffffffffffff168273ffffffffffffffffffffffffffffffffffffffff161415610eee576040517f08c379a0000000000000000000000000000000000000000000000000000000008152600401610ee590613170565b60405180910390fd5b600360008373ffffffffffffffffffffffffffffffffffffffff1673ffffffffffffffffffffffffffffffffffffffff168152602001908152602001600020549050919050565b610f3d61150c565b73ffffffffffffffffffffffffffffffffffffffff16610f5b610fbd565b73ffffffffffffffffffffffffffffffffffffffff1614610fb1576040517f08c379a0000000000000000000000000000000000000000000000000000000008152600401610fa8906131f0565b60405180910390fd5b610fbb6000611907565b565b6000600a60009054906101000a900473ffffffffffffffffffffffffffffffffffffffff16905090565b606060018054610ff690613565565b80601f016020809104026020016040519081016040528092919081815260200182805461102290613565565b801561106f5780601f106110445761010080835404028352916020019161106f565b820191906000526020600020905b81548152906001019060200180831161105257829003601f168201915b5050505050905090565b61108b61108461150c565b83836119cd565b5050565b600b8060000154905081565b6110ac6110a661150c565b836115cd565b6110eb576040517f08c379a00000000000000000000000000000000000000000000000000000000081526004016110e290613270565b60405180910390fd5b6110f784848484611b3a565b50505050565b6060611108826114a0565b611147576040517f08c379a000000000000000000000000000000000000000000000000000000000815260040161113e90613230565b60405180910390fd5b6000611151611b96565b90506000815111611171576040518060200160405280600081525061119c565b8061117b84611bad565b60405160200161118c929190612f4a565b6040516020818303038152906040525b915050919050565b34600e60008282546111b6919061339a565b925050819055507f4d6ce1e535dbade1c23defba91e23b8f791ce5edc0cc320257a2b364e4e38426346040516111ec91906132d0565b60405180910390a1565b6000600560008473ffffffffffffffffffffffffffffffffffffffff1673ffffffffffffffffffffffffffffffffffffffff16815260200190815260200160002060008373ffffffffffffffffffffffffffffffffffffffff1673ffffffffffffffffffffffffffffffffffffffff16815260200190815260200160002060009054906101000a900460ff16905092915050565b61129261150c565b73ffffffffffffffffffffffffffffffffffffffff166112b0610fbd565b73ffffffffffffffffffffffffffffffffffffffff1614611306576040517f08c379a00000000000000000000000000000000000000000000000000000000081526004016112fd906131f0565b60405180910390fd5b600073ffffffffffffffffffffffffffffffffffffffff168173ffffffffffffffffffffffffffffffffffffffff161415611376576040517f08c379a000000000000000000000000000000000000000000000000000000000815260040161136d90613090565b60405180910390fd5b61137f81611907565b50565b600081600001549050919050565b6001816000016000828254019250508190555050565b600080823b905060008111915050919050565b505050565b60007f80ac58cd000000000000000000000000000000000000000000000000000000007bffffffffffffffffffffffffffffffffffffffffffffffffffffffff1916827bffffffffffffffffffffffffffffffffffffffffffffffffffffffff1916148061148957507f5b5e139f000000000000000000000000000000000000000000000000000000007bffffffffffffffffffffffffffffffffffffffffffffffffffffffff1916827bffffffffffffffffffffffffffffffffffffffffffffffffffffffff1916145b80611499575061149882611d5a565b5b9050919050565b60008073ffffffffffffffffffffffffffffffffffffffff166002600084815260200190815260200160002060009054906101000a900473ffffffffffffffffffffffffffffffffffffffff1673ffffffffffffffffffffffffffffffffffffffff1614159050919050565b600033905090565b816004600083815260200190815260200160002060006101000a81548173ffffffffffffffffffffffffffffffffffffffff021916908373ffffffffffffffffffffffffffffffffffffffff160217905550808273ffffffffffffffffffffffffffffffffffffffff1661158783610dcb565b73ffffffffffffffffffffffffffffffffffffffff167f8c5be1e5ebec7d5bd14f71427d1e84f3dd0314c0f7b2291e5b200ac8c7c3b92560405160405180910390a45050565b60006115d8826114a0565b611617576040517f08c379a000000000000000000000000000000000000000000000000000000000815260040161160e90613130565b60405180910390fd5b600061162283610dcb565b90508073ffffffffffffffffffffffffffffffffffffffff168473ffffffffffffffffffffffffffffffffffffffff16148061169157508373ffffffffffffffffffffffffffffffffffffffff16611679846106c3565b73ffffffffffffffffffffffffffffffffffffffff16145b806116a257506116a181856111f6565b5b91505092915050565b8273ffffffffffffffffffffffffffffffffffffffff166116cb82610dcb565b73ffffffffffffffffffffffffffffffffffffffff1614611721576040517f08c379a000000000000000000000000000000000000000000000000000000000815260040161171890613210565b60405180910390fd5b600073ffffffffffffffffffffffffffffffffffffffff168273ffffffffffffffffffffffffffffffffffffffff161415611791576040517f08c379a0000000000000000000000000000000000000000000000000000000008152600401611788906130f0565b60405180910390fd5b61179c838383611dc4565b6117a7600082611514565b6001600360008573ffffffffffffffffffffffffffffffffffffffff1673ffffffffffffffffffffffffffffffffffffffff16815260200190815260200160002060008282546117f7919061347b565b925050819055506001600360008473ffffffffffffffffffffffffffffffffffffffff1673ffffffffffffffffffffffffffffffffffffffff168152602001908152602001600020600082825461184e919061339a565b92505081905550816002600083815260200190815260200160002060006101000a81548173ffffffffffffffffffffffffffffffffffffffff021916908373ffffffffffffffffffffffffffffffffffffffff160217905550808273ffffffffffffffffffffffffffffffffffffffff168473ffffffffffffffffffffffffffffffffffffffff167fddf252ad1be2c89b69c2b068fc378daa952ba7f163c4a11628f55a4df523b3ef60405160405180910390a4505050565b6000600a60009054906101000a900473ffffffffffffffffffffffffffffffffffffffff16905081600a60006101000a81548173ffffffffffffffffffffffffffffffffffffffff021916908373ffffffffffffffffffffffffffffffffffffffff1602179055508173ffffffffffffffffffffffffffffffffffffffff168173ffffffffffffffffffffffffffffffffffffffff167f8be0079c531659141344cd1fd0a4f28419497f9722a3daafe3b4186f6b6457e060405160405180910390a35050565b8173ffffffffffffffffffffffffffffffffffffffff168373ffffffffffffffffffffffffffffffffffffffff161415611a3c576040517f08c379a0000000000000000000000000000000000000000000000000000000008152600401611a3390613110565b60405180910390fd5b80600560008573ffffffffffffffffffffffffffffffffffffffff1673ffffffffffffffffffffffffffffffffffffffff16815260200190815260200160002060008473ffffffffffffffffffffffffffffffffffffffff1673ffffffffffffffffffffffffffffffffffffffff16815260200190815260200160002060006101000a81548160ff0219169083151502179055508173ffffffffffffffffffffffffffffffffffffffff168373ffffffffffffffffffffffffffffffffffffffff167f17307eab39ab6107e8899845ad3d59bd9653f200f220920489ca2b5937696c3183604051611b2d9190613013565b60405180910390a3505050565b611b458484846116ab565b611b5184848484611ed8565b611b90576040517f08c379a0000000000000000000000000000000000000000000000000000000008152600401611b8790613070565b60405180910390fd5b50505050565b606060405180602001604052806000815250905090565b60606000821415611bf5576040518060400160405280600181526020017f30000000000000000000000000000000000000000000000000000000000000008152509050611d55565b600082905060005b60008214611c27578080611c1090613597565b915050600a82611c2091906133f0565b9150611bfd565b60008167ffffffffffffffff811115611c69577f4e487b7100000000000000000000000000000000000000000000000000000000600052604160045260246000fd5b6040519080825280601f01601f191660200182016040528015611c9b5781602001600182028036833780820191505090505b5090505b60008514611d4e57600182611cb4919061347b565b9150600a85611cc391906135e0565b6030611ccf919061339a565b60f81b818381518110611d0b577f4e487b7100000000000000000000000000000000000000000000000000000000600052603260045260246000fd5b60200101907effffffffffffffffffffffffffffffffffffffffffffffffffffffffffffff1916908160001a905350600a85611d4791906133f0565b9450611c9f565b8093505050505b919050565b60007f01ffc9a7000000000000000000000000000000000000000000000000000000007bffffffffffffffffffffffffffffffffffffffffffffffffffffffff1916827bffffffffffffffffffffffffffffffffffffffffffffffffffffffff1916149050919050565b611dcf8383836113b9565b600073ffffffffffffffffffffffffffffffffffffffff168373ffffffffffffffffffffffffffffffffffffffff161415611e1257611e0d8161206f565b611e51565b8173ffffffffffffffffffffffffffffffffffffffff168373ffffffffffffffffffffffffffffffffffffffff1614611e5057611e4f83826120b8565b5b5b600073ffffffffffffffffffffffffffffffffffffffff168273ffffffffffffffffffffffffffffffffffffffff161415611e9457611e8f81612225565b611ed3565b8273ffffffffffffffffffffffffffffffffffffffff168273ffffffffffffffffffffffffffffffffffffffff1614611ed257611ed18282612368565b5b5b505050565b6000611ef98473ffffffffffffffffffffffffffffffffffffffff166113a6565b15612062578373ffffffffffffffffffffffffffffffffffffffff1663150b7a02611f2261150c565b8786866040518563ffffffff1660e01b8152600401611f449493929190612f9e565b602060405180830381600087803b158015611f5e57600080fd5b505af1925050508015611f8f57506040513d601f19601f82011682018060405250810190611f8c9190612688565b60015b612012573d8060008114611fbf576040519150601f19603f3d011682016040523d82523d6000602084013e611fc4565b606091505b5060008151141561200a576040517f08c379a000000000000000000000000000000000000000000000000000000000815260040161200190613070565b60405180910390fd5b805181602001fd5b63150b7a0260e01b7bffffffffffffffffffffffffffffffffffffffffffffffffffffffff1916817bffffffffffffffffffffffffffffffffffffffffffffffffffffffff191614915050612067565b600190505b949350505050565b6008805490506009600083815260200190815260200160002081905550600881908060018154018082558091505060019003906000526020600020016000909190919091505550565b600060016120c584610e7d565b6120cf919061347b565b90506000600760008481526020019081526020016000205490508181146121b4576000600660008673ffffffffffffffffffffffffffffffffffffffff1673ffffffffffffffffffffffffffffffffffffffff168152602001908152602001600020600084815260200190815260200160002054905080600660008773ffffffffffffffffffffffffffffffffffffffff1673ffffffffffffffffffffffffffffffffffffffff168152602001908152602001600020600084815260200190815260200160002081905550816007600083815260200190815260200160002081905550505b6007600084815260200190815260200160002060009055600660008573ffffffffffffffffffffffffffffffffffffffff1673ffffffffffffffffffffffffffffffffffffffff16815260200190815260200160002060008381526020019081526020016000206000905550505050565b60006001600880549050612239919061347b565b905060006009600084815260200190815260200160002054905060006008838154811061228f577f4e487b7100000000000000000000000000000000000000000000000000000000600052603260045260246000fd5b9060005260206000200154905080600883815481106122d7577f4e487b7100000000000000000000000000000000000000000000000000000000600052603260045260246000fd5b90600052602060002001819055508160096000838152602001908152602001600020819055506009600085815260200190815260200160002060009055600880548061234c577f4e487b7100000000000000000000000000000000000000000000000000000000600052603160045260246000fd5b6001900381819060005260206000200160009055905550505050565b600061237383610e7d565b905081600660008573ffffffffffffffffffffffffffffffffffffffff1673ffffffffffffffffffffffffffffffffffffffff168152602001908152602001600020600083815260200190815260200160002081905550806007600084815260200190815260200160002081905550505050565b60006123fa6123f58461331c565b6132eb565b90508281526020810184848401111561241257600080fd5b61241d848285613523565b509392505050565b600081359050612434816136de565b92915050565b600081359050612449816136f5565b92915050565b60008135905061245e8161370c565b92915050565b6000815190506124738161370c565b92915050565b600082601f83011261248a57600080fd5b813561249a8482602086016123e7565b91505092915050565b6000813590506124b281613723565b92915050565b6000602082840312156124ca57600080fd5b60006124d884828501612425565b91505092915050565b600080604083850312156124f457600080fd5b600061250285828601612425565b925050602061251385828601612425565b9150509250929050565b60008060006060848603121561253257600080fd5b600061254086828701612425565b935050602061255186828701612425565b9250506040612562868287016124a3565b9150509250925092565b6000806000806080858703121561258257600080fd5b600061259087828801612425565b94505060206125a187828801612425565b93505060406125b2878288016124a3565b925050606085013567ffffffffffffffff8111156125cf57600080fd5b6125db87828801612479565b91505092959194509250565b600080604083850312156125fa57600080fd5b600061260885828601612425565b92505060206126198582860161243a565b9150509250929050565b6000806040838503121561263657600080fd5b600061264485828601612425565b9250506020612655858286016124a3565b9150509250929050565b60006020828403121561267157600080fd5b600061267f8482850161244f565b91505092915050565b60006020828403121561269a57600080fd5b60006126a884828501612464565b91505092915050565b6000602082840312156126c357600080fd5b60006126d1848285016124a3565b91505092915050565b6126e3816134af565b82525050565b6126f2816134c1565b82525050565b60006127038261334c565b61270d8185613362565b935061271d818560208601613532565b612726816136cd565b840191505092915050565b600061273c82613357565b612746818561337e565b9350612756818560208601613532565b61275f816136cd565b840191505092915050565b600061277582613357565b61277f818561338f565b935061278f818560208601613532565b80840191505092915050565b60006127a8602b8361337e565b91507f455243373231456e756d657261626c653a206f776e657220696e646578206f7560008301527f74206f6620626f756e64730000000000000000000000000000000000000000006020830152604082019050919050565b600061280e60328361337e565b91507f4552433732313a207472616e7366657220746f206e6f6e20455243373231526560008301527f63656976657220696d706c656d656e74657200000000000000000000000000006020830152604082019050919050565b600061287460268361337e565b91507f4f776e61626c653a206e6577206f776e657220697320746865207a65726f206160008301527f64647265737300000000000000000000000000000000000000000000000000006020830152604082019050919050565b60006128da60358361337e565b91507f6f6e6c79207368617265686f6c646572732061726520616c6c6f77656420746f60008301527f20616363657373207468697320666561747572652e00000000000000000000006020830152604082019050919050565b600061294060248361337e565b91507f596f7520617265206e6f7420746865206f776e6572206f66207468697320746f60008301527f6b656e2e000000000000000000000000000000000000000000000000000000006020830152604082019050919050565b60006129a660248361337e565b91507f4552433732313a207472616e7366657220746f20746865207a65726f2061646460008301527f72657373000000000000000000000000000000000000000000000000000000006020830152604082019050919050565b6000612a0c60198361337e565b91507f4552433732313a20617070726f766520746f2063616c6c6572000000000000006000830152602082019050919050565b6000612a4c602c8361337e565b91507f4552433732313a206f70657261746f7220717565727920666f72206e6f6e657860008301527f697374656e7420746f6b656e00000000000000000000000000000000000000006020830152604082019050919050565b6000612ab260388361337e565b91507f4552433732313a20617070726f76652063616c6c6572206973206e6f74206f7760008301527f6e6572206e6f7220617070726f76656420666f7220616c6c00000000000000006020830152604082019050919050565b6000612b18602a8361337e565b91507f4552433732313a2062616c616e636520717565727920666f7220746865207a6560008301527f726f2061646472657373000000000000000000000000000000000000000000006020830152604082019050919050565b6000612b7e60298361337e565b91507f4552433732313a206f776e657220717565727920666f72206e6f6e657869737460008301527f656e7420746f6b656e00000000000000000000000000000000000000000000006020830152604082019050919050565b6000612be460168361337e565b91507f596f7520646f6e74206465736572766520736869742e000000000000000000006000830152602082019050919050565b6000612c24602c8361337e565b91507f4552433732313a20617070726f76656420717565727920666f72206e6f6e657860008301527f697374656e7420746f6b656e00000000000000000000000000000000000000006020830152604082019050919050565b6000612c8a60208361337e565b91507f4f776e61626c653a2063616c6c6572206973206e6f7420746865206f776e65726000830152602082019050919050565b6000612cca60298361337e565b91507f4552433732313a207472616e73666572206f6620746f6b656e2074686174206960008301527f73206e6f74206f776e00000000000000000000000000000000000000000000006020830152604082019050919050565b6000612d30602f8361337e565b91507f4552433732314d657461646174613a2055524920717565727920666f72206e6f60008301527f6e6578697374656e7420746f6b656e00000000000000000000000000000000006020830152604082019050919050565b6000612d9660218361337e565b91507f4552433732313a20617070726f76616c20746f2063757272656e74206f776e6560008301527f72000000000000000000000000000000000000000000000000000000000000006020830152604082019050919050565b6000612dfc60318361337e565b91507f4552433732313a207472616e736665722063616c6c6572206973206e6f74206f60008301527f776e6572206e6f7220617070726f7665640000000000000000000000000000006020830152604082019050919050565b6000612e62602c8361337e565b91507f455243373231456e756d657261626c653a20676c6f62616c20696e646578206f60008301527f7574206f6620626f756e647300000000000000000000000000000000000000006020830152604082019050919050565b6000612ec8600c8361337e565b91507f436c61696d206661696c656400000000000000000000000000000000000000006000830152602082019050919050565b6000612f08600783613373565b91507f42652072696368000000000000000000000000000000000000000000000000006000830152600782019050919050565b612f4481613519565b82525050565b6000612f56828561276a565b9150612f62828461276a565b91508190509392505050565b6000612f7982612efb565b9150819050919050565b6000602082019050612f9860008301846126da565b92915050565b6000608082019050612fb360008301876126da565b612fc060208301866126da565b612fcd6040830185612f3b565b8181036060830152612fdf81846126f8565b905095945050505050565b6000604082019050612fff60008301856126da565b61300c6020830184612f3b565b9392505050565b600060208201905061302860008301846126e9565b92915050565b600060208201905081810360008301526130488184612731565b905092915050565b600060208201905081810360008301526130698161279b565b9050919050565b6000602082019050818103600083015261308981612801565b9050919050565b600060208201905081810360008301526130a981612867565b9050919050565b600060208201905081810360008301526130c9816128cd565b9050919050565b600060208201905081810360008301526130e981612933565b9050919050565b6000602082019050818103600083015261310981612999565b9050919050565b60006020820190508181036000830152613129816129ff565b9050919050565b6000602082019050818103600083015261314981612a3f565b9050919050565b6000602082019050818103600083015261316981612aa5565b9050919050565b6000602082019050818103600083015261318981612b0b565b9050919050565b600060208201905081810360008301526131a981612b71565b9050919050565b600060208201905081810360008301526131c981612bd7565b9050919050565b600060208201905081810360008301526131e981612c17565b9050919050565b6000602082019050818103600083015261320981612c7d565b9050919050565b6000602082019050818103600083015261322981612cbd565b9050919050565b6000602082019050818103600083015261324981612d23565b9050919050565b6000602082019050818103600083015261326981612d89565b9050919050565b6000602082019050818103600083015261328981612def565b9050919050565b600060208201905081810360008301526132a981612e55565b9050919050565b600060208201905081810360008301526132c981612ebb565b9050919050565b60006020820190506132e56000830184612f3b565b92915050565b6000604051905081810181811067ffffffffffffffff821117156133125761331161369e565b5b8060405250919050565b600067ffffffffffffffff8211156133375761333661369e565b5b601f19601f8301169050602081019050919050565b600081519050919050565b600081519050919050565b600082825260208201905092915050565b600081905092915050565b600082825260208201905092915050565b600081905092915050565b60006133a582613519565b91506133b083613519565b9250827fffffffffffffffffffffffffffffffffffffffffffffffffffffffffffffffff038211156133e5576133e4613611565b5b828201905092915050565b60006133fb82613519565b915061340683613519565b92508261341657613415613640565b5b828204905092915050565b600061342c82613519565b915061343783613519565b9250817fffffffffffffffffffffffffffffffffffffffffffffffffffffffffffffffff04831182151516156134705761346f613611565b5b828202905092915050565b600061348682613519565b915061349183613519565b9250828210156134a4576134a3613611565b5b828203905092915050565b60006134ba826134f9565b9050919050565b60008115159050919050565b60007fffffffff0000000000000000000000000000000000000000000000000000000082169050919050565b600073ffffffffffffffffffffffffffffffffffffffff82169050919050565b6000819050919050565b82818337600083830152505050565b60005b83811015613550578082015181840152602081019050613535565b8381111561355f576000848401525b50505050565b6000600282049050600182168061357d57607f821691505b602082108114156135915761359061366f565b5b50919050565b60006135a282613519565b91507fffffffffffffffffffffffffffffffffffffffffffffffffffffffffffffffff8214156135d5576135d4613611565b5b600182019050919050565b60006135eb82613519565b91506135f683613519565b92508261360657613605613640565b5b828206905092915050565b7f4e487b7100000000000000000000000000000000000000000000000000000000600052601160045260246000fd5b7f4e487b7100000000000000000000000000000000000000000000000000000000600052601260045260246000fd5b7f4e487b7100000000000000000000000000000000000000000000000000000000600052602260045260246000fd5b7f4e487b7100000000000000000000000000000000000000000000000000000000600052604160045260246000fd5b6000601f19601f8301169050919050565b6136e7816134af565b81146136f257600080fd5b50565b6136fe816134c1565b811461370957600080fd5b50565b613715816134cd565b811461372057600080fd5b50565b61372c81613519565b811461373757600080fd5b5056fea26469706673582212201b4ad0a503172b853f484deba696fa59f5c2fc4e30803e91f9a328599fe46f5f64736f6c63430008000033",
  "linkReferences": {},
  "deployedLinkReferences": {}
}