{
  "_format": "hh-sol-artifact-1",
  "contractName": "ProjectFactory",
  "sourceName": "contracts/ProjectFactory.sol",
  "abi": [
    {
      "anonymous": false,
      "inputs": [
        {
          "indexed": false,
          "internalType": "address",
          "name": "_address",
          "type": "address"
        },
        {
          "indexed": false,
          "internalType": "string",
          "name": "_name",
          "type": "string"
        },
        {
          "indexed": false,
          "internalType": "string",
          "name": "_symbol",
          "type": "string"
        }
      ],
      "name": "ProjectCreated",
      "type": "event"
    },
    {
      "inputs": [
        {
          "internalType": "string",
          "name": "name",
          "type": "string"
        },
        {
          "internalType": "string",
          "name": "symbol",
          "type": "string"
        },
        {
          "internalType": "address[]",
          "name": "shareholders",
          "type": "address[]"
        },
        {
          "internalType": "uint256[]",
          "name": "shareAmounts",
          "type": "uint256[]"
        }
      ],
      "name": "createProject",
      "outputs": [
        {
          "internalType": "address",
          "name": "",
          "type": "address"
        }
      ],
      "stateMutability": "nonpayable",
      "type": "function"
    }
  ],
  "bytecode": "0x608060405234801561001057600080fd5b50615fa2806100206000396000f3fe60806040523480156200001157600080fd5b50600436106200002e5760003560e01c8063fddb6f431462000033575b600080fd5b6200005160048036038101906200004b919062000212565b62000069565b60405162000060919062000429565b60405180910390f35b6000808989898989898989604051620000829062000106565b6200009598979695949392919062000495565b604051809103906000f080158015620000b2573d6000803e3d6000fd5b5090507fad3aa9f09c1340721aed53b695898fb8e17c69566ebace264c925a1dcbde0c78818b8b8b8b604051620000ee95949392919062000446565b60405180910390a18091505098975050505050505050565b61599580620005d883390190565b6000813590506200012581620005bd565b92915050565b60008083601f8401126200013e57600080fd5b8235905067ffffffffffffffff8111156200015857600080fd5b6020830191508360208202830111156200017157600080fd5b9250929050565b60008083601f8401126200018b57600080fd5b8235905067ffffffffffffffff811115620001a557600080fd5b602083019150836020820283011115620001be57600080fd5b9250929050565b60008083601f840112620001d857600080fd5b8235905067ffffffffffffffff811115620001f257600080fd5b6020830191508360018202830111156200020b57600080fd5b9250929050565b6000806000806000806000806080898b0312156200022f57600080fd5b600089013567ffffffffffffffff8111156200024a57600080fd5b620002588b828c01620001c5565b9850985050602089013567ffffffffffffffff8111156200027857600080fd5b620002868b828c01620001c5565b9650965050604089013567ffffffffffffffff811115620002a657600080fd5b620002b48b828c016200012b565b9450945050606089013567ffffffffffffffff811115620002d457600080fd5b620002e28b828c0162000178565b92509250509295985092959890939650565b60006200030283836200030e565b60208301905092915050565b620003198162000569565b82525050565b6200032a8162000569565b82525050565b60006200033e83856200051d565b93506200034b8262000506565b8060005b858110156200038c5762000364828462000550565b620003708882620002f4565b97506200037d8362000510565b9250506001810190506200034f565b5085925050509392505050565b6000620003a783856200052e565b93507f07ffffffffffffffffffffffffffffffffffffffffffffffffffffffffffffff831115620003d757600080fd5b602083029250620003ea8385846200059d565b82840190509392505050565b60006200040483856200053f565b9350620004138385846200059d565b6200041e83620005ac565b840190509392505050565b60006020820190506200044060008301846200031f565b92915050565b60006060820190506200045d60008301886200031f565b818103602083015262000472818688620003f6565b9050818103604083015262000489818486620003f6565b90509695505050505050565b60006080820190508181036000830152620004b2818a8c620003f6565b90508181036020830152620004c981888a620003f6565b90508181036040830152620004e081868862000330565b90508181036060830152620004f781848662000399565b90509998505050505050505050565b6000819050919050565b6000602082019050919050565b600082825260208201905092915050565b600082825260208201905092915050565b600082825260208201905092915050565b600062000561602084018462000114565b905092915050565b600062000576826200057d565b9050919050565b600073ffffffffffffffffffffffffffffffffffffffff82169050919050565b82818337600083830152505050565b6000601f19601f8301169050919050565b620005c88162000569565b8114620005d457600080fd5b5056fe60806040523480156200001157600080fd5b506040516200599538038062005995833981810160405281019062000037919062001254565b838381600090805190602001906200005192919062000f7d565b5080600190805190602001906200006a92919062000f7d565b5050506200008d62000081620002db60201b60201c565b620002e360201b60201c565b8051825114620000d4576040517f08c379a0000000000000000000000000000000000000000000000000000000008152600401620000cb9062001756565b60405180910390fd5b6000805b8251811015620001d05760008382815181106200011e577f4e487b7100000000000000000000000000000000000000000000000000000000600052603260045260246000fd5b60200260200101511162000169576040517f08c379a0000000000000000000000000000000000000000000000000000000008152600401620001609062001778565b60405180910390fd5b828181518110620001a3577f4e487b7100000000000000000000000000000000000000000000000000000000600052603260045260246000fd5b602002602001015182620001b891906200188c565b91508080620001c790620019fa565b915050620000d8565b506064811462000217576040517f08c379a00000000000000000000000000000000000000000000000000000000081526004016200020e90620016ce565b60405180910390fd5b60005b8351811015620002cf57620002b884828151811062000262577f4e487b7100000000000000000000000000000000000000000000000000000000600052603260045260246000fd5b6020026020010151848381518110620002a4577f4e487b7100000000000000000000000000000000000000000000000000000000600052603260045260246000fd5b6020026020010151620003a960201b60201c565b508080620002c690620019fa565b9150506200021a565b50505050505062001b34565b600033905090565b6000600a60009054906101000a900473ffffffffffffffffffffffffffffffffffffffff16905081600a60006101000a81548173ffffffffffffffffffffffffffffffffffffffff021916908373ffffffffffffffffffffffffffffffffffffffff1602179055508173ffffffffffffffffffffffffffffffffffffffff168173ffffffffffffffffffffffffffffffffffffffff167f8be0079c531659141344cd1fd0a4f28419497f9722a3daafe3b4186f6b6457e060405160405180910390a35050565b6000620003bb620002db60201b60201c565b73ffffffffffffffffffffffffffffffffffffffff16620003e1620004db60201b60201c565b73ffffffffffffffffffffffffffffffffffffffff16146200043a576040517f08c379a0000000000000000000000000000000000000000000000000000000008152600401620004319062001734565b60405180910390fd5b600062000453600b6200050560201b620015b11760201c565b90506200046784826200051360201b60201c565b82600c60008381526020019081526020016000208190555062000496600b6200053960201b620015bf1760201c565b7f0f6798a560793a54c3bcfe86a93cde1e73087d944c0ea20544137d41213968858484604051620004c99291906200165d565b60405180910390a18091505092915050565b6000600a60009054906101000a900473ffffffffffffffffffffffffffffffffffffffff16905090565b600081600001549050919050565b620005358282604051806020016040528060008152506200054f60201b60201c565b5050565b6001816000016000828254019250508190555050565b620005618383620005bd60201b60201c565b620005766000848484620007a360201b60201c565b620005b8576040517f08c379a0000000000000000000000000000000000000000000000000000000008152600401620005af906200168a565b60405180910390fd5b505050565b600073ffffffffffffffffffffffffffffffffffffffff168273ffffffffffffffffffffffffffffffffffffffff16141562000630576040517f08c379a0000000000000000000000000000000000000000000000000000000008152600401620006279062001712565b60405180910390fd5b62000641816200095d60201b60201c565b1562000684576040517f08c379a00000000000000000000000000000000000000000000000000000000081526004016200067b90620016ac565b60405180910390fd5b6200069860008383620009c960201b60201c565b6001600360008473ffffffffffffffffffffffffffffffffffffffff1673ffffffffffffffffffffffffffffffffffffffff1681526020019081526020016000206000828254620006ea91906200188c565b92505081905550816002600083815260200190815260200160002060006101000a81548173ffffffffffffffffffffffffffffffffffffffff021916908373ffffffffffffffffffffffffffffffffffffffff160217905550808273ffffffffffffffffffffffffffffffffffffffff16600073ffffffffffffffffffffffffffffffffffffffff167fddf252ad1be2c89b69c2b068fc378daa952ba7f163c4a11628f55a4df523b3ef60405160405180910390a45050565b6000620007d18473ffffffffffffffffffffffffffffffffffffffff1662000b1060201b620015d51760201c565b1562000950578373ffffffffffffffffffffffffffffffffffffffff1663150b7a0262000803620002db60201b60201c565b8786866040518563ffffffff1660e01b815260040162000827949392919062001609565b602060405180830381600087803b1580156200084257600080fd5b505af19250505080156200087657506040513d601f19601f8201168201806040525081019062000873919062001228565b60015b620008ff573d8060008114620008a9576040519150601f19603f3d011682016040523d82523d6000602084013e620008ae565b606091505b50600081511415620008f7576040517f08c379a0000000000000000000000000000000000000000000000000000000008152600401620008ee906200168a565b60405180910390fd5b805181602001fd5b63150b7a0260e01b7bffffffffffffffffffffffffffffffffffffffffffffffffffffffff1916817bffffffffffffffffffffffffffffffffffffffffffffffffffffffff19161491505062000955565b600190505b949350505050565b60008073ffffffffffffffffffffffffffffffffffffffff166002600084815260200190815260200160002060009054906101000a900473ffffffffffffffffffffffffffffffffffffffff1673ffffffffffffffffffffffffffffffffffffffff1614159050919050565b620009e183838362000b2360201b620015e81760201c565b600073ffffffffffffffffffffffffffffffffffffffff168373ffffffffffffffffffffffffffffffffffffffff16141562000a2e5762000a288162000b2860201b60201c565b62000a76565b8173ffffffffffffffffffffffffffffffffffffffff168373ffffffffffffffffffffffffffffffffffffffff161462000a755762000a74838262000b7160201b60201c565b5b5b600073ffffffffffffffffffffffffffffffffffffffff168273ffffffffffffffffffffffffffffffffffffffff16141562000ac35762000abd8162000cee60201b60201c565b62000b0b565b8273ffffffffffffffffffffffffffffffffffffffff168273ffffffffffffffffffffffffffffffffffffffff161462000b0a5762000b09828262000e3660201b60201c565b5b5b505050565b600080823b905060008111915050919050565b505050565b6008805490506009600083815260200190815260200160002081905550600881908060018154018082558091505060019003906000526020600020016000909190919091505550565b6000600162000b8b8462000ec260201b620010ac1760201c565b62000b979190620018e9565b905060006007600084815260200190815260200160002054905081811462000c7d576000600660008673ffffffffffffffffffffffffffffffffffffffff1673ffffffffffffffffffffffffffffffffffffffff168152602001908152602001600020600084815260200190815260200160002054905080600660008773ffffffffffffffffffffffffffffffffffffffff1673ffffffffffffffffffffffffffffffffffffffff168152602001908152602001600020600084815260200190815260200160002081905550816007600083815260200190815260200160002081905550505b6007600084815260200190815260200160002060009055600660008573ffffffffffffffffffffffffffffffffffffffff1673ffffffffffffffffffffffffffffffffffffffff16815260200190815260200160002060008381526020019081526020016000206000905550505050565b6000600160088054905062000d049190620018e9565b905060006009600084815260200190815260200160002054905060006008838154811062000d5b577f4e487b7100000000000000000000000000000000000000000000000000000000600052603260045260246000fd5b90600052602060002001549050806008838154811062000da4577f4e487b7100000000000000000000000000000000000000000000000000000000600052603260045260246000fd5b90600052602060002001819055508160096000838152602001908152602001600020819055506009600085815260200190815260200160002060009055600880548062000e1a577f4e487b7100000000000000000000000000000000000000000000000000000000600052603160045260246000fd5b6001900381819060005260206000200160009055905550505050565b600062000e4e8362000ec260201b620010ac1760201c565b905081600660008573ffffffffffffffffffffffffffffffffffffffff1673ffffffffffffffffffffffffffffffffffffffff168152602001908152602001600020600083815260200190815260200160002081905550806007600084815260200190815260200160002081905550505050565b60008073ffffffffffffffffffffffffffffffffffffffff168273ffffffffffffffffffffffffffffffffffffffff16141562000f36576040517f08c379a000000000000000000000000000000000000000000000000000000000815260040162000f2d90620016f0565b60405180910390fd5b600360008373ffffffffffffffffffffffffffffffffffffffff1673ffffffffffffffffffffffffffffffffffffffff168152602001908152602001600020549050919050565b82805462000f8b90620019c4565b90600052602060002090601f01602090048101928262000faf576000855562000ffb565b82601f1062000fca57805160ff191683800117855562000ffb565b8280016001018555821562000ffb579182015b8281111562000ffa57825182559160200191906001019062000fdd565b5b5090506200100a91906200100e565b5090565b5b80821115620010295760008160009055506001016200100f565b5090565b6000620010446200103e84620017ce565b6200179a565b905080838252602082019050828560208602820111156200106457600080fd5b60005b858110156200109857816200107d88826200115c565b84526020840193506020830192505060018101905062001067565b5050509392505050565b6000620010b9620010b384620017fd565b6200179a565b90508083825260208201905082856020860282011115620010d957600080fd5b60005b858110156200110d5781620010f2888262001211565b845260208401935060208301925050600181019050620010dc565b5050509392505050565b60006200112e62001128846200182c565b6200179a565b9050828152602081018484840111156200114757600080fd5b620011548482856200198e565b509392505050565b6000815190506200116d8162001ae6565b92915050565b600082601f8301126200118557600080fd5b8151620011978482602086016200102d565b91505092915050565b600082601f830112620011b257600080fd5b8151620011c4848260208601620010a2565b91505092915050565b600081519050620011de8162001b00565b92915050565b600082601f830112620011f657600080fd5b81516200120884826020860162001117565b91505092915050565b600081519050620012228162001b1a565b92915050565b6000602082840312156200123b57600080fd5b60006200124b84828501620011cd565b91505092915050565b600080600080608085870312156200126b57600080fd5b600085015167ffffffffffffffff8111156200128657600080fd5b6200129487828801620011e4565b945050602085015167ffffffffffffffff811115620012b257600080fd5b620012c087828801620011e4565b935050604085015167ffffffffffffffff811115620012de57600080fd5b620012ec8782880162001173565b925050606085015167ffffffffffffffff8111156200130a57600080fd5b6200131887828801620011a0565b91505092959194509250565b6200132f8162001924565b82525050565b600062001342826200185f565b6200134e81856200186a565b9350620013608185602086016200198e565b6200136b8162001ad5565b840191505092915050565b6000620013856032836200187b565b91507f4552433732313a207472616e7366657220746f206e6f6e20455243373231526560008301527f63656976657220696d706c656d656e74657200000000000000000000000000006020830152604082019050919050565b6000620013ed601c836200187b565b91507f4552433732313a20746f6b656e20616c7265616479206d696e746564000000006000830152602082019050919050565b60006200142f601b836200187b565b91507f73756d206f66207368617265732073686f756c642062652031303000000000006000830152602082019050919050565b600062001471602a836200187b565b91507f4552433732313a2062616c616e636520717565727920666f7220746865207a6560008301527f726f2061646472657373000000000000000000000000000000000000000000006020830152604082019050919050565b6000620014d96020836200187b565b91507f4552433732313a206d696e7420746f20746865207a65726f20616464726573736000830152602082019050919050565b60006200151b6020836200187b565b91507f4f776e61626c653a2063616c6c6572206973206e6f7420746865206f776e65726000830152602082019050919050565b60006200155d603e836200187b565b91507f73697a65206f66207368617265686f6c64657220616e6420736861726520616d60008301527f6f756e742061727261792073686f756c64206265207468652073616d652e00006020830152604082019050919050565b6000620015c5601e836200187b565b91507f416d6f756e742073686f756c6420626520626967676572207468616e203000006000830152602082019050919050565b620016038162001984565b82525050565b600060808201905062001620600083018762001324565b6200162f602083018662001324565b6200163e6040830185620015f8565b818103606083015262001652818462001335565b905095945050505050565b600060408201905062001674600083018562001324565b620016836020830184620015f8565b9392505050565b60006020820190508181036000830152620016a58162001376565b9050919050565b60006020820190508181036000830152620016c781620013de565b9050919050565b60006020820190508181036000830152620016e98162001420565b9050919050565b600060208201905081810360008301526200170b8162001462565b9050919050565b600060208201905081810360008301526200172d81620014ca565b9050919050565b600060208201905081810360008301526200174f816200150c565b9050919050565b6000602082019050818103600083015262001771816200154e565b9050919050565b600060208201905081810360008301526200179381620015b6565b9050919050565b6000604051905081810181811067ffffffffffffffff82111715620017c457620017c362001aa6565b5b8060405250919050565b600067ffffffffffffffff821115620017ec57620017eb62001aa6565b5b602082029050602081019050919050565b600067ffffffffffffffff8211156200181b576200181a62001aa6565b5b602082029050602081019050919050565b600067ffffffffffffffff8211156200184a576200184962001aa6565b5b601f19601f8301169050602081019050919050565b600081519050919050565b600082825260208201905092915050565b600082825260208201905092915050565b6000620018998262001984565b9150620018a68362001984565b9250827fffffffffffffffffffffffffffffffffffffffffffffffffffffffffffffffff03821115620018de57620018dd62001a48565b5b828201905092915050565b6000620018f68262001984565b9150620019038362001984565b92508282101562001919576200191862001a48565b5b828203905092915050565b6000620019318262001964565b9050919050565b60007fffffffff0000000000000000000000000000000000000000000000000000000082169050919050565b600073ffffffffffffffffffffffffffffffffffffffff82169050919050565b6000819050919050565b60005b83811015620019ae57808201518184015260208101905062001991565b83811115620019be576000848401525b50505050565b60006002820490506001821680620019dd57607f821691505b60208210811415620019f457620019f362001a77565b5b50919050565b600062001a078262001984565b91507fffffffffffffffffffffffffffffffffffffffffffffffffffffffffffffffff82141562001a3d5762001a3c62001a48565b5b600182019050919050565b7f4e487b7100000000000000000000000000000000000000000000000000000000600052601160045260246000fd5b7f4e487b7100000000000000000000000000000000000000000000000000000000600052602260045260246000fd5b7f4e487b7100000000000000000000000000000000000000000000000000000000600052604160045260246000fd5b6000601f19601f8301169050919050565b62001af18162001924565b811462001afd57600080fd5b50565b62001b0b8162001938565b811462001b1757600080fd5b50565b62001b258162001984565b811462001b3157600080fd5b50565b613e518062001b446000396000f3fe6080604052600436106101665760003560e01c806357a858fc116100d1578063a22cb4651161008a578063c87b56dd11610064578063c87b56dd14610562578063d0e30db01461059f578063e985e9c5146105a9578063f2fde38b146105e657610166565b8063a22cb465146104e5578063aa46a4001461050e578063b88d4fde1461053957610166565b806357a858fc146103c15780636352211e146103fe57806370a082311461043b578063715018a6146104785780638da5cb5b1461048f57806395d89b41146104ba57610166565b806323b872dd1161012357806323b872dd1461028f578063296365f3146102b85780632f745c59146102f5578063379607f51461033257806342842e0e1461035b5780634f6ccce71461038457610166565b806301ffc9a71461016b57806306fdde03146101a8578063081812fc146101d3578063095ea7b314610210578063172958941461023957806318160ddd14610264575b600080fd5b34801561017757600080fd5b50610192600480360381019061018d9190612b3a565b61060f565b60405161019f9190613654565b60405180910390f35b3480156101b457600080fd5b506101bd610689565b6040516101ca919061366f565b60405180910390f35b3480156101df57600080fd5b506101fa60048036038101906101f59190612b8c565b61071b565b60405161020791906135c4565b60405180910390f35b34801561021c57600080fd5b5061023760048036038101906102329190612aaf565b6107a0565b005b34801561024557600080fd5b5061024e6108b8565b60405161025b91906139b1565b60405180910390f35b34801561027057600080fd5b50610279610973565b60405161028691906139b1565b60405180910390f35b34801561029b57600080fd5b506102b660048036038101906102b191906129a9565b610980565b005b3480156102c457600080fd5b506102df60048036038101906102da9190612aeb565b6109e0565b6040516102ec91906139b1565b60405180910390f35b34801561030157600080fd5b5061031c60048036038101906103179190612aaf565b610bb7565b60405161032991906139b1565b60405180910390f35b34801561033e57600080fd5b5061035960048036038101906103549190612b8c565b610c5c565b005b34801561036757600080fd5b50610382600480360381019061037d91906129a9565b610f2b565b005b34801561039057600080fd5b506103ab60048036038101906103a69190612b8c565b610f4b565b6040516103b891906139b1565b60405180910390f35b3480156103cd57600080fd5b506103e860048036038101906103e39190612b8c565b610fe2565b6040516103f591906139b1565b60405180910390f35b34801561040a57600080fd5b5061042560048036038101906104209190612b8c565b610ffa565b60405161043291906135c4565b60405180910390f35b34801561044757600080fd5b50610462600480360381019061045d9190612944565b6110ac565b60405161046f91906139b1565b60405180910390f35b34801561048457600080fd5b5061048d611164565b005b34801561049b57600080fd5b506104a46111ec565b6040516104b191906135c4565b60405180910390f35b3480156104c657600080fd5b506104cf611216565b6040516104dc919061366f565b60405180910390f35b3480156104f157600080fd5b5061050c60048036038101906105079190612a73565b6112a8565b005b34801561051a57600080fd5b506105236112be565b60405161053091906139b1565b60405180910390f35b34801561054557600080fd5b50610560600480360381019061055b91906129f8565b6112ca565b005b34801561056e57600080fd5b5061058960048036038101906105849190612b8c565b61132c565b604051610596919061366f565b60405180910390f35b6105a76113d3565b005b3480156105b557600080fd5b506105d060048036038101906105cb919061296d565b611425565b6040516105dd9190613654565b60405180910390f35b3480156105f257600080fd5b5061060d60048036038101906106089190612944565b6114b9565b005b60007f780e9d63000000000000000000000000000000000000000000000000000000007bffffffffffffffffffffffffffffffffffffffffffffffffffffffff1916827bffffffffffffffffffffffffffffffffffffffffffffffffffffffff191614806106825750610681826115ed565b5b9050919050565b60606000805461069890613c46565b80601f01602080910402602001604051908101604052809291908181526020018280546106c490613c46565b80156107115780601f106106e657610100808354040283529160200191610711565b820191906000526020600020905b8154815290600101906020018083116106f457829003601f168201915b5050505050905090565b6000610726826116cf565b610765576040517f08c379a000000000000000000000000000000000000000000000000000000000815260040161075c90613871565b60405180910390fd5b6004600083815260200190815260200160002060009054906101000a900473ffffffffffffffffffffffffffffffffffffffff169050919050565b60006107ab82610ffa565b90508073ffffffffffffffffffffffffffffffffffffffff168373ffffffffffffffffffffffffffffffffffffffff16141561081c576040517f08c379a0000000000000000000000000000000000000000000000000000000008152600401610813906138f1565b60405180910390fd5b8073ffffffffffffffffffffffffffffffffffffffff1661083b61173b565b73ffffffffffffffffffffffffffffffffffffffff16148061086a57506108698161086461173b565b611425565b5b6108a9576040517f08c379a00000000000000000000000000000000000000000000000000000000081526004016108a0906137d1565b60405180910390fd5b6108b38383611743565b505050565b6000806000905060005b6108ca610973565b811015610929573373ffffffffffffffffffffffffffffffffffffffff166108f182610ffa565b73ffffffffffffffffffffffffffffffffffffffff1614156109165760019150610929565b808061092190613c78565b9150506108c2565b508061096a576040517f08c379a000000000000000000000000000000000000000000000000000000000815260040161096190613711565b60405180910390fd5b600e5491505090565b6000600880549050905090565b61099161098b61173b565b826117fc565b6109d0576040517f08c379a00000000000000000000000000000000000000000000000000000000081526004016109c790613911565b60405180910390fd5b6109db8383836118da565b505050565b60003373ffffffffffffffffffffffffffffffffffffffff16610a0284610ffa565b73ffffffffffffffffffffffffffffffffffffffff1614610a58576040517f08c379a0000000000000000000000000000000000000000000000000000000008152600401610a4f90613691565b60405180910390fd5b81600c60008581526020019081526020016000205411610aad576040517f08c379a0000000000000000000000000000000000000000000000000000000008152600401610aa490613991565b60405180910390fd5b60008211610af0576040517f08c379a0000000000000000000000000000000000000000000000000000000008152600401610ae790613951565b60405180910390fd5b6000610afc600b6115b1565b9050610b088582611b36565b82600c600083815260200190815260200160002081905550610b2a600b6115bf565b6000600c60008681526020019081526020016000205490506000610b578583611b5490919063ffffffff16565b905080600c6000888152602001908152602001600020819055507f0f6798a560793a54c3bcfe86a93cde1e73087d944c0ea20544137d41213968858786604051610ba292919061362b565b60405180910390a18293505050509392505050565b6000610bc2836110ac565b8210610c03576040517f08c379a0000000000000000000000000000000000000000000000000000000008152600401610bfa906136b1565b60405180910390fd5b600660008473ffffffffffffffffffffffffffffffffffffffff1673ffffffffffffffffffffffffffffffffffffffff168152602001908152602001600020600083815260200190815260200160002054905092915050565b6000805b610c68610973565b811015610cc7573373ffffffffffffffffffffffffffffffffffffffff16610c8f82610ffa565b73ffffffffffffffffffffffffffffffffffffffff161415610cb45760019150610cc7565b8080610cbf90613c78565b915050610c60565b5080610d08576040517f08c379a0000000000000000000000000000000000000000000000000000000008152600401610cff90613711565b60405180910390fd5b3373ffffffffffffffffffffffffffffffffffffffff16610d2883610ffa565b73ffffffffffffffffffffffffffffffffffffffff1614610d7e576040517f08c379a0000000000000000000000000000000000000000000000000000000008152600401610d7590613731565b60405180910390fd5b60006064600c600085815260200190815260200160002054600e54610da39190613b02565b610dad9190613ad1565b90506000600d60008581526020019081526020016000205482610dd09190613b5c565b905060008111610e15576040517f08c379a0000000000000000000000000000000000000000000000000000000008152600401610e0c90613831565b60405180910390fd5b80600d60008681526020019081526020016000206000828254610e389190613a7b565b9250508190555060003373ffffffffffffffffffffffffffffffffffffffff1682604051610e65906135af565b60006040518083038185875af1925050503d8060008114610ea2576040519150601f19603f3d011682016040523d82523d6000602084013e610ea7565b606091505b5050905080610eeb576040517f08c379a0000000000000000000000000000000000000000000000000000000008152600401610ee290613971565b60405180910390fd5b7f47cee97cb7acd717b3c0aa1435d004cd5b3c8c57d70dbceb4e4458bbd60e39d43383604051610f1c92919061362b565b60405180910390a15050505050565b610f46838383604051806020016040528060008152506112ca565b505050565b6000610f55610973565b8210610f96576040517f08c379a0000000000000000000000000000000000000000000000000000000008152600401610f8d90613931565b60405180910390fd5b60088281548110610fd0577f4e487b7100000000000000000000000000000000000000000000000000000000600052603260045260246000fd5b90600052602060002001549050919050565b600c6020528060005260406000206000915090505481565b6000806002600084815260200190815260200160002060009054906101000a900473ffffffffffffffffffffffffffffffffffffffff169050600073ffffffffffffffffffffffffffffffffffffffff168173ffffffffffffffffffffffffffffffffffffffff1614156110a3576040517f08c379a000000000000000000000000000000000000000000000000000000000815260040161109a90613811565b60405180910390fd5b80915050919050565b60008073ffffffffffffffffffffffffffffffffffffffff168273ffffffffffffffffffffffffffffffffffffffff16141561111d576040517f08c379a0000000000000000000000000000000000000000000000000000000008152600401611114906137f1565b60405180910390fd5b600360008373ffffffffffffffffffffffffffffffffffffffff1673ffffffffffffffffffffffffffffffffffffffff168152602001908152602001600020549050919050565b61116c61173b565b73ffffffffffffffffffffffffffffffffffffffff1661118a6111ec565b73ffffffffffffffffffffffffffffffffffffffff16146111e0576040517f08c379a00000000000000000000000000000000000000000000000000000000081526004016111d790613891565b60405180910390fd5b6111ea6000611b6a565b565b6000600a60009054906101000a900473ffffffffffffffffffffffffffffffffffffffff16905090565b60606001805461122590613c46565b80601f016020809104026020016040519081016040528092919081815260200182805461125190613c46565b801561129e5780601f106112735761010080835404028352916020019161129e565b820191906000526020600020905b81548152906001019060200180831161128157829003601f168201915b5050505050905090565b6112ba6112b361173b565b8383611c30565b5050565b600b8060000154905081565b6112db6112d561173b565b836117fc565b61131a576040517f08c379a000000000000000000000000000000000000000000000000000000000815260040161131190613911565b60405180910390fd5b61132684848484611d9d565b50505050565b6060611337826116cf565b611376576040517f08c379a000000000000000000000000000000000000000000000000000000000815260040161136d906138d1565b60405180910390fd5b6000611380611df9565b905060008151116113a057604051806020016040528060008152506113cb565b806113aa84611e10565b6040516020016113bb92919061358b565b6040516020818303038152906040525b915050919050565b34600e60008282546113e59190613a7b565b925050819055507f4d6ce1e535dbade1c23defba91e23b8f791ce5edc0cc320257a2b364e4e384263460405161141b91906139b1565b60405180910390a1565b6000600560008473ffffffffffffffffffffffffffffffffffffffff1673ffffffffffffffffffffffffffffffffffffffff16815260200190815260200160002060008373ffffffffffffffffffffffffffffffffffffffff1673ffffffffffffffffffffffffffffffffffffffff16815260200190815260200160002060009054906101000a900460ff16905092915050565b6114c161173b565b73ffffffffffffffffffffffffffffffffffffffff166114df6111ec565b73ffffffffffffffffffffffffffffffffffffffff1614611535576040517f08c379a000000000000000000000000000000000000000000000000000000000815260040161152c90613891565b60405180910390fd5b600073ffffffffffffffffffffffffffffffffffffffff168173ffffffffffffffffffffffffffffffffffffffff1614156115a5576040517f08c379a000000000000000000000000000000000000000000000000000000000815260040161159c906136f1565b60405180910390fd5b6115ae81611b6a565b50565b600081600001549050919050565b6001816000016000828254019250508190555050565b600080823b905060008111915050919050565b505050565b60007f80ac58cd000000000000000000000000000000000000000000000000000000007bffffffffffffffffffffffffffffffffffffffffffffffffffffffff1916827bffffffffffffffffffffffffffffffffffffffffffffffffffffffff191614806116b857507f5b5e139f000000000000000000000000000000000000000000000000000000007bffffffffffffffffffffffffffffffffffffffffffffffffffffffff1916827bffffffffffffffffffffffffffffffffffffffffffffffffffffffff1916145b806116c857506116c782611fbd565b5b9050919050565b60008073ffffffffffffffffffffffffffffffffffffffff166002600084815260200190815260200160002060009054906101000a900473ffffffffffffffffffffffffffffffffffffffff1673ffffffffffffffffffffffffffffffffffffffff1614159050919050565b600033905090565b816004600083815260200190815260200160002060006101000a81548173ffffffffffffffffffffffffffffffffffffffff021916908373ffffffffffffffffffffffffffffffffffffffff160217905550808273ffffffffffffffffffffffffffffffffffffffff166117b683610ffa565b73ffffffffffffffffffffffffffffffffffffffff167f8c5be1e5ebec7d5bd14f71427d1e84f3dd0314c0f7b2291e5b200ac8c7c3b92560405160405180910390a45050565b6000611807826116cf565b611846576040517f08c379a000000000000000000000000000000000000000000000000000000000815260040161183d906137b1565b60405180910390fd5b600061185183610ffa565b90508073ffffffffffffffffffffffffffffffffffffffff168473ffffffffffffffffffffffffffffffffffffffff1614806118c057508373ffffffffffffffffffffffffffffffffffffffff166118a88461071b565b73ffffffffffffffffffffffffffffffffffffffff16145b806118d157506118d08185611425565b5b91505092915050565b8273ffffffffffffffffffffffffffffffffffffffff166118fa82610ffa565b73ffffffffffffffffffffffffffffffffffffffff1614611950576040517f08c379a0000000000000000000000000000000000000000000000000000000008152600401611947906138b1565b60405180910390fd5b600073ffffffffffffffffffffffffffffffffffffffff168273ffffffffffffffffffffffffffffffffffffffff1614156119c0576040517f08c379a00000000000000000000000000000000000000000000000000000000081526004016119b790613771565b60405180910390fd5b6119cb838383612027565b6119d6600082611743565b6001600360008573ffffffffffffffffffffffffffffffffffffffff1673ffffffffffffffffffffffffffffffffffffffff1681526020019081526020016000206000828254611a269190613b5c565b925050819055506001600360008473ffffffffffffffffffffffffffffffffffffffff1673ffffffffffffffffffffffffffffffffffffffff1681526020019081526020016000206000828254611a7d9190613a7b565b92505081905550816002600083815260200190815260200160002060006101000a81548173ffffffffffffffffffffffffffffffffffffffff021916908373ffffffffffffffffffffffffffffffffffffffff160217905550808273ffffffffffffffffffffffffffffffffffffffff168473ffffffffffffffffffffffffffffffffffffffff167fddf252ad1be2c89b69c2b068fc378daa952ba7f163c4a11628f55a4df523b3ef60405160405180910390a4505050565b611b5082826040518060200160405280600081525061213b565b5050565b60008183611b629190613b5c565b905092915050565b6000600a60009054906101000a900473ffffffffffffffffffffffffffffffffffffffff16905081600a60006101000a81548173ffffffffffffffffffffffffffffffffffffffff021916908373ffffffffffffffffffffffffffffffffffffffff1602179055508173ffffffffffffffffffffffffffffffffffffffff168173ffffffffffffffffffffffffffffffffffffffff167f8be0079c531659141344cd1fd0a4f28419497f9722a3daafe3b4186f6b6457e060405160405180910390a35050565b8173ffffffffffffffffffffffffffffffffffffffff168373ffffffffffffffffffffffffffffffffffffffff161415611c9f576040517f08c379a0000000000000000000000000000000000000000000000000000000008152600401611c9690613791565b60405180910390fd5b80600560008573ffffffffffffffffffffffffffffffffffffffff1673ffffffffffffffffffffffffffffffffffffffff16815260200190815260200160002060008473ffffffffffffffffffffffffffffffffffffffff1673ffffffffffffffffffffffffffffffffffffffff16815260200190815260200160002060006101000a81548160ff0219169083151502179055508173ffffffffffffffffffffffffffffffffffffffff168373ffffffffffffffffffffffffffffffffffffffff167f17307eab39ab6107e8899845ad3d59bd9653f200f220920489ca2b5937696c3183604051611d909190613654565b60405180910390a3505050565b611da88484846118da565b611db484848484612196565b611df3576040517f08c379a0000000000000000000000000000000000000000000000000000000008152600401611dea906136d1565b60405180910390fd5b50505050565b606060405180602001604052806000815250905090565b60606000821415611e58576040518060400160405280600181526020017f30000000000000000000000000000000000000000000000000000000000000008152509050611fb8565b600082905060005b60008214611e8a578080611e7390613c78565b915050600a82611e839190613ad1565b9150611e60565b60008167ffffffffffffffff811115611ecc577f4e487b7100000000000000000000000000000000000000000000000000000000600052604160045260246000fd5b6040519080825280601f01601f191660200182016040528015611efe5781602001600182028036833780820191505090505b5090505b60008514611fb157600182611f179190613b5c565b9150600a85611f269190613cc1565b6030611f329190613a7b565b60f81b818381518110611f6e577f4e487b7100000000000000000000000000000000000000000000000000000000600052603260045260246000fd5b60200101907effffffffffffffffffffffffffffffffffffffffffffffffffffffffffffff1916908160001a905350600a85611faa9190613ad1565b9450611f02565b8093505050505b919050565b60007f01ffc9a7000000000000000000000000000000000000000000000000000000007bffffffffffffffffffffffffffffffffffffffffffffffffffffffff1916827bffffffffffffffffffffffffffffffffffffffffffffffffffffffff1916149050919050565b6120328383836115e8565b600073ffffffffffffffffffffffffffffffffffffffff168373ffffffffffffffffffffffffffffffffffffffff161415612075576120708161232d565b6120b4565b8173ffffffffffffffffffffffffffffffffffffffff168373ffffffffffffffffffffffffffffffffffffffff16146120b3576120b28382612376565b5b5b600073ffffffffffffffffffffffffffffffffffffffff168273ffffffffffffffffffffffffffffffffffffffff1614156120f7576120f2816124e3565b612136565b8273ffffffffffffffffffffffffffffffffffffffff168273ffffffffffffffffffffffffffffffffffffffff1614612135576121348282612626565b5b5b505050565b61214583836126a5565b6121526000848484612196565b612191576040517f08c379a0000000000000000000000000000000000000000000000000000000008152600401612188906136d1565b60405180910390fd5b505050565b60006121b78473ffffffffffffffffffffffffffffffffffffffff166115d5565b15612320578373ffffffffffffffffffffffffffffffffffffffff1663150b7a026121e061173b565b8786866040518563ffffffff1660e01b815260040161220294939291906135df565b602060405180830381600087803b15801561221c57600080fd5b505af192505050801561224d57506040513d601f19601f8201168201806040525081019061224a9190612b63565b60015b6122d0573d806000811461227d576040519150601f19603f3d011682016040523d82523d6000602084013e612282565b606091505b506000815114156122c8576040517f08c379a00000000000000000000000000000000000000000000000000000000081526004016122bf906136d1565b60405180910390fd5b805181602001fd5b63150b7a0260e01b7bffffffffffffffffffffffffffffffffffffffffffffffffffffffff1916817bffffffffffffffffffffffffffffffffffffffffffffffffffffffff191614915050612325565b600190505b949350505050565b6008805490506009600083815260200190815260200160002081905550600881908060018154018082558091505060019003906000526020600020016000909190919091505550565b60006001612383846110ac565b61238d9190613b5c565b9050600060076000848152602001908152602001600020549050818114612472576000600660008673ffffffffffffffffffffffffffffffffffffffff1673ffffffffffffffffffffffffffffffffffffffff168152602001908152602001600020600084815260200190815260200160002054905080600660008773ffffffffffffffffffffffffffffffffffffffff1673ffffffffffffffffffffffffffffffffffffffff168152602001908152602001600020600084815260200190815260200160002081905550816007600083815260200190815260200160002081905550505b6007600084815260200190815260200160002060009055600660008573ffffffffffffffffffffffffffffffffffffffff1673ffffffffffffffffffffffffffffffffffffffff16815260200190815260200160002060008381526020019081526020016000206000905550505050565b600060016008805490506124f79190613b5c565b905060006009600084815260200190815260200160002054905060006008838154811061254d577f4e487b7100000000000000000000000000000000000000000000000000000000600052603260045260246000fd5b906000526020600020015490508060088381548110612595577f4e487b7100000000000000000000000000000000000000000000000000000000600052603260045260246000fd5b90600052602060002001819055508160096000838152602001908152602001600020819055506009600085815260200190815260200160002060009055600880548061260a577f4e487b7100000000000000000000000000000000000000000000000000000000600052603160045260246000fd5b6001900381819060005260206000200160009055905550505050565b6000612631836110ac565b905081600660008573ffffffffffffffffffffffffffffffffffffffff1673ffffffffffffffffffffffffffffffffffffffff168152602001908152602001600020600083815260200190815260200160002081905550806007600084815260200190815260200160002081905550505050565b600073ffffffffffffffffffffffffffffffffffffffff168273ffffffffffffffffffffffffffffffffffffffff161415612715576040517f08c379a000000000000000000000000000000000000000000000000000000000815260040161270c90613851565b60405180910390fd5b61271e816116cf565b1561275e576040517f08c379a000000000000000000000000000000000000000000000000000000000815260040161275590613751565b60405180910390fd5b61276a60008383612027565b6001600360008473ffffffffffffffffffffffffffffffffffffffff1673ffffffffffffffffffffffffffffffffffffffff16815260200190815260200160002060008282546127ba9190613a7b565b92505081905550816002600083815260200190815260200160002060006101000a81548173ffffffffffffffffffffffffffffffffffffffff021916908373ffffffffffffffffffffffffffffffffffffffff160217905550808273ffffffffffffffffffffffffffffffffffffffff16600073ffffffffffffffffffffffffffffffffffffffff167fddf252ad1be2c89b69c2b068fc378daa952ba7f163c4a11628f55a4df523b3ef60405160405180910390a45050565b6000612886612881846139fd565b6139cc565b90508281526020810184848401111561289e57600080fd5b6128a9848285613c04565b509392505050565b6000813590506128c081613dbf565b92915050565b6000813590506128d581613dd6565b92915050565b6000813590506128ea81613ded565b92915050565b6000815190506128ff81613ded565b92915050565b600082601f83011261291657600080fd5b8135612926848260208601612873565b91505092915050565b60008135905061293e81613e04565b92915050565b60006020828403121561295657600080fd5b6000612964848285016128b1565b91505092915050565b6000806040838503121561298057600080fd5b600061298e858286016128b1565b925050602061299f858286016128b1565b9150509250929050565b6000806000606084860312156129be57600080fd5b60006129cc868287016128b1565b93505060206129dd868287016128b1565b92505060406129ee8682870161292f565b9150509250925092565b60008060008060808587031215612a0e57600080fd5b6000612a1c878288016128b1565b9450506020612a2d878288016128b1565b9350506040612a3e8782880161292f565b925050606085013567ffffffffffffffff811115612a5b57600080fd5b612a6787828801612905565b91505092959194509250565b60008060408385031215612a8657600080fd5b6000612a94858286016128b1565b9250506020612aa5858286016128c6565b9150509250929050565b60008060408385031215612ac257600080fd5b6000612ad0858286016128b1565b9250506020612ae18582860161292f565b9150509250929050565b600080600060608486031215612b0057600080fd5b6000612b0e868287016128b1565b9350506020612b1f8682870161292f565b9250506040612b308682870161292f565b9150509250925092565b600060208284031215612b4c57600080fd5b6000612b5a848285016128db565b91505092915050565b600060208284031215612b7557600080fd5b6000612b83848285016128f0565b91505092915050565b600060208284031215612b9e57600080fd5b6000612bac8482850161292f565b91505092915050565b612bbe81613b90565b82525050565b612bcd81613ba2565b82525050565b6000612bde82613a2d565b612be88185613a43565b9350612bf8818560208601613c13565b612c0181613dae565b840191505092915050565b6000612c1782613a38565b612c218185613a5f565b9350612c31818560208601613c13565b612c3a81613dae565b840191505092915050565b6000612c5082613a38565b612c5a8185613a70565b9350612c6a818560208601613c13565b80840191505092915050565b6000612c83601983613a5f565b91507f596f7520646f206e6f74206f776e207468697320746f6b656e000000000000006000830152602082019050919050565b6000612cc3602b83613a5f565b91507f455243373231456e756d657261626c653a206f776e657220696e646578206f7560008301527f74206f6620626f756e64730000000000000000000000000000000000000000006020830152604082019050919050565b6000612d29603283613a5f565b91507f4552433732313a207472616e7366657220746f206e6f6e20455243373231526560008301527f63656976657220696d706c656d656e74657200000000000000000000000000006020830152604082019050919050565b6000612d8f602683613a5f565b91507f4f776e61626c653a206e6577206f776e657220697320746865207a65726f206160008301527f64647265737300000000000000000000000000000000000000000000000000006020830152604082019050919050565b6000612df5603583613a5f565b91507f6f6e6c79207368617265686f6c646572732061726520616c6c6f77656420746f60008301527f20616363657373207468697320666561747572652e00000000000000000000006020830152604082019050919050565b6000612e5b602483613a5f565b91507f596f7520617265206e6f7420746865206f776e6572206f66207468697320746f60008301527f6b656e2e000000000000000000000000000000000000000000000000000000006020830152604082019050919050565b6000612ec1601c83613a5f565b91507f4552433732313a20746f6b656e20616c7265616479206d696e746564000000006000830152602082019050919050565b6000612f01602483613a5f565b91507f4552433732313a207472616e7366657220746f20746865207a65726f2061646460008301527f72657373000000000000000000000000000000000000000000000000000000006020830152604082019050919050565b6000612f67601983613a5f565b91507f4552433732313a20617070726f766520746f2063616c6c6572000000000000006000830152602082019050919050565b6000612fa7602c83613a5f565b91507f4552433732313a206f70657261746f7220717565727920666f72206e6f6e657860008301527f697374656e7420746f6b656e00000000000000000000000000000000000000006020830152604082019050919050565b600061300d603883613a5f565b91507f4552433732313a20617070726f76652063616c6c6572206973206e6f74206f7760008301527f6e6572206e6f7220617070726f76656420666f7220616c6c00000000000000006020830152604082019050919050565b6000613073602a83613a5f565b91507f4552433732313a2062616c616e636520717565727920666f7220746865207a6560008301527f726f2061646472657373000000000000000000000000000000000000000000006020830152604082019050919050565b60006130d9602983613a5f565b91507f4552433732313a206f776e657220717565727920666f72206e6f6e657869737460008301527f656e7420746f6b656e00000000000000000000000000000000000000000000006020830152604082019050919050565b600061313f601683613a5f565b91507f596f7520646f6e74206465736572766520736869742e000000000000000000006000830152602082019050919050565b600061317f602083613a5f565b91507f4552433732313a206d696e7420746f20746865207a65726f20616464726573736000830152602082019050919050565b60006131bf602c83613a5f565b91507f4552433732313a20617070726f76656420717565727920666f72206e6f6e657860008301527f697374656e7420746f6b656e00000000000000000000000000000000000000006020830152604082019050919050565b6000613225602083613a5f565b91507f4f776e61626c653a2063616c6c6572206973206e6f7420746865206f776e65726000830152602082019050919050565b6000613265602983613a5f565b91507f4552433732313a207472616e73666572206f6620746f6b656e2074686174206960008301527f73206e6f74206f776e00000000000000000000000000000000000000000000006020830152604082019050919050565b60006132cb602f83613a5f565b91507f4552433732314d657461646174613a2055524920717565727920666f72206e6f60008301527f6e6578697374656e7420746f6b656e00000000000000000000000000000000006020830152604082019050919050565b6000613331602183613a5f565b91507f4552433732313a20617070726f76616c20746f2063757272656e74206f776e6560008301527f72000000000000000000000000000000000000000000000000000000000000006020830152604082019050919050565b6000613397603183613a5f565b91507f4552433732313a207472616e736665722063616c6c6572206973206e6f74206f60008301527f776e6572206e6f7220617070726f7665640000000000000000000000000000006020830152604082019050919050565b60006133fd602c83613a5f565b91507f455243373231456e756d657261626c653a20676c6f62616c20696e646578206f60008301527f7574206f6620626f756e647300000000000000000000000000000000000000006020830152604082019050919050565b6000613463601d83613a5f565b91507f536861726573206d7573742062652067726561746572207468616e20300000006000830152602082019050919050565b60006134a3600c83613a5f565b91507f436c61696d206661696c656400000000000000000000000000000000000000006000830152602082019050919050565b60006134e3603183613a5f565b91507f4e657720736861726573206d757374206265206c657373207468616e20796f7560008301527f7220617661696c61626c652073686172650000000000000000000000000000006020830152604082019050919050565b6000613549600783613a54565b91507f42652072696368000000000000000000000000000000000000000000000000006000830152600782019050919050565b61358581613bfa565b82525050565b60006135978285612c45565b91506135a38284612c45565b91508190509392505050565b60006135ba8261353c565b9150819050919050565b60006020820190506135d96000830184612bb5565b92915050565b60006080820190506135f46000830187612bb5565b6136016020830186612bb5565b61360e604083018561357c565b81810360608301526136208184612bd3565b905095945050505050565b60006040820190506136406000830185612bb5565b61364d602083018461357c565b9392505050565b60006020820190506136696000830184612bc4565b92915050565b600060208201905081810360008301526136898184612c0c565b905092915050565b600060208201905081810360008301526136aa81612c76565b9050919050565b600060208201905081810360008301526136ca81612cb6565b9050919050565b600060208201905081810360008301526136ea81612d1c565b9050919050565b6000602082019050818103600083015261370a81612d82565b9050919050565b6000602082019050818103600083015261372a81612de8565b9050919050565b6000602082019050818103600083015261374a81612e4e565b9050919050565b6000602082019050818103600083015261376a81612eb4565b9050919050565b6000602082019050818103600083015261378a81612ef4565b9050919050565b600060208201905081810360008301526137aa81612f5a565b9050919050565b600060208201905081810360008301526137ca81612f9a565b9050919050565b600060208201905081810360008301526137ea81613000565b9050919050565b6000602082019050818103600083015261380a81613066565b9050919050565b6000602082019050818103600083015261382a816130cc565b9050919050565b6000602082019050818103600083015261384a81613132565b9050919050565b6000602082019050818103600083015261386a81613172565b9050919050565b6000602082019050818103600083015261388a816131b2565b9050919050565b600060208201905081810360008301526138aa81613218565b9050919050565b600060208201905081810360008301526138ca81613258565b9050919050565b600060208201905081810360008301526138ea816132be565b9050919050565b6000602082019050818103600083015261390a81613324565b9050919050565b6000602082019050818103600083015261392a8161338a565b9050919050565b6000602082019050818103600083015261394a816133f0565b9050919050565b6000602082019050818103600083015261396a81613456565b9050919050565b6000602082019050818103600083015261398a81613496565b9050919050565b600060208201905081810360008301526139aa816134d6565b9050919050565b60006020820190506139c6600083018461357c565b92915050565b6000604051905081810181811067ffffffffffffffff821117156139f3576139f2613d7f565b5b8060405250919050565b600067ffffffffffffffff821115613a1857613a17613d7f565b5b601f19601f8301169050602081019050919050565b600081519050919050565b600081519050919050565b600082825260208201905092915050565b600081905092915050565b600082825260208201905092915050565b600081905092915050565b6000613a8682613bfa565b9150613a9183613bfa565b9250827fffffffffffffffffffffffffffffffffffffffffffffffffffffffffffffffff03821115613ac657613ac5613cf2565b5b828201905092915050565b6000613adc82613bfa565b9150613ae783613bfa565b925082613af757613af6613d21565b5b828204905092915050565b6000613b0d82613bfa565b9150613b1883613bfa565b9250817fffffffffffffffffffffffffffffffffffffffffffffffffffffffffffffffff0483118215151615613b5157613b50613cf2565b5b828202905092915050565b6000613b6782613bfa565b9150613b7283613bfa565b925082821015613b8557613b84613cf2565b5b828203905092915050565b6000613b9b82613bda565b9050919050565b60008115159050919050565b60007fffffffff0000000000000000000000000000000000000000000000000000000082169050919050565b600073ffffffffffffffffffffffffffffffffffffffff82169050919050565b6000819050919050565b82818337600083830152505050565b60005b83811015613c31578082015181840152602081019050613c16565b83811115613c40576000848401525b50505050565b60006002820490506001821680613c5e57607f821691505b60208210811415613c7257613c71613d50565b5b50919050565b6000613c8382613bfa565b91507fffffffffffffffffffffffffffffffffffffffffffffffffffffffffffffffff821415613cb657613cb5613cf2565b5b600182019050919050565b6000613ccc82613bfa565b9150613cd783613bfa565b925082613ce757613ce6613d21565b5b828206905092915050565b7f4e487b7100000000000000000000000000000000000000000000000000000000600052601160045260246000fd5b7f4e487b7100000000000000000000000000000000000000000000000000000000600052601260045260246000fd5b7f4e487b7100000000000000000000000000000000000000000000000000000000600052602260045260246000fd5b7f4e487b7100000000000000000000000000000000000000000000000000000000600052604160045260246000fd5b6000601f19601f8301169050919050565b613dc881613b90565b8114613dd357600080fd5b50565b613ddf81613ba2565b8114613dea57600080fd5b50565b613df681613bae565b8114613e0157600080fd5b50565b613e0d81613bfa565b8114613e1857600080fd5b5056fea26469706673582212203f78fb846a397d9aae189d8c0990c3bd5e47af948b06d36e6aac66ee7a8138a864736f6c63430008000033a2646970667358221220b674ca1ff8b486324bedd4576775319222ad9ebc61d02acaebd764d4ee472e3964736f6c63430008000033",
  "linkReferences": {},
  "deployedLinkReferences": {}
}